
AMU.elf:     file format elf32-littlearm

Sections:
Idx Name          Size      VMA       LMA       File off  Algn
  0 .text         0001fd24  00440000  00440000  00010000  2**6
                  CONTENTS, ALLOC, LOAD, READONLY, CODE
  1 .ARM.exidx    00000008  0045fd24  0045fd24  0002fd24  2**2
                  CONTENTS, ALLOC, LOAD, READONLY, DATA
  2 .relocate     00000b28  20400000  0045fd2c  00030000  2**3
                  CONTENTS, ALLOC, LOAD, CODE
  3 .bss          00004398  20400b28  00460854  00030b28  2**2
                  ALLOC
  4 .stack        00002000  20404ec0  00464bec  00030b28  2**0
                  ALLOC
  5 .heap         00000200  20406ec0  00466bec  00030b28  2**0
                  ALLOC
  6 .ARM.attributes 0000002e  00000000  00000000  00030b28  2**0
                  CONTENTS, READONLY
  7 .comment      00000059  00000000  00000000  00030b56  2**0
                  CONTENTS, READONLY
  8 .debug_info   0005310b  00000000  00000000  00030baf  2**0
                  CONTENTS, READONLY, DEBUGGING
  9 .debug_abbrev 0000583e  00000000  00000000  00083cba  2**0
                  CONTENTS, READONLY, DEBUGGING
 10 .debug_loc    00013967  00000000  00000000  000894f8  2**0
                  CONTENTS, READONLY, DEBUGGING
 11 .debug_aranges 00001378  00000000  00000000  0009ce5f  2**0
                  CONTENTS, READONLY, DEBUGGING
 12 .debug_ranges 00001a58  00000000  00000000  0009e1d7  2**0
                  CONTENTS, READONLY, DEBUGGING
 13 .debug_macro  000283dc  00000000  00000000  0009fc2f  2**0
                  CONTENTS, READONLY, DEBUGGING
 14 .debug_line   000189ec  00000000  00000000  000c800b  2**0
                  CONTENTS, READONLY, DEBUGGING
 15 .debug_str    000a9774  00000000  00000000  000e09f7  2**0
                  CONTENTS, READONLY, DEBUGGING
 16 .debug_frame  00004b14  00000000  00000000  0018a16c  2**2
                  CONTENTS, READONLY, DEBUGGING

Disassembly of section .text:

00440000 <exception_table>:
  440000:	c0 6e 40 20 2d 10 45 00 29 10 45 00 29 10 45 00     .n@ -.E.).E.).E.
  440010:	29 10 45 00 29 10 45 00 29 10 45 00 00 00 00 00     ).E.).E.).E.....
	...
  44002c:	29 10 45 00 29 10 45 00 00 00 00 00 29 10 45 00     ).E.).E.....).E.
  44003c:	41 15 45 00 29 10 45 00 29 10 45 00 29 10 45 00     A.E.).E.).E.).E.
  44004c:	29 10 45 00 29 10 45 00 29 10 45 00 29 10 45 00     ).E.).E.).E.).E.
  44005c:	f5 10 45 00 55 11 45 00 00 00 00 00 f1 08 45 00     ..E.U.E.......E.
  44006c:	05 09 45 00 19 09 45 00 2b 10 45 00 29 10 45 00     ..E...E.+.E.).E.
  44007c:	29 10 45 00 2d 09 45 00 41 09 45 00 29 10 45 00     ).E.-.E.A.E.).E.
  44008c:	29 10 45 00 29 10 45 00 29 10 45 00 29 10 45 00     ).E.).E.).E.).E.
  44009c:	29 10 45 00 29 10 45 00 29 10 45 00 29 10 45 00     ).E.).E.).E.).E.
  4400ac:	29 10 45 00 29 10 45 00 29 10 45 00 29 10 45 00     ).E.).E.).E.).E.
  4400bc:	29 10 45 00 29 10 45 00 29 10 45 00 29 10 45 00     ).E.).E.).E.).E.
  4400cc:	29 10 45 00 29 10 45 00 29 10 45 00 29 10 45 00     ).E.).E.).E.).E.
  4400dc:	29 10 45 00 29 10 45 00 29 10 45 00 29 10 45 00     ).E.).E.).E.).E.
  4400ec:	29 10 45 00 29 10 45 00 29 10 45 00 29 10 45 00     ).E.).E.).E.).E.
  4400fc:	29 10 45 00 29 10 45 00 29 10 45 00 29 10 45 00     ).E.).E.).E.).E.
  44010c:	29 10 45 00 29 10 45 00 00 00 00 00 00 00 00 00     ).E.).E.........
  44011c:	00 00 00 00 29 10 45 00 29 10 45 00 29 10 45 00     ....).E.).E.).E.
  44012c:	29 10 45 00 29 10 45 00 29 10 45 00 29 10 45 00     ).E.).E.).E.).E.
  44013c:	29 10 45 00 29 10 45 00 29 10 45 00 29 10 45 00     ).E.).E.).E.).E.
  44014c:	29 10 45 00 29 10 45 00 29 10 45 00 29 10 45 00     ).E.).E.).E.).E.
  44015c:	29 10 45 00 29 10 45 00 29 10 45 00                 ).E.).E.).E.

00440168 <__do_global_dtors_aux>:
  440168:	b510      	push	{r4, lr}
  44016a:	4c05      	ldr	r4, [pc, #20]	; (440180 <__do_global_dtors_aux+0x18>)
  44016c:	7823      	ldrb	r3, [r4, #0]
  44016e:	b933      	cbnz	r3, 44017e <__do_global_dtors_aux+0x16>
  440170:	4b04      	ldr	r3, [pc, #16]	; (440184 <__do_global_dtors_aux+0x1c>)
  440172:	b113      	cbz	r3, 44017a <__do_global_dtors_aux+0x12>
  440174:	4804      	ldr	r0, [pc, #16]	; (440188 <__do_global_dtors_aux+0x20>)
  440176:	f3af 8000 	nop.w
  44017a:	2301      	movs	r3, #1
  44017c:	7023      	strb	r3, [r4, #0]
  44017e:	bd10      	pop	{r4, pc}
  440180:	20400b28 	.word	0x20400b28
  440184:	00000000 	.word	0x00000000
  440188:	0045fd2c 	.word	0x0045fd2c

0044018c <frame_dummy>:
  44018c:	4b0c      	ldr	r3, [pc, #48]	; (4401c0 <frame_dummy+0x34>)
  44018e:	b143      	cbz	r3, 4401a2 <frame_dummy+0x16>
  440190:	480c      	ldr	r0, [pc, #48]	; (4401c4 <frame_dummy+0x38>)
  440192:	490d      	ldr	r1, [pc, #52]	; (4401c8 <frame_dummy+0x3c>)
  440194:	b510      	push	{r4, lr}
  440196:	f3af 8000 	nop.w
  44019a:	480c      	ldr	r0, [pc, #48]	; (4401cc <frame_dummy+0x40>)
  44019c:	6803      	ldr	r3, [r0, #0]
  44019e:	b923      	cbnz	r3, 4401aa <frame_dummy+0x1e>
  4401a0:	bd10      	pop	{r4, pc}
  4401a2:	480a      	ldr	r0, [pc, #40]	; (4401cc <frame_dummy+0x40>)
  4401a4:	6803      	ldr	r3, [r0, #0]
  4401a6:	b933      	cbnz	r3, 4401b6 <frame_dummy+0x2a>
  4401a8:	4770      	bx	lr
  4401aa:	4b09      	ldr	r3, [pc, #36]	; (4401d0 <frame_dummy+0x44>)
  4401ac:	2b00      	cmp	r3, #0
  4401ae:	d0f7      	beq.n	4401a0 <frame_dummy+0x14>
  4401b0:	e8bd 4010 	ldmia.w	sp!, {r4, lr}
  4401b4:	4718      	bx	r3
  4401b6:	4b06      	ldr	r3, [pc, #24]	; (4401d0 <frame_dummy+0x44>)
  4401b8:	2b00      	cmp	r3, #0
  4401ba:	d0f5      	beq.n	4401a8 <frame_dummy+0x1c>
  4401bc:	4718      	bx	r3
  4401be:	bf00      	nop
  4401c0:	00000000 	.word	0x00000000
  4401c4:	0045fd2c 	.word	0x0045fd2c
  4401c8:	20400b2c 	.word	0x20400b2c
  4401cc:	0045fd2c 	.word	0x0045fd2c
  4401d0:	00000000 	.word	0x00000000

004401d4 <initAluMacInfoData>:
//
// Init the data that controls the GET ALU MAC INFO feature and state machine:
//
//
void initAluMacInfoData(void)
{
  4401d4:	b410      	push	{r4}
    getAluMacInfoCb.stateMachineState      = ALU_MAC_INFO_STATE_DEAD_QUIET;
  4401d6:	4b0e      	ldr	r3, [pc, #56]	; (440210 <initAluMacInfoData+0x3c>)
  4401d8:	2001      	movs	r0, #1
  4401da:	6018      	str	r0, [r3, #0]
    getAluMacInfoCb.aluGetType             = ALU_GET_TYPE_UNKNOWN;
  4401dc:	6058      	str	r0, [r3, #4]
    getAluMacInfoCb.pUserCommand           = NULL;
  4401de:	2200      	movs	r2, #0
  4401e0:	609a      	str	r2, [r3, #8]
    getAluMacInfoCb.userPort               = 0;
  4401e2:	60da      	str	r2, [r3, #12]
    getAluMacInfoCb.aluStartIndex          = 0xFFFFFFFF;
  4401e4:	f04f 31ff 	mov.w	r1, #4294967295
  4401e8:	6119      	str	r1, [r3, #16]
    getAluMacInfoCb.startReadTick          = 0;
  4401ea:	615a      	str	r2, [r3, #20]
    getAluMacInfoCb.lastReadTick           = 0;
  4401ec:	619a      	str	r2, [r3, #24]
    getAluMacInfoCb.portAsKey              = 0xFFFFFFFF;
  4401ee:	61d9      	str	r1, [r3, #28]
    getAluMacInfoCb.portAsIndex            = 0xFFFFFFFF;
  4401f0:	6219      	str	r1, [r3, #32]
    getAluMacInfoCb.kszValidCount          = 0;
  4401f2:	849a      	strh	r2, [r3, #36]	; 0x24
    getAluMacInfoCb.kszPortForward         = 0xFF;
  4401f4:	f883 1026 	strb.w	r1, [r3, #38]	; 0x26
    getAluMacInfoCb.lastKszPortForwardRead = 0xFF;
  4401f8:	24ff      	movs	r4, #255	; 0xff
  4401fa:	f883 4027 	strb.w	r4, [r3, #39]	; 0x27
    getAluMacInfoCb.controller             = UNKNOWN_ETHERNET_CONTROLLER;
  4401fe:	6298      	str	r0, [r3, #40]	; 0x28
    getAluMacInfoCb.maxAluIndex            = 0xFFFFFFFF;
  440200:	62d9      	str	r1, [r3, #44]	; 0x2c
    getAluMacInfoCb.current_index          = 0xFFFFFFFF;
  440202:	6319      	str	r1, [r3, #48]	; 0x30
    memset(&getAluMacInfoCb.mac[0], 0x00, 6);
  440204:	635a      	str	r2, [r3, #52]	; 0x34
  440206:	871a      	strh	r2, [r3, #56]	; 0x38
}
  440208:	f85d 4b04 	ldr.w	r4, [sp], #4
  44020c:	4770      	bx	lr
  44020e:	bf00      	nop
  440210:	20400b44 	.word	0x20400b44

00440214 <cancelGetAluMacResult>:
//
//
//
// {"CLI":{"COMMAND":"cancel_get_alu_mac_info","ARGUMENTS":"NONE","CODE":0,"RESULT":"SUCCESS","RESPONSE":{"PROCESS":"CANCELED"}}}
void cancelGetAluMacResult(void)
{
  440214:	b510      	push	{r4, lr}
  440216:	b08a      	sub	sp, #40	; 0x28
    getAluMacInfoCb.stateMachineState = ALU_MAC_INFO_STATE_IDLE;
  440218:	2202      	movs	r2, #2
  44021a:	4b0e      	ldr	r3, [pc, #56]	; (440254 <cancelGetAluMacResult+0x40>)
  44021c:	601a      	str	r2, [r3, #0]
    printf("{%s:{%s:\"%s\",%s:%s,%s:%u,%s:%s,%s:{%s:%s}}}\r\n",
  44021e:	4b0e      	ldr	r3, [pc, #56]	; (440258 <cancelGetAluMacResult+0x44>)
  440220:	9308      	str	r3, [sp, #32]
  440222:	4b0e      	ldr	r3, [pc, #56]	; (44025c <cancelGetAluMacResult+0x48>)
  440224:	9307      	str	r3, [sp, #28]
  440226:	4b0e      	ldr	r3, [pc, #56]	; (440260 <cancelGetAluMacResult+0x4c>)
  440228:	9306      	str	r3, [sp, #24]
  44022a:	4b0e      	ldr	r3, [pc, #56]	; (440264 <cancelGetAluMacResult+0x50>)
  44022c:	9305      	str	r3, [sp, #20]
  44022e:	4b0e      	ldr	r3, [pc, #56]	; (440268 <cancelGetAluMacResult+0x54>)
  440230:	9304      	str	r3, [sp, #16]
  440232:	2300      	movs	r3, #0
  440234:	9303      	str	r3, [sp, #12]
  440236:	4b0d      	ldr	r3, [pc, #52]	; (44026c <cancelGetAluMacResult+0x58>)
  440238:	9302      	str	r3, [sp, #8]
  44023a:	4b0d      	ldr	r3, [pc, #52]	; (440270 <cancelGetAluMacResult+0x5c>)
  44023c:	9301      	str	r3, [sp, #4]
  44023e:	4b0d      	ldr	r3, [pc, #52]	; (440274 <cancelGetAluMacResult+0x60>)
  440240:	9300      	str	r3, [sp, #0]
  440242:	4b0d      	ldr	r3, [pc, #52]	; (440278 <cancelGetAluMacResult+0x64>)
  440244:	4a0d      	ldr	r2, [pc, #52]	; (44027c <cancelGetAluMacResult+0x68>)
  440246:	490e      	ldr	r1, [pc, #56]	; (440280 <cancelGetAluMacResult+0x6c>)
  440248:	480e      	ldr	r0, [pc, #56]	; (440284 <cancelGetAluMacResult+0x70>)
  44024a:	4c0f      	ldr	r4, [pc, #60]	; (440288 <cancelGetAluMacResult+0x74>)
  44024c:	47a0      	blx	r4
           CLI_STRING, COMMAND_STRING,   CANCEL_GET_ALU_MAC_RESULT_CMD,
                       ARGUMENTS_STRING, NONE_STRING,
                       CODE_STRING,      0,
                       RESULT_STRING,    SUCCESS_STRING,
                       RESPONSE_STRING,  PROCESS_STRING, CANCELED_STRING);
}
  44024e:	b00a      	add	sp, #40	; 0x28
  440250:	bd10      	pop	{r4, pc}
  440252:	bf00      	nop
  440254:	20400b44 	.word	0x20400b44
  440258:	004588f0 	.word	0x004588f0
  44025c:	0045a0a8 	.word	0x0045a0a8
  440260:	0045a3d4 	.word	0x0045a3d4
  440264:	0045a8c0 	.word	0x0045a8c0
  440268:	0045a3e0 	.word	0x0045a3e0
  44026c:	00458d08 	.word	0x00458d08
  440270:	00459b98 	.word	0x00459b98
  440274:	0045889c 	.word	0x0045889c
  440278:	00458920 	.word	0x00458920
  44027c:	00458d24 	.word	0x00458d24
  440280:	00458cf8 	.word	0x00458cf8
  440284:	00457fd0 	.word	0x00457fd0
  440288:	0045206d 	.word	0x0045206d

0044028c <getKszPortForwardFromPortKey>:
//                                        7 = downstream port 7 -> ksz port forward = 0b011 (0b00000000)
//                                        8 = downstream port 8 -> ksz port forward = 0b100 (0b00000000)
U8 getKszPortForwardFromPortKey(U32 portKey)
{
    U8 kszPortForward;
    if      (portKey == 0) {kszPortForward = 0x10; } // 0 = LAN port          -> ksz port forward = 0x10  (0b00010000)
  44028c:	b908      	cbnz	r0, 440292 <getKszPortForwardFromPortKey+0x6>
  44028e:	2010      	movs	r0, #16
  440290:	4770      	bx	lr
    else if (portKey == 1) {kszPortForward = 0x01; } // 1 = downstream port 1 -> ksz port forward = 0x01  (0b00000001)
  440292:	2801      	cmp	r0, #1
  440294:	d010      	beq.n	4402b8 <getKszPortForwardFromPortKey+0x2c>
    else if (portKey == 2) {kszPortForward = 0x02; } // 2 = downstream port 2 -> ksz port forward = 0x02  (0b00000010)
  440296:	2802      	cmp	r0, #2
  440298:	d010      	beq.n	4402bc <getKszPortForwardFromPortKey+0x30>
    else if (portKey == 3) {kszPortForward = 0x04; } // 3 = downstream port 3 -> ksz port forward = 0x04  (0b00000100)
  44029a:	2803      	cmp	r0, #3
  44029c:	d010      	beq.n	4402c0 <getKszPortForwardFromPortKey+0x34>
    else if (portKey == 4) {kszPortForward = 0x08; } // 4 = downstream port 4 -> ksz port forward = 0x08  (0b00001000)
  44029e:	2804      	cmp	r0, #4
  4402a0:	d010      	beq.n	4402c4 <getKszPortForwardFromPortKey+0x38>
    else if (portKey == 5) {kszPortForward = 0x00; } // 5 = downstream port 5 -> ksz port forward = 0b000 (0b00000000) (bits [58..56] 3 bits in register 0x71
  4402a2:	2805      	cmp	r0, #5
  4402a4:	d010      	beq.n	4402c8 <getKszPortForwardFromPortKey+0x3c>
    else if (portKey == 6) {kszPortForward = 0x02; } // 6 = downstream port 6 -> ksz port forward = 0b010 (0b00000000)
  4402a6:	2806      	cmp	r0, #6
  4402a8:	d010      	beq.n	4402cc <getKszPortForwardFromPortKey+0x40>
    else if (portKey == 7) {kszPortForward = 0x03; } // 7 = downstream port 7 -> ksz port forward = 0b011 (0b00000000)
  4402aa:	2807      	cmp	r0, #7
  4402ac:	d010      	beq.n	4402d0 <getKszPortForwardFromPortKey+0x44>
    else if (portKey == 8) {kszPortForward = 0x04; } // 8 = downstream port 8 -> ksz port forward = 0b100 (0b00000000)
    else                   {kszPortForward = 0xFF; } // hmmmmm ...
  4402ae:	2808      	cmp	r0, #8
  4402b0:	bf0c      	ite	eq
  4402b2:	2004      	moveq	r0, #4
  4402b4:	20ff      	movne	r0, #255	; 0xff
  4402b6:	4770      	bx	lr
    else if (portKey == 1) {kszPortForward = 0x01; } // 1 = downstream port 1 -> ksz port forward = 0x01  (0b00000001)
  4402b8:	2001      	movs	r0, #1
  4402ba:	4770      	bx	lr
    else if (portKey == 2) {kszPortForward = 0x02; } // 2 = downstream port 2 -> ksz port forward = 0x02  (0b00000010)
  4402bc:	2002      	movs	r0, #2
  4402be:	4770      	bx	lr
    else if (portKey == 3) {kszPortForward = 0x04; } // 3 = downstream port 3 -> ksz port forward = 0x04  (0b00000100)
  4402c0:	2004      	movs	r0, #4
  4402c2:	4770      	bx	lr
    else if (portKey == 4) {kszPortForward = 0x08; } // 4 = downstream port 4 -> ksz port forward = 0x08  (0b00001000)
  4402c4:	2008      	movs	r0, #8
  4402c6:	4770      	bx	lr
    else if (portKey == 5) {kszPortForward = 0x00; } // 5 = downstream port 5 -> ksz port forward = 0b000 (0b00000000) (bits [58..56] 3 bits in register 0x71
  4402c8:	2000      	movs	r0, #0
  4402ca:	4770      	bx	lr
    else if (portKey == 6) {kszPortForward = 0x02; } // 6 = downstream port 6 -> ksz port forward = 0b010 (0b00000000)
  4402cc:	2002      	movs	r0, #2
  4402ce:	4770      	bx	lr
    else if (portKey == 7) {kszPortForward = 0x03; } // 7 = downstream port 7 -> ksz port forward = 0b011 (0b00000000)
  4402d0:	2003      	movs	r0, #3
    return kszPortForward;
}
  4402d2:	4770      	bx	lr

004402d4 <launchAluInfoByPortIndex>:
// {"CLI":{"COMMAND":"get_alu_mac_by_port_index","ARGUMENTS":"blah=1","CODE":0,"RESULT":"FAIL","RESPONSE":{"REASON":"FAIL","INFO":"MISSING PORT ARG"}}}
// {"CLI":{"COMMAND":"get_alu_mac_by_port_index","ARGUMENTS":"blah=1","CODE":0,"RESULT":"FAIL","RESPONSE":{"REASON":"FAIL","INFO":"MISSING INDEX ARG"}}}
// {"CLI":{"COMMAND":"get_alu_mac_by_port_index","ARGUMENTS":"blah=1","CODE":0,"RESULT":"FAIL","RESPONSE":{"REASON":"FAIL","INFO":"INDEX OUT OF RANGE"}}}
//
void launchAluInfoByPortIndex(char *pUserInput)
{
  4402d4:	e92d 43f0 	stmdb	sp!, {r4, r5, r6, r7, r8, r9, lr}
  4402d8:	b0a7      	sub	sp, #156	; 0x9c
  4402da:	4604      	mov	r4, r0
    char   pAluStartIndexString[AMU_COMPONENT_DATA_SIZE_MAX];
    U32    portKey;
    U32    portIndex;
    U32    aluIndex;

    pArguments = &pUserInput[strlen(LAUNCH_ALU_INFO_BY_PORT_INDEX_CMD) + 1];
  4402dc:	488b      	ldr	r0, [pc, #556]	; (44050c <launchAluInfoByPortIndex+0x238>)
  4402de:	4b8c      	ldr	r3, [pc, #560]	; (440510 <launchAluInfoByPortIndex+0x23c>)
  4402e0:	4798      	blx	r3
  4402e2:	3001      	adds	r0, #1
    if (pArguments == NULL) {
  4402e4:	1824      	adds	r4, r4, r0
  4402e6:	d01d      	beq.n	440324 <launchAluInfoByPortIndex+0x50>
                           ARGUMENTS_STRING, NULL_STRING,
                           CODE_STRING,      0,
                           RESULT_STRING,    FAIL_STRING,
                           RESPONSE_STRING,  REASON_STRING, INVALID_ARGUMENTS_STRING);

    } else if (getAluMacInfoCb.stateMachineState != ALU_MAC_INFO_STATE_IDLE) {
  4402e8:	4b8a      	ldr	r3, [pc, #552]	; (440514 <launchAluInfoByPortIndex+0x240>)
  4402ea:	681b      	ldr	r3, [r3, #0]
  4402ec:	2b02      	cmp	r3, #2
  4402ee:	d032      	beq.n	440356 <launchAluInfoByPortIndex+0x82>
        // This state machine is currently active.
        printf("{%s:{%s:\"%s\",%s:\"%s\",%s:%u,%s:%s,%s:{%s:%s}}}\r\n",
  4402f0:	4b89      	ldr	r3, [pc, #548]	; (440518 <launchAluInfoByPortIndex+0x244>)
  4402f2:	9308      	str	r3, [sp, #32]
  4402f4:	4b89      	ldr	r3, [pc, #548]	; (44051c <launchAluInfoByPortIndex+0x248>)
  4402f6:	9307      	str	r3, [sp, #28]
  4402f8:	4b89      	ldr	r3, [pc, #548]	; (440520 <launchAluInfoByPortIndex+0x24c>)
  4402fa:	9306      	str	r3, [sp, #24]
  4402fc:	4b89      	ldr	r3, [pc, #548]	; (440524 <launchAluInfoByPortIndex+0x250>)
  4402fe:	9305      	str	r3, [sp, #20]
  440300:	4b89      	ldr	r3, [pc, #548]	; (440528 <launchAluInfoByPortIndex+0x254>)
  440302:	9304      	str	r3, [sp, #16]
  440304:	2300      	movs	r3, #0
  440306:	9303      	str	r3, [sp, #12]
  440308:	4b88      	ldr	r3, [pc, #544]	; (44052c <launchAluInfoByPortIndex+0x258>)
  44030a:	9302      	str	r3, [sp, #8]
  44030c:	9401      	str	r4, [sp, #4]
  44030e:	4b88      	ldr	r3, [pc, #544]	; (440530 <launchAluInfoByPortIndex+0x25c>)
  440310:	9300      	str	r3, [sp, #0]
  440312:	4b7e      	ldr	r3, [pc, #504]	; (44050c <launchAluInfoByPortIndex+0x238>)
  440314:	4a87      	ldr	r2, [pc, #540]	; (440534 <launchAluInfoByPortIndex+0x260>)
  440316:	4988      	ldr	r1, [pc, #544]	; (440538 <launchAluInfoByPortIndex+0x264>)
  440318:	4888      	ldr	r0, [pc, #544]	; (44053c <launchAluInfoByPortIndex+0x268>)
  44031a:	4c89      	ldr	r4, [pc, #548]	; (440540 <launchAluInfoByPortIndex+0x26c>)
  44031c:	47a0      	blx	r4
#endif

            } else {} // A reply will have been returned for any error coming here.
        }
    } 
}
  44031e:	b027      	add	sp, #156	; 0x9c
  440320:	e8bd 83f0 	ldmia.w	sp!, {r4, r5, r6, r7, r8, r9, pc}
        printf("{%s:{%s:\"%s\",%s:%s,%s:%u,%s:%s,%s:{%s:%s}}}\r\n",
  440324:	4b87      	ldr	r3, [pc, #540]	; (440544 <launchAluInfoByPortIndex+0x270>)
  440326:	9308      	str	r3, [sp, #32]
  440328:	4b7c      	ldr	r3, [pc, #496]	; (44051c <launchAluInfoByPortIndex+0x248>)
  44032a:	9307      	str	r3, [sp, #28]
  44032c:	4b7c      	ldr	r3, [pc, #496]	; (440520 <launchAluInfoByPortIndex+0x24c>)
  44032e:	9306      	str	r3, [sp, #24]
  440330:	4b7c      	ldr	r3, [pc, #496]	; (440524 <launchAluInfoByPortIndex+0x250>)
  440332:	9305      	str	r3, [sp, #20]
  440334:	4b7c      	ldr	r3, [pc, #496]	; (440528 <launchAluInfoByPortIndex+0x254>)
  440336:	9304      	str	r3, [sp, #16]
  440338:	2300      	movs	r3, #0
  44033a:	9303      	str	r3, [sp, #12]
  44033c:	4b7b      	ldr	r3, [pc, #492]	; (44052c <launchAluInfoByPortIndex+0x258>)
  44033e:	9302      	str	r3, [sp, #8]
  440340:	4b81      	ldr	r3, [pc, #516]	; (440548 <launchAluInfoByPortIndex+0x274>)
  440342:	9301      	str	r3, [sp, #4]
  440344:	4b7a      	ldr	r3, [pc, #488]	; (440530 <launchAluInfoByPortIndex+0x25c>)
  440346:	9300      	str	r3, [sp, #0]
  440348:	4b70      	ldr	r3, [pc, #448]	; (44050c <launchAluInfoByPortIndex+0x238>)
  44034a:	4a7a      	ldr	r2, [pc, #488]	; (440534 <launchAluInfoByPortIndex+0x260>)
  44034c:	497a      	ldr	r1, [pc, #488]	; (440538 <launchAluInfoByPortIndex+0x264>)
  44034e:	487f      	ldr	r0, [pc, #508]	; (44054c <launchAluInfoByPortIndex+0x278>)
  440350:	4c7b      	ldr	r4, [pc, #492]	; (440540 <launchAluInfoByPortIndex+0x26c>)
  440352:	47a0      	blx	r4
  440354:	e7e3      	b.n	44031e <launchAluInfoByPortIndex+0x4a>
    } else if (isMacResolutionSmIdle() == FALSE) {
  440356:	4b7e      	ldr	r3, [pc, #504]	; (440550 <launchAluInfoByPortIndex+0x27c>)
  440358:	4798      	blx	r3
  44035a:	2800      	cmp	r0, #0
  44035c:	f000 808e 	beq.w	44047c <launchAluInfoByPortIndex+0x1a8>
        memset(pPortString, 0, AMU_COMPONENT_DATA_SIZE_MAX);
  440360:	2720      	movs	r7, #32
  440362:	463a      	mov	r2, r7
  440364:	2100      	movs	r1, #0
  440366:	a81e      	add	r0, sp, #120	; 0x78
  440368:	4e7a      	ldr	r6, [pc, #488]	; (440554 <launchAluInfoByPortIndex+0x280>)
  44036a:	47b0      	blx	r6
        findComponentStringData(CLI_ARG_PORT_STRING, pPortString, pArguments);
  44036c:	4622      	mov	r2, r4
  44036e:	a91e      	add	r1, sp, #120	; 0x78
  440370:	4879      	ldr	r0, [pc, #484]	; (440558 <launchAluInfoByPortIndex+0x284>)
  440372:	4d7a      	ldr	r5, [pc, #488]	; (44055c <launchAluInfoByPortIndex+0x288>)
  440374:	47a8      	blx	r5
        memset(pAluStartIndexString, 0, AMU_COMPONENT_DATA_SIZE_MAX);
  440376:	463a      	mov	r2, r7
  440378:	2100      	movs	r1, #0
  44037a:	a816      	add	r0, sp, #88	; 0x58
  44037c:	47b0      	blx	r6
        findComponentStringData(CLI_ARG_ALU_START_INDEX_STRING, pAluStartIndexString, pArguments);
  44037e:	4622      	mov	r2, r4
  440380:	a916      	add	r1, sp, #88	; 0x58
  440382:	4877      	ldr	r0, [pc, #476]	; (440560 <launchAluInfoByPortIndex+0x28c>)
  440384:	47a8      	blx	r5
        if (strlen(pPortString) == 0) {
  440386:	f89d 3078 	ldrb.w	r3, [sp, #120]	; 0x78
  44038a:	2b00      	cmp	r3, #0
  44038c:	f000 808e 	beq.w	4404ac <launchAluInfoByPortIndex+0x1d8>
        } else if (strlen(pAluStartIndexString) == 0) {
  440390:	f89d 3058 	ldrb.w	r3, [sp, #88]	; 0x58
  440394:	2b00      	cmp	r3, #0
  440396:	f000 80a1 	beq.w	4404dc <launchAluInfoByPortIndex+0x208>
            portKey = getPortKeyFromPortArg(pPortString, LAN_OK);
  44039a:	2101      	movs	r1, #1
  44039c:	a81e      	add	r0, sp, #120	; 0x78
  44039e:	4b71      	ldr	r3, [pc, #452]	; (440564 <launchAluInfoByPortIndex+0x290>)
  4403a0:	4798      	blx	r3
  4403a2:	4606      	mov	r6, r0
            if (portKey != 0xFF) {
  4403a4:	28ff      	cmp	r0, #255	; 0xff
  4403a6:	f000 811f 	beq.w	4405e8 <launchAluInfoByPortIndex+0x314>
                portIndex = PORT_KEY_TO_PORT_INDEX_LOOKUP[portKey];
  4403aa:	4b6f      	ldr	r3, [pc, #444]	; (440568 <launchAluInfoByPortIndex+0x294>)
  4403ac:	f813 9000 	ldrb.w	r9, [r3, r0]
                aluIndex  = atoi(pAluStartIndexString);
  4403b0:	a816      	add	r0, sp, #88	; 0x58
  4403b2:	4b6e      	ldr	r3, [pc, #440]	; (44056c <launchAluInfoByPortIndex+0x298>)
  4403b4:	4798      	blx	r3
  4403b6:	4607      	mov	r7, r0
                if (portKey <= PRIMARY_CONTROLLER_MAX_KEY) {
  4403b8:	2e04      	cmp	r6, #4
  4403ba:	f200 80f9 	bhi.w	4405b0 <launchAluInfoByPortIndex+0x2dc>
                    if (aluIndex > PRIMARY_ALU_INDEX_MAX) {
  4403be:	f5b0 5f80 	cmp.w	r0, #4096	; 0x1000
  4403c2:	f080 80f9 	bcs.w	4405b8 <launchAluInfoByPortIndex+0x2e4>
                getAluMacInfoCb.stateMachineState      = ALU_MAC_INFO_STATE_LAUNCH;
  4403c6:	4d53      	ldr	r5, [pc, #332]	; (440514 <launchAluInfoByPortIndex+0x240>)
  4403c8:	2303      	movs	r3, #3
  4403ca:	602b      	str	r3, [r5, #0]
                getAluMacInfoCb.aluGetType             = ALU_GET_TYPE_ALU_MAC_BY_PORT_INDEX;
  4403cc:	2302      	movs	r3, #2
  4403ce:	606b      	str	r3, [r5, #4]
                getAluMacInfoCb.pUserCommand           = (char *)&LAUNCH_ALU_INFO_BY_PORT_INDEX_CMD;
  4403d0:	4b4e      	ldr	r3, [pc, #312]	; (44050c <launchAluInfoByPortIndex+0x238>)
  4403d2:	60ab      	str	r3, [r5, #8]
                getAluMacInfoCb.userPort               = atoi(pPortString);
  4403d4:	a81e      	add	r0, sp, #120	; 0x78
  4403d6:	4b65      	ldr	r3, [pc, #404]	; (44056c <launchAluInfoByPortIndex+0x298>)
  4403d8:	4798      	blx	r3
  4403da:	60e8      	str	r0, [r5, #12]
                getAluMacInfoCb.aluStartIndex          = aluIndex;
  4403dc:	612f      	str	r7, [r5, #16]
                getAluMacInfoCb.startReadTick          = g_ul_ms_ticks;
  4403de:	4b64      	ldr	r3, [pc, #400]	; (440570 <launchAluInfoByPortIndex+0x29c>)
  4403e0:	681b      	ldr	r3, [r3, #0]
  4403e2:	616b      	str	r3, [r5, #20]
                getAluMacInfoCb.lastReadTick           = 0;
  4403e4:	f04f 0800 	mov.w	r8, #0
  4403e8:	f8c5 8018 	str.w	r8, [r5, #24]
                getAluMacInfoCb.kszValidCount          = 0;
  4403ec:	f8a5 8024 	strh.w	r8, [r5, #36]	; 0x24
                getAluMacInfoCb.kszPortForward         = getKszPortForwardFromPortKey(portKey);
  4403f0:	4630      	mov	r0, r6
  4403f2:	4b60      	ldr	r3, [pc, #384]	; (440574 <launchAluInfoByPortIndex+0x2a0>)
  4403f4:	4798      	blx	r3
  4403f6:	f885 0026 	strb.w	r0, [r5, #38]	; 0x26
                getAluMacInfoCb.lastKszPortForwardRead = 0xFF;
  4403fa:	23ff      	movs	r3, #255	; 0xff
  4403fc:	f885 3027 	strb.w	r3, [r5, #39]	; 0x27
                getAluMacInfoCb.portAsKey              = portKey;
  440400:	61ee      	str	r6, [r5, #28]
                getAluMacInfoCb.portAsIndex            = portIndex;
  440402:	f8c5 9020 	str.w	r9, [r5, #32]
                getAluMacInfoCb.current_index          = aluIndex;
  440406:	632f      	str	r7, [r5, #48]	; 0x30
                memset(&getAluMacInfoCb.mac[0], 0, 6);
  440408:	f8c5 8034 	str.w	r8, [r5, #52]	; 0x34
  44040c:	f8a5 8038 	strh.w	r8, [r5, #56]	; 0x38
                if (portKey <= PRIMARY_CONTROLLER_MAX_KEY) {
  440410:	2e04      	cmp	r6, #4
  440412:	f200 8101 	bhi.w	440618 <launchAluInfoByPortIndex+0x344>
                    getAluMacInfoCb.controller        = PRIMARY_ETHERNET_CONTROLLER;
  440416:	2202      	movs	r2, #2
  440418:	62aa      	str	r2, [r5, #40]	; 0x28
                    getAluMacInfoCb.maxAluIndex       = PRIMARY_ALU_INDEX_MAX;
  44041a:	f640 72ff 	movw	r2, #4095	; 0xfff
  44041e:	62ea      	str	r2, [r5, #44]	; 0x2c
                printf("{%s:{%s:\"%s\",%s:\"%s\",%s:%u,%s:%s,%s:{%s:%s,%s:%s,%s:%lu,%s:%lu,%s:\"0x%02X\",%s:%lu,%s:%lu}}}\r\n",
  440420:	4b55      	ldr	r3, [pc, #340]	; (440578 <launchAluInfoByPortIndex+0x2a4>)
  440422:	9714      	str	r7, [sp, #80]	; 0x50
  440424:	4a55      	ldr	r2, [pc, #340]	; (44057c <launchAluInfoByPortIndex+0x2a8>)
  440426:	9213      	str	r2, [sp, #76]	; 0x4c
  440428:	4a3a      	ldr	r2, [pc, #232]	; (440514 <launchAluInfoByPortIndex+0x240>)
  44042a:	6ad2      	ldr	r2, [r2, #44]	; 0x2c
  44042c:	9212      	str	r2, [sp, #72]	; 0x48
  44042e:	4a54      	ldr	r2, [pc, #336]	; (440580 <launchAluInfoByPortIndex+0x2ac>)
  440430:	9211      	str	r2, [sp, #68]	; 0x44
  440432:	9010      	str	r0, [sp, #64]	; 0x40
  440434:	4a53      	ldr	r2, [pc, #332]	; (440584 <launchAluInfoByPortIndex+0x2b0>)
  440436:	920f      	str	r2, [sp, #60]	; 0x3c
  440438:	f8cd 9038 	str.w	r9, [sp, #56]	; 0x38
  44043c:	4a52      	ldr	r2, [pc, #328]	; (440588 <launchAluInfoByPortIndex+0x2b4>)
  44043e:	920d      	str	r2, [sp, #52]	; 0x34
  440440:	960c      	str	r6, [sp, #48]	; 0x30
  440442:	4a52      	ldr	r2, [pc, #328]	; (44058c <launchAluInfoByPortIndex+0x2b8>)
  440444:	920b      	str	r2, [sp, #44]	; 0x2c
  440446:	930a      	str	r3, [sp, #40]	; 0x28
  440448:	4b51      	ldr	r3, [pc, #324]	; (440590 <launchAluInfoByPortIndex+0x2bc>)
  44044a:	9309      	str	r3, [sp, #36]	; 0x24
  44044c:	4b51      	ldr	r3, [pc, #324]	; (440594 <launchAluInfoByPortIndex+0x2c0>)
  44044e:	9308      	str	r3, [sp, #32]
  440450:	4b51      	ldr	r3, [pc, #324]	; (440598 <launchAluInfoByPortIndex+0x2c4>)
  440452:	9307      	str	r3, [sp, #28]
  440454:	4b32      	ldr	r3, [pc, #200]	; (440520 <launchAluInfoByPortIndex+0x24c>)
  440456:	9306      	str	r3, [sp, #24]
  440458:	4b50      	ldr	r3, [pc, #320]	; (44059c <launchAluInfoByPortIndex+0x2c8>)
  44045a:	9305      	str	r3, [sp, #20]
  44045c:	4b32      	ldr	r3, [pc, #200]	; (440528 <launchAluInfoByPortIndex+0x254>)
  44045e:	9304      	str	r3, [sp, #16]
  440460:	2300      	movs	r3, #0
  440462:	9303      	str	r3, [sp, #12]
  440464:	4b31      	ldr	r3, [pc, #196]	; (44052c <launchAluInfoByPortIndex+0x258>)
  440466:	9302      	str	r3, [sp, #8]
  440468:	9401      	str	r4, [sp, #4]
  44046a:	4b31      	ldr	r3, [pc, #196]	; (440530 <launchAluInfoByPortIndex+0x25c>)
  44046c:	9300      	str	r3, [sp, #0]
  44046e:	4b27      	ldr	r3, [pc, #156]	; (44050c <launchAluInfoByPortIndex+0x238>)
  440470:	4a30      	ldr	r2, [pc, #192]	; (440534 <launchAluInfoByPortIndex+0x260>)
  440472:	4931      	ldr	r1, [pc, #196]	; (440538 <launchAluInfoByPortIndex+0x264>)
  440474:	484a      	ldr	r0, [pc, #296]	; (4405a0 <launchAluInfoByPortIndex+0x2cc>)
  440476:	4c32      	ldr	r4, [pc, #200]	; (440540 <launchAluInfoByPortIndex+0x26c>)
  440478:	47a0      	blx	r4
}
  44047a:	e750      	b.n	44031e <launchAluInfoByPortIndex+0x4a>
        printf("{%s:{%s:\"%s\",%s:\"%s\",%s:%u,%s:%s,%s:{%s:%s}}}\r\n",
  44047c:	4b49      	ldr	r3, [pc, #292]	; (4405a4 <launchAluInfoByPortIndex+0x2d0>)
  44047e:	9308      	str	r3, [sp, #32]
  440480:	4b26      	ldr	r3, [pc, #152]	; (44051c <launchAluInfoByPortIndex+0x248>)
  440482:	9307      	str	r3, [sp, #28]
  440484:	4b26      	ldr	r3, [pc, #152]	; (440520 <launchAluInfoByPortIndex+0x24c>)
  440486:	9306      	str	r3, [sp, #24]
  440488:	4b26      	ldr	r3, [pc, #152]	; (440524 <launchAluInfoByPortIndex+0x250>)
  44048a:	9305      	str	r3, [sp, #20]
  44048c:	4b26      	ldr	r3, [pc, #152]	; (440528 <launchAluInfoByPortIndex+0x254>)
  44048e:	9304      	str	r3, [sp, #16]
  440490:	2300      	movs	r3, #0
  440492:	9303      	str	r3, [sp, #12]
  440494:	4b25      	ldr	r3, [pc, #148]	; (44052c <launchAluInfoByPortIndex+0x258>)
  440496:	9302      	str	r3, [sp, #8]
  440498:	9401      	str	r4, [sp, #4]
  44049a:	4b25      	ldr	r3, [pc, #148]	; (440530 <launchAluInfoByPortIndex+0x25c>)
  44049c:	9300      	str	r3, [sp, #0]
  44049e:	4b1b      	ldr	r3, [pc, #108]	; (44050c <launchAluInfoByPortIndex+0x238>)
  4404a0:	4a24      	ldr	r2, [pc, #144]	; (440534 <launchAluInfoByPortIndex+0x260>)
  4404a2:	4925      	ldr	r1, [pc, #148]	; (440538 <launchAluInfoByPortIndex+0x264>)
  4404a4:	4825      	ldr	r0, [pc, #148]	; (44053c <launchAluInfoByPortIndex+0x268>)
  4404a6:	4c26      	ldr	r4, [pc, #152]	; (440540 <launchAluInfoByPortIndex+0x26c>)
  4404a8:	47a0      	blx	r4
  4404aa:	e738      	b.n	44031e <launchAluInfoByPortIndex+0x4a>
            printf("{%s:{%s:\"%s\",%s:\"%s\",%s:%u,%s:%s,%s:{%s:%s}}}\r\n",
  4404ac:	4b3e      	ldr	r3, [pc, #248]	; (4405a8 <launchAluInfoByPortIndex+0x2d4>)
  4404ae:	9308      	str	r3, [sp, #32]
  4404b0:	4b1a      	ldr	r3, [pc, #104]	; (44051c <launchAluInfoByPortIndex+0x248>)
  4404b2:	9307      	str	r3, [sp, #28]
  4404b4:	4b1a      	ldr	r3, [pc, #104]	; (440520 <launchAluInfoByPortIndex+0x24c>)
  4404b6:	9306      	str	r3, [sp, #24]
  4404b8:	4b1a      	ldr	r3, [pc, #104]	; (440524 <launchAluInfoByPortIndex+0x250>)
  4404ba:	9305      	str	r3, [sp, #20]
  4404bc:	4b1a      	ldr	r3, [pc, #104]	; (440528 <launchAluInfoByPortIndex+0x254>)
  4404be:	9304      	str	r3, [sp, #16]
  4404c0:	2300      	movs	r3, #0
  4404c2:	9303      	str	r3, [sp, #12]
  4404c4:	4b19      	ldr	r3, [pc, #100]	; (44052c <launchAluInfoByPortIndex+0x258>)
  4404c6:	9302      	str	r3, [sp, #8]
  4404c8:	9401      	str	r4, [sp, #4]
  4404ca:	4b19      	ldr	r3, [pc, #100]	; (440530 <launchAluInfoByPortIndex+0x25c>)
  4404cc:	9300      	str	r3, [sp, #0]
  4404ce:	4b0f      	ldr	r3, [pc, #60]	; (44050c <launchAluInfoByPortIndex+0x238>)
  4404d0:	4a18      	ldr	r2, [pc, #96]	; (440534 <launchAluInfoByPortIndex+0x260>)
  4404d2:	4919      	ldr	r1, [pc, #100]	; (440538 <launchAluInfoByPortIndex+0x264>)
  4404d4:	4819      	ldr	r0, [pc, #100]	; (44053c <launchAluInfoByPortIndex+0x268>)
  4404d6:	4c1a      	ldr	r4, [pc, #104]	; (440540 <launchAluInfoByPortIndex+0x26c>)
  4404d8:	47a0      	blx	r4
  4404da:	e720      	b.n	44031e <launchAluInfoByPortIndex+0x4a>
            printf("{%s:{%s:\"%s\",%s:\"%s\",%s:%u,%s:%s,%s:{%s:%s}}}\r\n",
  4404dc:	4b33      	ldr	r3, [pc, #204]	; (4405ac <launchAluInfoByPortIndex+0x2d8>)
  4404de:	9308      	str	r3, [sp, #32]
  4404e0:	4b0e      	ldr	r3, [pc, #56]	; (44051c <launchAluInfoByPortIndex+0x248>)
  4404e2:	9307      	str	r3, [sp, #28]
  4404e4:	4b0e      	ldr	r3, [pc, #56]	; (440520 <launchAluInfoByPortIndex+0x24c>)
  4404e6:	9306      	str	r3, [sp, #24]
  4404e8:	4b0e      	ldr	r3, [pc, #56]	; (440524 <launchAluInfoByPortIndex+0x250>)
  4404ea:	9305      	str	r3, [sp, #20]
  4404ec:	4b0e      	ldr	r3, [pc, #56]	; (440528 <launchAluInfoByPortIndex+0x254>)
  4404ee:	9304      	str	r3, [sp, #16]
  4404f0:	2300      	movs	r3, #0
  4404f2:	9303      	str	r3, [sp, #12]
  4404f4:	4b0d      	ldr	r3, [pc, #52]	; (44052c <launchAluInfoByPortIndex+0x258>)
  4404f6:	9302      	str	r3, [sp, #8]
  4404f8:	9401      	str	r4, [sp, #4]
  4404fa:	4b0d      	ldr	r3, [pc, #52]	; (440530 <launchAluInfoByPortIndex+0x25c>)
  4404fc:	9300      	str	r3, [sp, #0]
  4404fe:	4b03      	ldr	r3, [pc, #12]	; (44050c <launchAluInfoByPortIndex+0x238>)
  440500:	4a0c      	ldr	r2, [pc, #48]	; (440534 <launchAluInfoByPortIndex+0x260>)
  440502:	490d      	ldr	r1, [pc, #52]	; (440538 <launchAluInfoByPortIndex+0x264>)
  440504:	480d      	ldr	r0, [pc, #52]	; (44053c <launchAluInfoByPortIndex+0x268>)
  440506:	4c0e      	ldr	r4, [pc, #56]	; (440540 <launchAluInfoByPortIndex+0x26c>)
  440508:	47a0      	blx	r4
  44050a:	e708      	b.n	44031e <launchAluInfoByPortIndex+0x4a>
  44050c:	00459a68 	.word	0x00459a68
  440510:	004525c1 	.word	0x004525c1
  440514:	20400b44 	.word	0x20400b44
  440518:	00458800 	.word	0x00458800
  44051c:	0045a2ac 	.word	0x0045a2ac
  440520:	0045a3d4 	.word	0x0045a3d4
  440524:	00459488 	.word	0x00459488
  440528:	0045a3e0 	.word	0x0045a3e0
  44052c:	00458d08 	.word	0x00458d08
  440530:	0045889c 	.word	0x0045889c
  440534:	00458d24 	.word	0x00458d24
  440538:	00458cf8 	.word	0x00458cf8
  44053c:	004580f8 	.word	0x004580f8
  440540:	0045206d 	.word	0x0045206d
  440544:	004597e8 	.word	0x004597e8
  440548:	00459be0 	.word	0x00459be0
  44054c:	00457fd0 	.word	0x00457fd0
  440550:	0044288d 	.word	0x0044288d
  440554:	00452229 	.word	0x00452229
  440558:	00458b34 	.word	0x00458b34
  44055c:	0044a045 	.word	0x0044a045
  440560:	00458a2c 	.word	0x00458a2c
  440564:	0044b2b9 	.word	0x0044b2b9
  440568:	0045c80c 	.word	0x0045c80c
  44056c:	00452015 	.word	0x00452015
  440570:	20402a64 	.word	0x20402a64
  440574:	0044028d 	.word	0x0044028d
  440578:	0045a06c 	.word	0x0045a06c
  44057c:	00458e44 	.word	0x00458e44
  440580:	00459b04 	.word	0x00459b04
  440584:	004599b0 	.word	0x004599b0
  440588:	00459f70 	.word	0x00459f70
  44058c:	00459f80 	.word	0x00459f80
  440590:	00458da4 	.word	0x00458da4
  440594:	00459a5c 	.word	0x00459a5c
  440598:	0045a0a8 	.word	0x0045a0a8
  44059c:	0045a8c0 	.word	0x0045a8c0
  4405a0:	00458128 	.word	0x00458128
  4405a4:	00459ae0 	.word	0x00459ae0
  4405a8:	00459b7c 	.word	0x00459b7c
  4405ac:	00459b48 	.word	0x00459b48
                    if (aluIndex > SECONDARY_ALU_INDEX_MAX) {
  4405b0:	f5b0 6f80 	cmp.w	r0, #1024	; 0x400
  4405b4:	f4ff af07 	bcc.w	4403c6 <launchAluInfoByPortIndex+0xf2>
                    printf("{%s:{%s:\"%s\",%s:\"%s\",%s:%u,%s:%s,%s:{%s:%s}}}\r\n",
  4405b8:	4b20      	ldr	r3, [pc, #128]	; (44063c <launchAluInfoByPortIndex+0x368>)
  4405ba:	9308      	str	r3, [sp, #32]
  4405bc:	4b20      	ldr	r3, [pc, #128]	; (440640 <launchAluInfoByPortIndex+0x36c>)
  4405be:	9307      	str	r3, [sp, #28]
  4405c0:	4b20      	ldr	r3, [pc, #128]	; (440644 <launchAluInfoByPortIndex+0x370>)
  4405c2:	9306      	str	r3, [sp, #24]
  4405c4:	4b20      	ldr	r3, [pc, #128]	; (440648 <launchAluInfoByPortIndex+0x374>)
  4405c6:	9305      	str	r3, [sp, #20]
  4405c8:	4b20      	ldr	r3, [pc, #128]	; (44064c <launchAluInfoByPortIndex+0x378>)
  4405ca:	9304      	str	r3, [sp, #16]
  4405cc:	2300      	movs	r3, #0
  4405ce:	9303      	str	r3, [sp, #12]
  4405d0:	4b1f      	ldr	r3, [pc, #124]	; (440650 <launchAluInfoByPortIndex+0x37c>)
  4405d2:	9302      	str	r3, [sp, #8]
  4405d4:	9401      	str	r4, [sp, #4]
  4405d6:	4b1f      	ldr	r3, [pc, #124]	; (440654 <launchAluInfoByPortIndex+0x380>)
  4405d8:	9300      	str	r3, [sp, #0]
  4405da:	4b1f      	ldr	r3, [pc, #124]	; (440658 <launchAluInfoByPortIndex+0x384>)
  4405dc:	4a1f      	ldr	r2, [pc, #124]	; (44065c <launchAluInfoByPortIndex+0x388>)
  4405de:	4920      	ldr	r1, [pc, #128]	; (440660 <launchAluInfoByPortIndex+0x38c>)
  4405e0:	4820      	ldr	r0, [pc, #128]	; (440664 <launchAluInfoByPortIndex+0x390>)
  4405e2:	4c21      	ldr	r4, [pc, #132]	; (440668 <launchAluInfoByPortIndex+0x394>)
  4405e4:	47a0      	blx	r4
  4405e6:	e69a      	b.n	44031e <launchAluInfoByPortIndex+0x4a>
                printf("{%s:{%s:\"%s\",%s:\"%s\",%s:%u,%s:%s,%s:{%s:%s}}}\r\n",
  4405e8:	4b20      	ldr	r3, [pc, #128]	; (44066c <launchAluInfoByPortIndex+0x398>)
  4405ea:	9308      	str	r3, [sp, #32]
  4405ec:	4b14      	ldr	r3, [pc, #80]	; (440640 <launchAluInfoByPortIndex+0x36c>)
  4405ee:	9307      	str	r3, [sp, #28]
  4405f0:	4b14      	ldr	r3, [pc, #80]	; (440644 <launchAluInfoByPortIndex+0x370>)
  4405f2:	9306      	str	r3, [sp, #24]
  4405f4:	4b14      	ldr	r3, [pc, #80]	; (440648 <launchAluInfoByPortIndex+0x374>)
  4405f6:	9305      	str	r3, [sp, #20]
  4405f8:	4b14      	ldr	r3, [pc, #80]	; (44064c <launchAluInfoByPortIndex+0x378>)
  4405fa:	9304      	str	r3, [sp, #16]
  4405fc:	2300      	movs	r3, #0
  4405fe:	9303      	str	r3, [sp, #12]
  440600:	4b13      	ldr	r3, [pc, #76]	; (440650 <launchAluInfoByPortIndex+0x37c>)
  440602:	9302      	str	r3, [sp, #8]
  440604:	9401      	str	r4, [sp, #4]
  440606:	4b13      	ldr	r3, [pc, #76]	; (440654 <launchAluInfoByPortIndex+0x380>)
  440608:	9300      	str	r3, [sp, #0]
  44060a:	4b13      	ldr	r3, [pc, #76]	; (440658 <launchAluInfoByPortIndex+0x384>)
  44060c:	4a13      	ldr	r2, [pc, #76]	; (44065c <launchAluInfoByPortIndex+0x388>)
  44060e:	4914      	ldr	r1, [pc, #80]	; (440660 <launchAluInfoByPortIndex+0x38c>)
  440610:	4814      	ldr	r0, [pc, #80]	; (440664 <launchAluInfoByPortIndex+0x390>)
  440612:	4c15      	ldr	r4, [pc, #84]	; (440668 <launchAluInfoByPortIndex+0x394>)
  440614:	47a0      	blx	r4
  440616:	e682      	b.n	44031e <launchAluInfoByPortIndex+0x4a>
                } else if (portKey <= SECONDARY_CONTROLLER_MAX_KEY) {
  440618:	2e08      	cmp	r6, #8
  44061a:	d807      	bhi.n	44062c <launchAluInfoByPortIndex+0x358>
                    getAluMacInfoCb.controller        = SECONDARY_ETHERNET_CONTROLLER;
  44061c:	4b14      	ldr	r3, [pc, #80]	; (440670 <launchAluInfoByPortIndex+0x39c>)
  44061e:	2203      	movs	r2, #3
  440620:	629a      	str	r2, [r3, #40]	; 0x28
                    getAluMacInfoCb.maxAluIndex       = SECONDARY_ALU_INDEX_MAX;
  440622:	f240 32ff 	movw	r2, #1023	; 0x3ff
  440626:	62da      	str	r2, [r3, #44]	; 0x2c
                printf("{%s:{%s:\"%s\",%s:\"%s\",%s:%u,%s:%s,%s:{%s:%s,%s:%s,%s:%lu,%s:%lu,%s:\"0x%02X\",%s:%lu,%s:%lu}}}\r\n",
  440628:	4b12      	ldr	r3, [pc, #72]	; (440674 <launchAluInfoByPortIndex+0x3a0>)
  44062a:	e6fa      	b.n	440422 <launchAluInfoByPortIndex+0x14e>
                                                     CONTROLLER_STRING,        (getAluMacInfoCb.controller == PRIMARY_ETHERNET_CONTROLLER ? PRIMARY_STRING : RUNNING_STRING),
  44062c:	4b10      	ldr	r3, [pc, #64]	; (440670 <launchAluInfoByPortIndex+0x39c>)
                printf("{%s:{%s:\"%s\",%s:\"%s\",%s:%u,%s:%s,%s:{%s:%s,%s:%s,%s:%lu,%s:%lu,%s:\"0x%02X\",%s:%lu,%s:%lu}}}\r\n",
  44062e:	6a99      	ldr	r1, [r3, #40]	; 0x28
  440630:	4a10      	ldr	r2, [pc, #64]	; (440674 <launchAluInfoByPortIndex+0x3a0>)
  440632:	4b11      	ldr	r3, [pc, #68]	; (440678 <launchAluInfoByPortIndex+0x3a4>)
  440634:	2902      	cmp	r1, #2
  440636:	bf18      	it	ne
  440638:	4613      	movne	r3, r2
  44063a:	e6f2      	b.n	440422 <launchAluInfoByPortIndex+0x14e>
  44063c:	004587d0 	.word	0x004587d0
  440640:	0045a2ac 	.word	0x0045a2ac
  440644:	0045a3d4 	.word	0x0045a3d4
  440648:	00459488 	.word	0x00459488
  44064c:	0045a3e0 	.word	0x0045a3e0
  440650:	00458d08 	.word	0x00458d08
  440654:	0045889c 	.word	0x0045889c
  440658:	00459a68 	.word	0x00459a68
  44065c:	00458d24 	.word	0x00458d24
  440660:	00458cf8 	.word	0x00458cf8
  440664:	004580f8 	.word	0x004580f8
  440668:	0045206d 	.word	0x0045206d
  44066c:	0045987c 	.word	0x0045987c
  440670:	20400b44 	.word	0x20400b44
  440674:	0045a47c 	.word	0x0045a47c
  440678:	0045a06c 	.word	0x0045a06c

0044067c <getAluInfoByPortIndexResult>:
//                     "KSZ VALID COUNT":0,
//                     "KSZ PORT FORWARD":0,":0,
//                     "MAC":"01:02:03:04:05:06"}}}
//
void getAluInfoByPortIndexResult(void)
{
  44067c:	b530      	push	{r4, r5, lr}
  44067e:	b097      	sub	sp, #92	; 0x5c

    if (getAluMacInfoCb.stateMachineState == ALU_MAC_INFO_STATE_DEAD_QUIET) {
  440680:	4b48      	ldr	r3, [pc, #288]	; (4407a4 <getAluInfoByPortIndexResult+0x128>)
  440682:	681a      	ldr	r2, [r3, #0]
  440684:	2a01      	cmp	r2, #1
  440686:	d06f      	beq.n	440768 <getAluInfoByPortIndexResult+0xec>
                                             INFO_STRING,    NO_REQUEST_MADE_STRING);
    } else {
        // The state machine is either in the idle state (indicating it has completed the processing of a
        // previous request), or is actively running. Return whatever is currently in the control block. 
        // Break up the somewhat large response into several print statements.
        printf("{%s:{%s:\"%s\",%s:%s,%s:%u,%s:%s,%s:{%s:%s,%s:\"%s\",%s:%lu,%s:%lu,%s:%lu,%s:%lu,%s:%lu,",
  440688:	4947      	ldr	r1, [pc, #284]	; (4407a8 <getAluInfoByPortIndexResult+0x12c>)
  44068a:	4b48      	ldr	r3, [pc, #288]	; (4407ac <getAluInfoByPortIndexResult+0x130>)
  44068c:	2a02      	cmp	r2, #2
  44068e:	bf18      	it	ne
  440690:	460b      	movne	r3, r1
  440692:	4c44      	ldr	r4, [pc, #272]	; (4407a4 <getAluInfoByPortIndexResult+0x128>)
  440694:	6962      	ldr	r2, [r4, #20]
  440696:	69a1      	ldr	r1, [r4, #24]
  440698:	1a88      	subs	r0, r1, r2
  44069a:	9014      	str	r0, [sp, #80]	; 0x50
  44069c:	4844      	ldr	r0, [pc, #272]	; (4407b0 <getAluInfoByPortIndexResult+0x134>)
  44069e:	9013      	str	r0, [sp, #76]	; 0x4c
  4406a0:	9112      	str	r1, [sp, #72]	; 0x48
  4406a2:	4944      	ldr	r1, [pc, #272]	; (4407b4 <getAluInfoByPortIndexResult+0x138>)
  4406a4:	9111      	str	r1, [sp, #68]	; 0x44
  4406a6:	9210      	str	r2, [sp, #64]	; 0x40
  4406a8:	4a43      	ldr	r2, [pc, #268]	; (4407b8 <getAluInfoByPortIndexResult+0x13c>)
  4406aa:	920f      	str	r2, [sp, #60]	; 0x3c
  4406ac:	6922      	ldr	r2, [r4, #16]
  4406ae:	920e      	str	r2, [sp, #56]	; 0x38
  4406b0:	4a42      	ldr	r2, [pc, #264]	; (4407bc <getAluInfoByPortIndexResult+0x140>)
  4406b2:	920d      	str	r2, [sp, #52]	; 0x34
  4406b4:	68e2      	ldr	r2, [r4, #12]
  4406b6:	920c      	str	r2, [sp, #48]	; 0x30
  4406b8:	4a41      	ldr	r2, [pc, #260]	; (4407c0 <getAluInfoByPortIndexResult+0x144>)
  4406ba:	920b      	str	r2, [sp, #44]	; 0x2c
  4406bc:	68a2      	ldr	r2, [r4, #8]
  4406be:	920a      	str	r2, [sp, #40]	; 0x28
  4406c0:	4a40      	ldr	r2, [pc, #256]	; (4407c4 <getAluInfoByPortIndexResult+0x148>)
  4406c2:	9209      	str	r2, [sp, #36]	; 0x24
  4406c4:	9308      	str	r3, [sp, #32]
  4406c6:	4b40      	ldr	r3, [pc, #256]	; (4407c8 <getAluInfoByPortIndexResult+0x14c>)
  4406c8:	9307      	str	r3, [sp, #28]
  4406ca:	4b40      	ldr	r3, [pc, #256]	; (4407cc <getAluInfoByPortIndexResult+0x150>)
  4406cc:	9306      	str	r3, [sp, #24]
  4406ce:	4b40      	ldr	r3, [pc, #256]	; (4407d0 <getAluInfoByPortIndexResult+0x154>)
  4406d0:	9305      	str	r3, [sp, #20]
  4406d2:	4b40      	ldr	r3, [pc, #256]	; (4407d4 <getAluInfoByPortIndexResult+0x158>)
  4406d4:	9304      	str	r3, [sp, #16]
  4406d6:	2300      	movs	r3, #0
  4406d8:	9303      	str	r3, [sp, #12]
  4406da:	4b3f      	ldr	r3, [pc, #252]	; (4407d8 <getAluInfoByPortIndexResult+0x15c>)
  4406dc:	9302      	str	r3, [sp, #8]
  4406de:	4b3f      	ldr	r3, [pc, #252]	; (4407dc <getAluInfoByPortIndexResult+0x160>)
  4406e0:	9301      	str	r3, [sp, #4]
  4406e2:	4b3f      	ldr	r3, [pc, #252]	; (4407e0 <getAluInfoByPortIndexResult+0x164>)
  4406e4:	9300      	str	r3, [sp, #0]
  4406e6:	4b3f      	ldr	r3, [pc, #252]	; (4407e4 <getAluInfoByPortIndexResult+0x168>)
  4406e8:	4a3f      	ldr	r2, [pc, #252]	; (4407e8 <getAluInfoByPortIndexResult+0x16c>)
  4406ea:	4940      	ldr	r1, [pc, #256]	; (4407ec <getAluInfoByPortIndexResult+0x170>)
  4406ec:	4840      	ldr	r0, [pc, #256]	; (4407f0 <getAluInfoByPortIndexResult+0x174>)
  4406ee:	4d41      	ldr	r5, [pc, #260]	; (4407f4 <getAluInfoByPortIndexResult+0x178>)
  4406f0:	47a8      	blx	r5
                                             ALU_START_INDEX_STRING, getAluMacInfoCb.aluStartIndex,
                                             START_READ_TICK_STRING, getAluMacInfoCb.startReadTick,
                                             LAST_READ_TICK_STRING,  getAluMacInfoCb.lastReadTick,
                                             ELAPSED_TICK_STRING,    (getAluMacInfoCb.lastReadTick - getAluMacInfoCb.startReadTick));

        printf("%s:%s,%s:%lu,%s:%lu,%s:%lu,%s:%lu,%s:\"0x%02X\",%s:\"0x%02X\",%s:%u,",
  4406f2:	6aa0      	ldr	r0, [r4, #40]	; 0x28
  4406f4:	8ca3      	ldrh	r3, [r4, #36]	; 0x24
  4406f6:	930c      	str	r3, [sp, #48]	; 0x30
  4406f8:	4b3f      	ldr	r3, [pc, #252]	; (4407f8 <getAluInfoByPortIndexResult+0x17c>)
  4406fa:	930b      	str	r3, [sp, #44]	; 0x2c
  4406fc:	f894 3027 	ldrb.w	r3, [r4, #39]	; 0x27
  440700:	930a      	str	r3, [sp, #40]	; 0x28
  440702:	4b3e      	ldr	r3, [pc, #248]	; (4407fc <getAluInfoByPortIndexResult+0x180>)
  440704:	9309      	str	r3, [sp, #36]	; 0x24
  440706:	f894 3026 	ldrb.w	r3, [r4, #38]	; 0x26
  44070a:	9308      	str	r3, [sp, #32]
  44070c:	4b3c      	ldr	r3, [pc, #240]	; (440800 <getAluInfoByPortIndexResult+0x184>)
  44070e:	9307      	str	r3, [sp, #28]
  440710:	6a23      	ldr	r3, [r4, #32]
  440712:	9306      	str	r3, [sp, #24]
  440714:	4b3b      	ldr	r3, [pc, #236]	; (440804 <getAluInfoByPortIndexResult+0x188>)
  440716:	9305      	str	r3, [sp, #20]
  440718:	69e3      	ldr	r3, [r4, #28]
  44071a:	9304      	str	r3, [sp, #16]
  44071c:	4b3a      	ldr	r3, [pc, #232]	; (440808 <getAluInfoByPortIndexResult+0x18c>)
  44071e:	9303      	str	r3, [sp, #12]
  440720:	6b23      	ldr	r3, [r4, #48]	; 0x30
  440722:	9302      	str	r3, [sp, #8]
  440724:	4b39      	ldr	r3, [pc, #228]	; (44080c <getAluInfoByPortIndexResult+0x190>)
  440726:	9301      	str	r3, [sp, #4]
  440728:	6ae3      	ldr	r3, [r4, #44]	; 0x2c
  44072a:	9300      	str	r3, [sp, #0]
  44072c:	4b38      	ldr	r3, [pc, #224]	; (440810 <getAluInfoByPortIndexResult+0x194>)
  44072e:	4939      	ldr	r1, [pc, #228]	; (440814 <getAluInfoByPortIndexResult+0x198>)
  440730:	4a39      	ldr	r2, [pc, #228]	; (440818 <getAluInfoByPortIndexResult+0x19c>)
  440732:	2802      	cmp	r0, #2
  440734:	bf18      	it	ne
  440736:	460a      	movne	r2, r1
  440738:	4938      	ldr	r1, [pc, #224]	; (44081c <getAluInfoByPortIndexResult+0x1a0>)
  44073a:	4839      	ldr	r0, [pc, #228]	; (440820 <getAluInfoByPortIndexResult+0x1a4>)
  44073c:	47a8      	blx	r5
               PORT_INDEX_STRING,            getAluMacInfoCb.portAsIndex,
               KSZ_PORT_FORWARD_STRING,      getAluMacInfoCb.kszPortForward,
               LAST_KSZ_PORT_FORWARD_STRING, getAluMacInfoCb.lastKszPortForwardRead,
               KSZ_VALID_COUNT_STRING,       getAluMacInfoCb.kszValidCount);

        printf("%s:\"%02X:%02X:%02X:%02X:%02X:%02X\"}}}\r\n",
  44073e:	f894 3035 	ldrb.w	r3, [r4, #53]	; 0x35
  440742:	f894 2034 	ldrb.w	r2, [r4, #52]	; 0x34
  440746:	f894 1039 	ldrb.w	r1, [r4, #57]	; 0x39
  44074a:	9103      	str	r1, [sp, #12]
  44074c:	f894 1038 	ldrb.w	r1, [r4, #56]	; 0x38
  440750:	9102      	str	r1, [sp, #8]
  440752:	f894 1037 	ldrb.w	r1, [r4, #55]	; 0x37
  440756:	9101      	str	r1, [sp, #4]
  440758:	f894 1036 	ldrb.w	r1, [r4, #54]	; 0x36
  44075c:	9100      	str	r1, [sp, #0]
  44075e:	4931      	ldr	r1, [pc, #196]	; (440824 <getAluInfoByPortIndexResult+0x1a8>)
  440760:	4831      	ldr	r0, [pc, #196]	; (440828 <getAluInfoByPortIndexResult+0x1ac>)
  440762:	47a8      	blx	r5
                MAC_STRING, getAluMacInfoCb.mac[0], getAluMacInfoCb.mac[1], getAluMacInfoCb.mac[2],
                            getAluMacInfoCb.mac[3], getAluMacInfoCb.mac[4], getAluMacInfoCb.mac[5]);
    }    
}
  440764:	b017      	add	sp, #92	; 0x5c
  440766:	bd30      	pop	{r4, r5, pc}
        printf("{%s:{%s:\"%s\",%s:%s,%s:%u,%s:%s,%s:{%s:%s,%s:%s}}}\r\n",
  440768:	4b30      	ldr	r3, [pc, #192]	; (44082c <getAluInfoByPortIndexResult+0x1b0>)
  44076a:	930a      	str	r3, [sp, #40]	; 0x28
  44076c:	4b30      	ldr	r3, [pc, #192]	; (440830 <getAluInfoByPortIndexResult+0x1b4>)
  44076e:	9309      	str	r3, [sp, #36]	; 0x24
  440770:	4b30      	ldr	r3, [pc, #192]	; (440834 <getAluInfoByPortIndexResult+0x1b8>)
  440772:	9308      	str	r3, [sp, #32]
  440774:	4b14      	ldr	r3, [pc, #80]	; (4407c8 <getAluInfoByPortIndexResult+0x14c>)
  440776:	9307      	str	r3, [sp, #28]
  440778:	4b14      	ldr	r3, [pc, #80]	; (4407cc <getAluInfoByPortIndexResult+0x150>)
  44077a:	9306      	str	r3, [sp, #24]
  44077c:	4b14      	ldr	r3, [pc, #80]	; (4407d0 <getAluInfoByPortIndexResult+0x154>)
  44077e:	9305      	str	r3, [sp, #20]
  440780:	4b14      	ldr	r3, [pc, #80]	; (4407d4 <getAluInfoByPortIndexResult+0x158>)
  440782:	9304      	str	r3, [sp, #16]
  440784:	2300      	movs	r3, #0
  440786:	9303      	str	r3, [sp, #12]
  440788:	4b13      	ldr	r3, [pc, #76]	; (4407d8 <getAluInfoByPortIndexResult+0x15c>)
  44078a:	9302      	str	r3, [sp, #8]
  44078c:	4b13      	ldr	r3, [pc, #76]	; (4407dc <getAluInfoByPortIndexResult+0x160>)
  44078e:	9301      	str	r3, [sp, #4]
  440790:	4b13      	ldr	r3, [pc, #76]	; (4407e0 <getAluInfoByPortIndexResult+0x164>)
  440792:	9300      	str	r3, [sp, #0]
  440794:	4b13      	ldr	r3, [pc, #76]	; (4407e4 <getAluInfoByPortIndexResult+0x168>)
  440796:	4a14      	ldr	r2, [pc, #80]	; (4407e8 <getAluInfoByPortIndexResult+0x16c>)
  440798:	4914      	ldr	r1, [pc, #80]	; (4407ec <getAluInfoByPortIndexResult+0x170>)
  44079a:	4827      	ldr	r0, [pc, #156]	; (440838 <getAluInfoByPortIndexResult+0x1bc>)
  44079c:	4c15      	ldr	r4, [pc, #84]	; (4407f4 <getAluInfoByPortIndexResult+0x178>)
  44079e:	47a0      	blx	r4
  4407a0:	e7e0      	b.n	440764 <getAluInfoByPortIndexResult+0xe8>
  4407a2:	bf00      	nop
  4407a4:	20400b44 	.word	0x20400b44
  4407a8:	0045a47c 	.word	0x0045a47c
  4407ac:	0045979c 	.word	0x0045979c
  4407b0:	004590e4 	.word	0x004590e4
  4407b4:	00459a4c 	.word	0x00459a4c
  4407b8:	0045a7b4 	.word	0x0045a7b4
  4407bc:	00458814 	.word	0x00458814
  4407c0:	0045aa7c 	.word	0x0045aa7c
  4407c4:	0045aa6c 	.word	0x0045aa6c
  4407c8:	0045a0a8 	.word	0x0045a0a8
  4407cc:	0045a3d4 	.word	0x0045a3d4
  4407d0:	0045a8c0 	.word	0x0045a8c0
  4407d4:	0045a3e0 	.word	0x0045a3e0
  4407d8:	00458d08 	.word	0x00458d08
  4407dc:	00459b98 	.word	0x00459b98
  4407e0:	0045889c 	.word	0x0045889c
  4407e4:	004595f8 	.word	0x004595f8
  4407e8:	00458d24 	.word	0x00458d24
  4407ec:	00458cf8 	.word	0x00458cf8
  4407f0:	00458034 	.word	0x00458034
  4407f4:	0045206d 	.word	0x0045206d
  4407f8:	004599d0 	.word	0x004599d0
  4407fc:	00459a34 	.word	0x00459a34
  440800:	004599b0 	.word	0x004599b0
  440804:	00459f70 	.word	0x00459f70
  440808:	00459f80 	.word	0x00459f80
  44080c:	00458e44 	.word	0x00458e44
  440810:	00459b04 	.word	0x00459b04
  440814:	0045a5b4 	.word	0x0045a5b4
  440818:	0045a06c 	.word	0x0045a06c
  44081c:	00458da4 	.word	0x00458da4
  440820:	0045808c 	.word	0x0045808c
  440824:	00459afc 	.word	0x00459afc
  440828:	004580d0 	.word	0x004580d0
  44082c:	00459bcc 	.word	0x00459bcc
  440830:	004597b0 	.word	0x004597b0
  440834:	00458ee4 	.word	0x00458ee4
  440838:	00458000 	.word	0x00458000

0044083c <isAluMacInfoSmIdle>:
//
//
//
BOOL isAluMacInfoSmIdle (void)
{
    if      (getAluMacInfoCb.stateMachineState == ALU_MAC_INFO_STATE_IDLE)       { return TRUE;  }
  44083c:	4b03      	ldr	r3, [pc, #12]	; (44084c <isAluMacInfoSmIdle+0x10>)
    else if (getAluMacInfoCb.stateMachineState == ALU_MAC_INFO_STATE_DEAD_QUIET) { return TRUE;  }
  44083e:	6818      	ldr	r0, [r3, #0]
  440840:	3801      	subs	r0, #1
    else                                                                         { return FALSE; }
}
  440842:	2801      	cmp	r0, #1
  440844:	bf8c      	ite	hi
  440846:	2000      	movhi	r0, #0
  440848:	2001      	movls	r0, #1
  44084a:	4770      	bx	lr
  44084c:	20400b44 	.word	0x20400b44

00440850 <checkAluMacInfoSm>:
// - so make sure the watchdog is taken case of.
//
//
//
void checkAluMacInfoSm(void)
{
  440850:	b5f0      	push	{r4, r5, r6, r7, lr}
  440852:	b085      	sub	sp, #20
    U32 iggy;
    U8  pData[9];

    switch (getAluMacInfoCb.stateMachineState) {
  440854:	4b3f      	ldr	r3, [pc, #252]	; (440954 <checkAluMacInfoSm+0x104>)
  440856:	681b      	ldr	r3, [r3, #0]
  440858:	2b04      	cmp	r3, #4
  44085a:	d00e      	beq.n	44087a <checkAluMacInfoSm+0x2a>
  44085c:	2b05      	cmp	r3, #5
  44085e:	d03e      	beq.n	4408de <checkAluMacInfoSm+0x8e>
  440860:	2b03      	cmp	r3, #3
  440862:	d001      	beq.n	440868 <checkAluMacInfoSm+0x18>

        default:
            // Coding error. Increment a counter.
            break;
    }
}
  440864:	b005      	add	sp, #20
  440866:	bdf0      	pop	{r4, r5, r6, r7, pc}
            if (getAluMacInfoCb.controller == PRIMARY_ETHERNET_CONTROLLER) { getAluMacInfoCb.stateMachineState = ALU_MAC_INFO_STATE_PRI_READ; }
  440868:	4b3a      	ldr	r3, [pc, #232]	; (440954 <checkAluMacInfoSm+0x104>)
  44086a:	6a9b      	ldr	r3, [r3, #40]	; 0x28
  44086c:	2b02      	cmp	r3, #2
  44086e:	bf0c      	ite	eq
  440870:	2204      	moveq	r2, #4
            else                                                           { getAluMacInfoCb.stateMachineState = ALU_MAC_INFO_STATE_SEC_READ; }
  440872:	2205      	movne	r2, #5
  440874:	4b37      	ldr	r3, [pc, #220]	; (440954 <checkAluMacInfoSm+0x104>)
  440876:	601a      	str	r2, [r3, #0]
  440878:	e7f4      	b.n	440864 <checkAluMacInfoSm+0x14>
    switch (getAluMacInfoCb.stateMachineState) {
  44087a:	250a      	movs	r5, #10
                getAluMacInfoCb.lastReadTick = g_ul_ms_ticks;
  44087c:	4c35      	ldr	r4, [pc, #212]	; (440954 <checkAluMacInfoSm+0x104>)
  44087e:	4f36      	ldr	r7, [pc, #216]	; (440958 <checkAluMacInfoSm+0x108>)
                if (isReadAluPrimaryControlByIndex(getAluMacInfoCb.current_index, &getAluMacInfoCb.kszValidCount)) {
  440880:	f104 0624 	add.w	r6, r4, #36	; 0x24
                getAluMacInfoCb.lastReadTick = g_ul_ms_ticks;
  440884:	683b      	ldr	r3, [r7, #0]
  440886:	61a3      	str	r3, [r4, #24]
                if (isReadAluPrimaryControlByIndex(getAluMacInfoCb.current_index, &getAluMacInfoCb.kszValidCount)) {
  440888:	4631      	mov	r1, r6
  44088a:	6b20      	ldr	r0, [r4, #48]	; 0x30
  44088c:	4b33      	ldr	r3, [pc, #204]	; (44095c <checkAluMacInfoSm+0x10c>)
  44088e:	4798      	blx	r3
  440890:	b1f0      	cbz	r0, 4408d0 <checkAluMacInfoSm+0x80>
                    getAluMacInfoCb.lastKszPortForwardRead = readAluPrimaryPortForwardRegister();
  440892:	4b33      	ldr	r3, [pc, #204]	; (440960 <checkAluMacInfoSm+0x110>)
  440894:	4798      	blx	r3
  440896:	f884 0027 	strb.w	r0, [r4, #39]	; 0x27
                    if (getAluMacInfoCb.lastKszPortForwardRead == getAluMacInfoCb.kszPortForward) {
  44089a:	f894 3026 	ldrb.w	r3, [r4, #38]	; 0x26
  44089e:	4283      	cmp	r3, r0
  4408a0:	d00a      	beq.n	4408b8 <checkAluMacInfoSm+0x68>
                        if (getAluMacInfoCb.current_index < getAluMacInfoCb.maxAluIndex) {
  4408a2:	6b23      	ldr	r3, [r4, #48]	; 0x30
  4408a4:	6ae2      	ldr	r2, [r4, #44]	; 0x2c
  4408a6:	4293      	cmp	r3, r2
  4408a8:	d20e      	bcs.n	4408c8 <checkAluMacInfoSm+0x78>
                            getAluMacInfoCb.current_index++;
  4408aa:	3301      	adds	r3, #1
  4408ac:	6323      	str	r3, [r4, #48]	; 0x30
                pokeWatchdog();
  4408ae:	4b2d      	ldr	r3, [pc, #180]	; (440964 <checkAluMacInfoSm+0x114>)
  4408b0:	4798      	blx	r3
            for (iggy = 0; iggy < NUMBER_READ_ROWS_PER_CYCLE; iggy++) {
  4408b2:	3d01      	subs	r5, #1
  4408b4:	d1e6      	bne.n	440884 <checkAluMacInfoSm+0x34>
  4408b6:	e7d5      	b.n	440864 <checkAluMacInfoSm+0x14>
                        readAluPrimaryDataRegisters(&getAluMacInfoCb.mac[0]);
  4408b8:	4c26      	ldr	r4, [pc, #152]	; (440954 <checkAluMacInfoSm+0x104>)
  4408ba:	f104 0034 	add.w	r0, r4, #52	; 0x34
  4408be:	4b2a      	ldr	r3, [pc, #168]	; (440968 <checkAluMacInfoSm+0x118>)
  4408c0:	4798      	blx	r3
                        getAluMacInfoCb.stateMachineState = ALU_MAC_INFO_STATE_IDLE;
  4408c2:	2302      	movs	r3, #2
  4408c4:	6023      	str	r3, [r4, #0]
                        break; // out of for loop
  4408c6:	e7cd      	b.n	440864 <checkAluMacInfoSm+0x14>
                            getAluMacInfoCb.stateMachineState = ALU_MAC_INFO_STATE_IDLE;
  4408c8:	2202      	movs	r2, #2
  4408ca:	4b22      	ldr	r3, [pc, #136]	; (440954 <checkAluMacInfoSm+0x104>)
  4408cc:	601a      	str	r2, [r3, #0]
                            break; // out of for loop ...
  4408ce:	e7c9      	b.n	440864 <checkAluMacInfoSm+0x14>
                    incrementBadEventCounter(PRI_ALU_CONTROL_REG_READ_LIMIT);
  4408d0:	203b      	movs	r0, #59	; 0x3b
  4408d2:	4b26      	ldr	r3, [pc, #152]	; (44096c <checkAluMacInfoSm+0x11c>)
  4408d4:	4798      	blx	r3
                    getAluMacInfoCb.stateMachineState = ALU_MAC_INFO_STATE_IDLE;
  4408d6:	2202      	movs	r2, #2
  4408d8:	4b1e      	ldr	r3, [pc, #120]	; (440954 <checkAluMacInfoSm+0x104>)
  4408da:	601a      	str	r2, [r3, #0]
                    break; // out of for loop ...
  4408dc:	e7c2      	b.n	440864 <checkAluMacInfoSm+0x14>
    switch (getAluMacInfoCb.stateMachineState) {
  4408de:	250a      	movs	r5, #10
                getAluMacInfoCb.lastReadTick      = g_ul_ms_ticks;
  4408e0:	4c1c      	ldr	r4, [pc, #112]	; (440954 <checkAluMacInfoSm+0x104>)
  4408e2:	4f1d      	ldr	r7, [pc, #116]	; (440958 <checkAluMacInfoSm+0x108>)
                processSecondaryAluDynamicRawData(&pData[0], &getAluMacInfoCb.lastKszPortForwardRead, &getAluMacInfoCb.kszValidCount);
  4408e4:	f104 0624 	add.w	r6, r4, #36	; 0x24
  4408e8:	e009      	b.n	4408fe <checkAluMacInfoSm+0xae>
                if (getAluMacInfoCb.current_index < getAluMacInfoCb.maxAluIndex) {
  4408ea:	6b23      	ldr	r3, [r4, #48]	; 0x30
  4408ec:	6ae2      	ldr	r2, [r4, #44]	; 0x2c
  4408ee:	4293      	cmp	r3, r2
  4408f0:	d22c      	bcs.n	44094c <checkAluMacInfoSm+0xfc>
                    getAluMacInfoCb.current_index++;
  4408f2:	3301      	adds	r3, #1
  4408f4:	6323      	str	r3, [r4, #48]	; 0x30
                pokeWatchdog();
  4408f6:	4b1b      	ldr	r3, [pc, #108]	; (440964 <checkAluMacInfoSm+0x114>)
  4408f8:	4798      	blx	r3
            for (iggy = 0; iggy < NUMBER_READ_ROWS_PER_CYCLE; iggy++) {
  4408fa:	3d01      	subs	r5, #1
  4408fc:	d0b2      	beq.n	440864 <checkAluMacInfoSm+0x14>
                getAluMacInfoCb.lastReadTick      = g_ul_ms_ticks;
  4408fe:	683b      	ldr	r3, [r7, #0]
  440900:	61a3      	str	r3, [r4, #24]
                readAluSecondaryDynamicByIndex((U16)getAluMacInfoCb.current_index, &pData[0]);
  440902:	a901      	add	r1, sp, #4
  440904:	8e20      	ldrh	r0, [r4, #48]	; 0x30
  440906:	4b1a      	ldr	r3, [pc, #104]	; (440970 <checkAluMacInfoSm+0x120>)
  440908:	4798      	blx	r3
                memcpy(&getAluMacInfoCb.mac[0], &pData[3], 6);           // <- may or may not be valid, depends on the kszPort.
  44090a:	ab04      	add	r3, sp, #16
  44090c:	f853 0d09 	ldr.w	r0, [r3, #-9]!
  440910:	6360      	str	r0, [r4, #52]	; 0x34
  440912:	889b      	ldrh	r3, [r3, #4]
  440914:	8723      	strh	r3, [r4, #56]	; 0x38
                processSecondaryAluDynamicRawData(&pData[0], &getAluMacInfoCb.lastKszPortForwardRead, &getAluMacInfoCb.kszValidCount);
  440916:	4632      	mov	r2, r6
  440918:	f104 0127 	add.w	r1, r4, #39	; 0x27
  44091c:	a801      	add	r0, sp, #4
  44091e:	4b15      	ldr	r3, [pc, #84]	; (440974 <checkAluMacInfoSm+0x124>)
  440920:	4798      	blx	r3
                if (getAluMacInfoCb.kszValidCount != 0) {
  440922:	8ca3      	ldrh	r3, [r4, #36]	; 0x24
  440924:	2b00      	cmp	r3, #0
  440926:	d0e0      	beq.n	4408ea <checkAluMacInfoSm+0x9a>
                    if (getAluMacInfoCb.lastKszPortForwardRead == getAluMacInfoCb.kszPortForward) {
  440928:	f894 2027 	ldrb.w	r2, [r4, #39]	; 0x27
  44092c:	f894 3026 	ldrb.w	r3, [r4, #38]	; 0x26
  440930:	429a      	cmp	r2, r3
  440932:	d1da      	bne.n	4408ea <checkAluMacInfoSm+0x9a>
                        getAluMacInfoCb.stateMachineState = ALU_MAC_INFO_STATE_IDLE;
  440934:	4907      	ldr	r1, [pc, #28]	; (440954 <checkAluMacInfoSm+0x104>)
  440936:	460b      	mov	r3, r1
  440938:	2202      	movs	r2, #2
  44093a:	f843 2b34 	str.w	r2, [r3], #52
                        memcpy(&getAluMacInfoCb.mac[0], &pData[3], 6);
  44093e:	aa04      	add	r2, sp, #16
  440940:	f852 0d09 	ldr.w	r0, [r2, #-9]!
  440944:	6348      	str	r0, [r1, #52]	; 0x34
  440946:	8892      	ldrh	r2, [r2, #4]
  440948:	809a      	strh	r2, [r3, #4]
                        break; // out of for loop
  44094a:	e78b      	b.n	440864 <checkAluMacInfoSm+0x14>
                    getAluMacInfoCb.stateMachineState = ALU_MAC_INFO_STATE_IDLE;
  44094c:	2202      	movs	r2, #2
  44094e:	4b01      	ldr	r3, [pc, #4]	; (440954 <checkAluMacInfoSm+0x104>)
  440950:	601a      	str	r2, [r3, #0]
}
  440952:	e787      	b.n	440864 <checkAluMacInfoSm+0x14>
  440954:	20400b44 	.word	0x20400b44
  440958:	20402a64 	.word	0x20402a64
  44095c:	00446cf9 	.word	0x00446cf9
  440960:	00446da5 	.word	0x00446da5
  440964:	0044c7c5 	.word	0x0044c7c5
  440968:	00446db5 	.word	0x00446db5
  44096c:	0044b8e1 	.word	0x0044b8e1
  440970:	004489f9 	.word	0x004489f9
  440974:	00448e31 	.word	0x00448e31

00440978 <eraseFlashHoldingBuffer>:
//
//
//
//
static void eraseFlashHoldingBuffer(void)
{
  440978:	4b04      	ldr	r3, [pc, #16]	; (44098c <eraseFlashHoldingBuffer+0x14>)
  44097a:	f503 5100 	add.w	r1, r3, #8192	; 0x2000
    U32 iggy;
    for (iggy = 0; iggy < MAX_FLASH_HOLDING_BLOCK_LONGS; iggy++) {
        flashHoldingBuffer[iggy] = 0xFFFFFFFF;
  44097e:	f04f 32ff 	mov.w	r2, #4294967295
  440982:	f843 2f04 	str.w	r2, [r3, #4]!
    for (iggy = 0; iggy < MAX_FLASH_HOLDING_BLOCK_LONGS; iggy++) {
  440986:	428b      	cmp	r3, r1
  440988:	d1fb      	bne.n	440982 <eraseFlashHoldingBuffer+0xa>
    }
}
  44098a:	4770      	bx	lr
  44098c:	20402c20 	.word	0x20402c20

00440990 <setUpgradeSmIdle>:
//
// Initialize any and all data for the upgrade state machine.
//
static void setUpgradeSmIdle(U32 lastUpgradeResult)
{
    upgradeSmCb.state             = SM_IDLE_STATE;
  440990:	4b03      	ldr	r3, [pc, #12]	; (4409a0 <setUpgradeSmIdle+0x10>)
  440992:	2201      	movs	r2, #1
  440994:	601a      	str	r2, [r3, #0]
    upgradeSmCb.lastTick          = g_ul_ms_ticks;
  440996:	4a03      	ldr	r2, [pc, #12]	; (4409a4 <setUpgradeSmIdle+0x14>)
  440998:	6812      	ldr	r2, [r2, #0]
  44099a:	605a      	str	r2, [r3, #4]
    upgradeSmCb.lastUpgradeResult = lastUpgradeResult;
  44099c:	6258      	str	r0, [r3, #36]	; 0x24
  44099e:	4770      	bx	lr
  4409a0:	20402aa4 	.word	0x20402aa4
  4409a4:	20402a64 	.word	0x20402a64

004409a8 <printToDebugPort>:
    if (debugInfoOutputEnabled) {
  4409a8:	4b10      	ldr	r3, [pc, #64]	; (4409ec <printToDebugPort+0x44>)
  4409aa:	781b      	ldrb	r3, [r3, #0]
  4409ac:	b903      	cbnz	r3, 4409b0 <printToDebugPort+0x8>
  4409ae:	4770      	bx	lr
{
  4409b0:	b570      	push	{r4, r5, r6, lr}
  4409b2:	460e      	mov	r6, r1
  4409b4:	4604      	mov	r4, r0
        memset(pDebugString, 0, MAX_DEBUG_STRING_LENGTH);
  4409b6:	4d0e      	ldr	r5, [pc, #56]	; (4409f0 <printToDebugPort+0x48>)
  4409b8:	2240      	movs	r2, #64	; 0x40
  4409ba:	2100      	movs	r1, #0
  4409bc:	4628      	mov	r0, r5
  4409be:	4b0d      	ldr	r3, [pc, #52]	; (4409f4 <printToDebugPort+0x4c>)
  4409c0:	4798      	blx	r3
        strcpy(pDebugString, pSomeString);
  4409c2:	4621      	mov	r1, r4
  4409c4:	4628      	mov	r0, r5
  4409c6:	4b0c      	ldr	r3, [pc, #48]	; (4409f8 <printToDebugPort+0x50>)
  4409c8:	4798      	blx	r3
        sprintf(&pDebugString[strlen(pSomeString)], " %08lX\r\n", anyData);
  4409ca:	4620      	mov	r0, r4
  4409cc:	4c0b      	ldr	r4, [pc, #44]	; (4409fc <printToDebugPort+0x54>)
  4409ce:	47a0      	blx	r4
  4409d0:	4632      	mov	r2, r6
  4409d2:	490b      	ldr	r1, [pc, #44]	; (440a00 <printToDebugPort+0x58>)
  4409d4:	4428      	add	r0, r5
  4409d6:	4b0b      	ldr	r3, [pc, #44]	; (440a04 <printToDebugPort+0x5c>)
  4409d8:	4798      	blx	r3
        usart_serial_write_packet((usart_if)UART1, (uint8_t *)pDebugString, strlen(pDebugString));
  4409da:	4628      	mov	r0, r5
  4409dc:	47a0      	blx	r4
  4409de:	4602      	mov	r2, r0
  4409e0:	4629      	mov	r1, r5
  4409e2:	4809      	ldr	r0, [pc, #36]	; (440a08 <printToDebugPort+0x60>)
  4409e4:	4b09      	ldr	r3, [pc, #36]	; (440a0c <printToDebugPort+0x64>)
  4409e6:	4798      	blx	r3
  4409e8:	bd70      	pop	{r4, r5, r6, pc}
  4409ea:	bf00      	nop
  4409ec:	20404c24 	.word	0x20404c24
  4409f0:	20400b80 	.word	0x20400b80
  4409f4:	00452229 	.word	0x00452229
  4409f8:	004524f1 	.word	0x004524f1
  4409fc:	004525c1 	.word	0x004525c1
  440a00:	00458510 	.word	0x00458510
  440a04:	00452465 	.word	0x00452465
  440a08:	400e0a00 	.word	0x400e0a00
  440a0c:	004500d1 	.word	0x004500d1

00440a10 <printUpgradeResponse>:
// The string takes the form:
//
// {"CLI":{"COMMAND":"upgrade","ARGUMENTS":"duh","CODE":1,"RESPONSE":"duh","RESULT":"SUCCESS"}}
//
static void printUpgradeResponse(U32 code)
{
  440a10:	b510      	push	{r4, lr}
  440a12:	b088      	sub	sp, #32
    //    - SAVE the "AMU" properties
    //    - and Bob's your uncle
	//
	// This debug-centric capability is now permanently included in the AMU build.

    if (debugDropTheNextOutgoingPacketAck) {
  440a14:	4b15      	ldr	r3, [pc, #84]	; (440a6c <printUpgradeResponse+0x5c>)
  440a16:	781b      	ldrb	r3, [r3, #0]
        if (code == HRC_RECEIVE_ACK) {
  440a18:	b10b      	cbz	r3, 440a1e <printUpgradeResponse+0xe>
  440a1a:	2802      	cmp	r0, #2
  440a1c:	d01f      	beq.n	440a5e <printUpgradeResponse+0x4e>
            printToDebugPort(DEBUG_PRINT_ACK_DROPPED_NOTICE_STRING,  0);
            return;
        }
    }

    if (code > HRC_LAST_VALID_RETURN_CODE) { code = HRC_CODING_ERROR; }
  440a1e:	282c      	cmp	r0, #44	; 0x2c
  440a20:	bf28      	it	cs
  440a22:	2000      	movcs	r0, #0
    printf("{%s:{%s:\"%s\",%s:\"%s\",%s:%lu,%s:%s,%s:%s}}\r\n", CLI_STRING, COMMAND_STRING,         UPGRADE_CMD,
  440a24:	4b12      	ldr	r3, [pc, #72]	; (440a70 <printUpgradeResponse+0x60>)
  440a26:	9307      	str	r3, [sp, #28]
  440a28:	4b12      	ldr	r3, [pc, #72]	; (440a74 <printUpgradeResponse+0x64>)
  440a2a:	9306      	str	r3, [sp, #24]
  440a2c:	4b12      	ldr	r3, [pc, #72]	; (440a78 <printUpgradeResponse+0x68>)
  440a2e:	f853 3020 	ldr.w	r3, [r3, r0, lsl #2]
  440a32:	9305      	str	r3, [sp, #20]
  440a34:	4b11      	ldr	r3, [pc, #68]	; (440a7c <printUpgradeResponse+0x6c>)
  440a36:	9304      	str	r3, [sp, #16]
  440a38:	9003      	str	r0, [sp, #12]
  440a3a:	4b11      	ldr	r3, [pc, #68]	; (440a80 <printUpgradeResponse+0x70>)
  440a3c:	9302      	str	r3, [sp, #8]
                                                                            ARGUMENTS_STRING,       UPGRADE_ARG_STRING_LOOKUP[upgradeSmCb.commandArg],
  440a3e:	4b11      	ldr	r3, [pc, #68]	; (440a84 <printUpgradeResponse+0x74>)
    printf("{%s:{%s:\"%s\",%s:\"%s\",%s:%lu,%s:%s,%s:%s}}\r\n", CLI_STRING, COMMAND_STRING,         UPGRADE_CMD,
  440a40:	699a      	ldr	r2, [r3, #24]
  440a42:	4b11      	ldr	r3, [pc, #68]	; (440a88 <printUpgradeResponse+0x78>)
  440a44:	f853 3022 	ldr.w	r3, [r3, r2, lsl #2]
  440a48:	9301      	str	r3, [sp, #4]
  440a4a:	4b10      	ldr	r3, [pc, #64]	; (440a8c <printUpgradeResponse+0x7c>)
  440a4c:	9300      	str	r3, [sp, #0]
  440a4e:	4b10      	ldr	r3, [pc, #64]	; (440a90 <printUpgradeResponse+0x80>)
  440a50:	4a10      	ldr	r2, [pc, #64]	; (440a94 <printUpgradeResponse+0x84>)
  440a52:	4911      	ldr	r1, [pc, #68]	; (440a98 <printUpgradeResponse+0x88>)
  440a54:	4811      	ldr	r0, [pc, #68]	; (440a9c <printUpgradeResponse+0x8c>)
  440a56:	4c12      	ldr	r4, [pc, #72]	; (440aa0 <printUpgradeResponse+0x90>)
  440a58:	47a0      	blx	r4
                                                                            CODE_STRING,            code,
                                                                            RESPONSE_STRING,        UPGRADE_RESPONSE_STRING_LOOKUP[code],
                                                                            RESULT_STRING,          SUCCESS_STRING);
}
  440a5a:	b008      	add	sp, #32
  440a5c:	bd10      	pop	{r4, pc}
            debugDropTheNextOutgoingPacketAck = FALSE;
  440a5e:	2100      	movs	r1, #0
  440a60:	4b02      	ldr	r3, [pc, #8]	; (440a6c <printUpgradeResponse+0x5c>)
  440a62:	7019      	strb	r1, [r3, #0]
            printToDebugPort(DEBUG_PRINT_ACK_DROPPED_NOTICE_STRING,  0);
  440a64:	480f      	ldr	r0, [pc, #60]	; (440aa4 <printUpgradeResponse+0x94>)
  440a66:	4b10      	ldr	r3, [pc, #64]	; (440aa8 <printUpgradeResponse+0x98>)
  440a68:	4798      	blx	r3
            return;
  440a6a:	e7f6      	b.n	440a5a <printUpgradeResponse+0x4a>
  440a6c:	20402aa0 	.word	0x20402aa0
  440a70:	0045a8c0 	.word	0x0045a8c0
  440a74:	0045a3e0 	.word	0x0045a3e0
  440a78:	204000a8 	.word	0x204000a8
  440a7c:	0045a3d4 	.word	0x0045a3d4
  440a80:	00458d08 	.word	0x00458d08
  440a84:	20402aa4 	.word	0x20402aa4
  440a88:	2040008c 	.word	0x2040008c
  440a8c:	0045889c 	.word	0x0045889c
  440a90:	0045aa00 	.word	0x0045aa00
  440a94:	00458d24 	.word	0x00458d24
  440a98:	00458cf8 	.word	0x00458cf8
  440a9c:	0045851c 	.word	0x0045851c
  440aa0:	0045206d 	.word	0x0045206d
  440aa4:	004582a8 	.word	0x004582a8
  440aa8:	004409a9 	.word	0x004409a9

00440aac <initUpgradeSmData>:
{
  440aac:	b508      	push	{r3, lr}
    upgradeSmCb.state                       = SM_IDLE_STATE;
  440aae:	4920      	ldr	r1, [pc, #128]	; (440b30 <initUpgradeSmData+0x84>)
  440ab0:	2301      	movs	r3, #1
  440ab2:	600b      	str	r3, [r1, #0]
    upgradeSmCb.lastTick                    = g_ul_ms_ticks;
  440ab4:	4b1f      	ldr	r3, [pc, #124]	; (440b34 <initUpgradeSmData+0x88>)
  440ab6:	681b      	ldr	r3, [r3, #0]
  440ab8:	604b      	str	r3, [r1, #4]
    upgradeSmCb.currentHexRecordLength      = 0;
  440aba:	2300      	movs	r3, #0
  440abc:	608b      	str	r3, [r1, #8]
    upgradeSmCb.hexRecordType               = 0;
  440abe:	60cb      	str	r3, [r1, #12]
    upgradeSmCb.hexRecordDataLength         = 0;
  440ac0:	610b      	str	r3, [r1, #16]
    upgradeSmCb.hexRecordRelativeAddress    = 0;
  440ac2:	828b      	strh	r3, [r1, #20]
    upgradeSmCb.hexRecordChecksum           = 0;
  440ac4:	82cb      	strh	r3, [r1, #22]
    upgradeSmCb.commandArg                  = 0;
  440ac6:	618b      	str	r3, [r1, #24]
    upgradeSmCb.componentBeingUpgraded      = UPGRADING_COMPONENT_NOT_KNOWN;
  440ac8:	61cb      	str	r3, [r1, #28]
    upgradeSmCb.nextExpectedRecordType      = HRT_EXTENDED_SEGMENT_ADDRESS;
  440aca:	2204      	movs	r2, #4
  440acc:	620a      	str	r2, [r1, #32]
    upgradeSmCb.lastUpgradeResult           = lastUpgradeResult;
  440ace:	6248      	str	r0, [r1, #36]	; 0x24
    upgradeSmCb.applicationSignatureErased  = (applicationFlashSignature == 0xFFFFFFFF) ? TRUE : FALSE;
  440ad0:	4a19      	ldr	r2, [pc, #100]	; (440b38 <initUpgradeSmData+0x8c>)
  440ad2:	6812      	ldr	r2, [r2, #0]
  440ad4:	f1b2 3fff 	cmp.w	r2, #4294967295
  440ad8:	bf14      	ite	ne
  440ada:	2200      	movne	r2, #0
  440adc:	2201      	moveq	r2, #1
  440ade:	f881 2028 	strb.w	r2, [r1, #40]	; 0x28
    upgradeSmCb.bootloaderSignatureErased   = (bootloaderFlashSignature  == 0xFFFFFFFF) ? TRUE : FALSE;
  440ae2:	4a16      	ldr	r2, [pc, #88]	; (440b3c <initUpgradeSmData+0x90>)
  440ae4:	6812      	ldr	r2, [r2, #0]
  440ae6:	f1b2 3fff 	cmp.w	r2, #4294967295
  440aea:	bf14      	ite	ne
  440aec:	2200      	movne	r2, #0
  440aee:	2201      	moveq	r2, #1
  440af0:	f881 2029 	strb.w	r2, [r1, #41]	; 0x29
    upgradeSmCb.flashSegmentAddress         = 0;
  440af4:	62cb      	str	r3, [r1, #44]	; 0x2c
    upgradeSmCb.nextExpectedRelativeAddress = 0;
  440af6:	630b      	str	r3, [r1, #48]	; 0x30
    upgradeSmCb.longsWrittenToHoldingBuffer = 0;
  440af8:	634b      	str	r3, [r1, #52]	; 0x34
    upgradeSmCb.lastPacketAddress           = 0;
  440afa:	638b      	str	r3, [r1, #56]	; 0x38
    upgradeSmCb.flashStatsBlockRank         = 0;
  440afc:	63cb      	str	r3, [r1, #60]	; 0x3c
  440afe:	460b      	mov	r3, r1
  440b00:	f501 71a0 	add.w	r1, r1, #320	; 0x140
        upgradeSmCb.flashStats[iggy].flashAddress     = 0xFFFFFFFF;
  440b04:	f04f 32ff 	mov.w	r2, #4294967295
  440b08:	641a      	str	r2, [r3, #64]	; 0x40
        upgradeSmCb.flashStats[iggy].blockSizeWritten = 0xFFFFFFFF;
  440b0a:	645a      	str	r2, [r3, #68]	; 0x44
        upgradeSmCb.flashStats[iggy].holdingBlockCrc  = 0xFFFFFFFF;
  440b0c:	649a      	str	r2, [r3, #72]	; 0x48
        upgradeSmCb.flashStats[iggy].flashBlockCrc    = 0xFFFFFFFF;
  440b0e:	64da      	str	r2, [r3, #76]	; 0x4c
  440b10:	3310      	adds	r3, #16
    for (iggy = 0; iggy < MAX_FLASH_BLOCKS_WRITE_FOR_STATS; iggy++) {
  440b12:	428b      	cmp	r3, r1
  440b14:	d1f8      	bne.n	440b08 <initUpgradeSmData+0x5c>
    eraseFlashHoldingBuffer();
  440b16:	4b0a      	ldr	r3, [pc, #40]	; (440b40 <initUpgradeSmData+0x94>)
  440b18:	4798      	blx	r3
    debugInfoOutputEnabled        = FALSE;
  440b1a:	2300      	movs	r3, #0
  440b1c:	4a09      	ldr	r2, [pc, #36]	; (440b44 <initUpgradeSmData+0x98>)
  440b1e:	7013      	strb	r3, [r2, #0]
    debugHexRecordOutputEnabled   = FALSE;
  440b20:	4a09      	ldr	r2, [pc, #36]	; (440b48 <initUpgradeSmData+0x9c>)
  440b22:	7013      	strb	r3, [r2, #0]
    debugDropTheNextIncomingDataPacket = FALSE;
  440b24:	4a09      	ldr	r2, [pc, #36]	; (440b4c <initUpgradeSmData+0xa0>)
  440b26:	7013      	strb	r3, [r2, #0]
    debugDropTheNextOutgoingPacketAck  = FALSE;
  440b28:	4a09      	ldr	r2, [pc, #36]	; (440b50 <initUpgradeSmData+0xa4>)
  440b2a:	7013      	strb	r3, [r2, #0]
  440b2c:	bd08      	pop	{r3, pc}
  440b2e:	bf00      	nop
  440b30:	20402aa4 	.word	0x20402aa4
  440b34:	20402a64 	.word	0x20402a64
  440b38:	20404d58 	.word	0x20404d58
  440b3c:	20404d00 	.word	0x20404d00
  440b40:	00440979 	.word	0x00440979
  440b44:	20404c24 	.word	0x20404c24
  440b48:	20404c25 	.word	0x20404c25
  440b4c:	20402aa1 	.word	0x20402aa1
  440b50:	20402aa0 	.word	0x20402aa0

00440b54 <upgradeInfoOutputOnOff>:
{
  440b54:	b510      	push	{r4, lr}
  440b56:	b088      	sub	sp, #32
    if (enable == TRUE) { debugInfoOutputEnabled = TRUE;  }
  440b58:	2801      	cmp	r0, #1
  440b5a:	d01b      	beq.n	440b94 <upgradeInfoOutputOnOff+0x40>
    else                { debugInfoOutputEnabled = FALSE; }
  440b5c:	2200      	movs	r2, #0
  440b5e:	4b10      	ldr	r3, [pc, #64]	; (440ba0 <upgradeInfoOutputOnOff+0x4c>)
  440b60:	701a      	strb	r2, [r3, #0]
    printf("{%s:{%s:\"%s\",%s:%s,%s:%u,%s:{\"debugInfoOutputEnabled\":%u},%s:%s}}\r\n",
  440b62:	4b10      	ldr	r3, [pc, #64]	; (440ba4 <upgradeInfoOutputOnOff+0x50>)
  440b64:	4a10      	ldr	r2, [pc, #64]	; (440ba8 <upgradeInfoOutputOnOff+0x54>)
  440b66:	9207      	str	r2, [sp, #28]
  440b68:	4a10      	ldr	r2, [pc, #64]	; (440bac <upgradeInfoOutputOnOff+0x58>)
  440b6a:	9206      	str	r2, [sp, #24]
  440b6c:	4a0c      	ldr	r2, [pc, #48]	; (440ba0 <upgradeInfoOutputOnOff+0x4c>)
  440b6e:	7812      	ldrb	r2, [r2, #0]
  440b70:	9205      	str	r2, [sp, #20]
  440b72:	4a0f      	ldr	r2, [pc, #60]	; (440bb0 <upgradeInfoOutputOnOff+0x5c>)
  440b74:	9204      	str	r2, [sp, #16]
  440b76:	2200      	movs	r2, #0
  440b78:	9203      	str	r2, [sp, #12]
  440b7a:	4a0e      	ldr	r2, [pc, #56]	; (440bb4 <upgradeInfoOutputOnOff+0x60>)
  440b7c:	9202      	str	r2, [sp, #8]
  440b7e:	4a0e      	ldr	r2, [pc, #56]	; (440bb8 <upgradeInfoOutputOnOff+0x64>)
  440b80:	9201      	str	r2, [sp, #4]
  440b82:	4a0e      	ldr	r2, [pc, #56]	; (440bbc <upgradeInfoOutputOnOff+0x68>)
  440b84:	9200      	str	r2, [sp, #0]
  440b86:	4a0e      	ldr	r2, [pc, #56]	; (440bc0 <upgradeInfoOutputOnOff+0x6c>)
  440b88:	490e      	ldr	r1, [pc, #56]	; (440bc4 <upgradeInfoOutputOnOff+0x70>)
  440b8a:	480f      	ldr	r0, [pc, #60]	; (440bc8 <upgradeInfoOutputOnOff+0x74>)
  440b8c:	4c0f      	ldr	r4, [pc, #60]	; (440bcc <upgradeInfoOutputOnOff+0x78>)
  440b8e:	47a0      	blx	r4
}
  440b90:	b008      	add	sp, #32
  440b92:	bd10      	pop	{r4, pc}
    if (enable == TRUE) { debugInfoOutputEnabled = TRUE;  }
  440b94:	2201      	movs	r2, #1
  440b96:	4b02      	ldr	r3, [pc, #8]	; (440ba0 <upgradeInfoOutputOnOff+0x4c>)
  440b98:	701a      	strb	r2, [r3, #0]
    printf("{%s:{%s:\"%s\",%s:%s,%s:%u,%s:{\"debugInfoOutputEnabled\":%u},%s:%s}}\r\n",
  440b9a:	4b0d      	ldr	r3, [pc, #52]	; (440bd0 <upgradeInfoOutputOnOff+0x7c>)
  440b9c:	e7e2      	b.n	440b64 <upgradeInfoOutputOnOff+0x10>
  440b9e:	bf00      	nop
  440ba0:	20404c24 	.word	0x20404c24
  440ba4:	00459030 	.word	0x00459030
  440ba8:	0045a8c0 	.word	0x0045a8c0
  440bac:	0045a3e0 	.word	0x0045a3e0
  440bb0:	0045a3d4 	.word	0x0045a3d4
  440bb4:	00458d08 	.word	0x00458d08
  440bb8:	00459b98 	.word	0x00459b98
  440bbc:	0045889c 	.word	0x0045889c
  440bc0:	00458d24 	.word	0x00458d24
  440bc4:	00458cf8 	.word	0x00458cf8
  440bc8:	00458594 	.word	0x00458594
  440bcc:	0045206d 	.word	0x0045206d
  440bd0:	004591b8 	.word	0x004591b8

00440bd4 <upgradeHexInfoOutputOnOff>:
{
  440bd4:	b510      	push	{r4, lr}
  440bd6:	b088      	sub	sp, #32
    if (enable == TRUE) { debugHexRecordOutputEnabled = TRUE;  }
  440bd8:	2801      	cmp	r0, #1
  440bda:	bf0c      	ite	eq
  440bdc:	2201      	moveq	r2, #1
    else                { debugHexRecordOutputEnabled = FALSE; }
  440bde:	2200      	movne	r2, #0
  440be0:	4b0d      	ldr	r3, [pc, #52]	; (440c18 <upgradeHexInfoOutputOnOff+0x44>)
  440be2:	701a      	strb	r2, [r3, #0]
    printf("{%s:{%s:\"%s\",%s:%s,%s:%u,%s:{\"debugHexRecordOutputEnabled\":%u},%s:%s}}\r\n",
  440be4:	4b0d      	ldr	r3, [pc, #52]	; (440c1c <upgradeHexInfoOutputOnOff+0x48>)
  440be6:	9307      	str	r3, [sp, #28]
  440be8:	4b0d      	ldr	r3, [pc, #52]	; (440c20 <upgradeHexInfoOutputOnOff+0x4c>)
  440bea:	9306      	str	r3, [sp, #24]
  440bec:	4b0a      	ldr	r3, [pc, #40]	; (440c18 <upgradeHexInfoOutputOnOff+0x44>)
  440bee:	781b      	ldrb	r3, [r3, #0]
  440bf0:	9305      	str	r3, [sp, #20]
  440bf2:	4b0c      	ldr	r3, [pc, #48]	; (440c24 <upgradeHexInfoOutputOnOff+0x50>)
  440bf4:	9304      	str	r3, [sp, #16]
  440bf6:	2300      	movs	r3, #0
  440bf8:	9303      	str	r3, [sp, #12]
  440bfa:	4b0b      	ldr	r3, [pc, #44]	; (440c28 <upgradeHexInfoOutputOnOff+0x54>)
  440bfc:	9302      	str	r3, [sp, #8]
  440bfe:	4b0b      	ldr	r3, [pc, #44]	; (440c2c <upgradeHexInfoOutputOnOff+0x58>)
  440c00:	9301      	str	r3, [sp, #4]
  440c02:	4b0b      	ldr	r3, [pc, #44]	; (440c30 <upgradeHexInfoOutputOnOff+0x5c>)
  440c04:	9300      	str	r3, [sp, #0]
  440c06:	4b0b      	ldr	r3, [pc, #44]	; (440c34 <upgradeHexInfoOutputOnOff+0x60>)
  440c08:	4a0b      	ldr	r2, [pc, #44]	; (440c38 <upgradeHexInfoOutputOnOff+0x64>)
  440c0a:	490c      	ldr	r1, [pc, #48]	; (440c3c <upgradeHexInfoOutputOnOff+0x68>)
  440c0c:	480c      	ldr	r0, [pc, #48]	; (440c40 <upgradeHexInfoOutputOnOff+0x6c>)
  440c0e:	4c0d      	ldr	r4, [pc, #52]	; (440c44 <upgradeHexInfoOutputOnOff+0x70>)
  440c10:	47a0      	blx	r4
}
  440c12:	b008      	add	sp, #32
  440c14:	bd10      	pop	{r4, pc}
  440c16:	bf00      	nop
  440c18:	20404c25 	.word	0x20404c25
  440c1c:	0045a8c0 	.word	0x0045a8c0
  440c20:	0045a3e0 	.word	0x0045a3e0
  440c24:	0045a3d4 	.word	0x0045a3d4
  440c28:	00458d08 	.word	0x00458d08
  440c2c:	00459b98 	.word	0x00459b98
  440c30:	0045889c 	.word	0x0045889c
  440c34:	004591a0 	.word	0x004591a0
  440c38:	00458d24 	.word	0x00458d24
  440c3c:	00458cf8 	.word	0x00458cf8
  440c40:	00458548 	.word	0x00458548
  440c44:	0045206d 	.word	0x0045206d

00440c48 <dropUpgradeSomething>:
{
  440c48:	b510      	push	{r4, lr}
  440c4a:	b08a      	sub	sp, #40	; 0x28
    if      (whatToDrop == PLEASE_DROP_THE_NEXT_DATA_PACKET)  { debugDropTheNextIncomingDataPacket = TRUE; }
  440c4c:	2801      	cmp	r0, #1
  440c4e:	d01c      	beq.n	440c8a <dropUpgradeSomething+0x42>
    else /* (whatToDrop == PLEASE_DROP_THE_NEXT_PACKET_ACK)*/ { debugDropTheNextOutgoingPacketAck  = TRUE; }
  440c50:	2201      	movs	r2, #1
  440c52:	4b11      	ldr	r3, [pc, #68]	; (440c98 <dropUpgradeSomething+0x50>)
  440c54:	701a      	strb	r2, [r3, #0]
    printf("{%s:{%s:\"%s\",%s:%s,%s:%u,%s:{%s:%s},%s:%s}}\r\n",
  440c56:	4b11      	ldr	r3, [pc, #68]	; (440c9c <dropUpgradeSomething+0x54>)
  440c58:	4a11      	ldr	r2, [pc, #68]	; (440ca0 <dropUpgradeSomething+0x58>)
  440c5a:	4912      	ldr	r1, [pc, #72]	; (440ca4 <dropUpgradeSomething+0x5c>)
  440c5c:	9108      	str	r1, [sp, #32]
  440c5e:	4912      	ldr	r1, [pc, #72]	; (440ca8 <dropUpgradeSomething+0x60>)
  440c60:	9107      	str	r1, [sp, #28]
  440c62:	9206      	str	r2, [sp, #24]
  440c64:	4a11      	ldr	r2, [pc, #68]	; (440cac <dropUpgradeSomething+0x64>)
  440c66:	9205      	str	r2, [sp, #20]
  440c68:	4a11      	ldr	r2, [pc, #68]	; (440cb0 <dropUpgradeSomething+0x68>)
  440c6a:	9204      	str	r2, [sp, #16]
  440c6c:	2200      	movs	r2, #0
  440c6e:	9203      	str	r2, [sp, #12]
  440c70:	4a10      	ldr	r2, [pc, #64]	; (440cb4 <dropUpgradeSomething+0x6c>)
  440c72:	9202      	str	r2, [sp, #8]
  440c74:	4a10      	ldr	r2, [pc, #64]	; (440cb8 <dropUpgradeSomething+0x70>)
  440c76:	9201      	str	r2, [sp, #4]
  440c78:	4a10      	ldr	r2, [pc, #64]	; (440cbc <dropUpgradeSomething+0x74>)
  440c7a:	9200      	str	r2, [sp, #0]
  440c7c:	4a10      	ldr	r2, [pc, #64]	; (440cc0 <dropUpgradeSomething+0x78>)
  440c7e:	4911      	ldr	r1, [pc, #68]	; (440cc4 <dropUpgradeSomething+0x7c>)
  440c80:	4811      	ldr	r0, [pc, #68]	; (440cc8 <dropUpgradeSomething+0x80>)
  440c82:	4c12      	ldr	r4, [pc, #72]	; (440ccc <dropUpgradeSomething+0x84>)
  440c84:	47a0      	blx	r4
}
  440c86:	b00a      	add	sp, #40	; 0x28
  440c88:	bd10      	pop	{r4, pc}
    if      (whatToDrop == PLEASE_DROP_THE_NEXT_DATA_PACKET)  { debugDropTheNextIncomingDataPacket = TRUE; }
  440c8a:	2201      	movs	r2, #1
  440c8c:	4b10      	ldr	r3, [pc, #64]	; (440cd0 <dropUpgradeSomething+0x88>)
  440c8e:	701a      	strb	r2, [r3, #0]
    printf("{%s:{%s:\"%s\",%s:%s,%s:%u,%s:{%s:%s},%s:%s}}\r\n",
  440c90:	4b10      	ldr	r3, [pc, #64]	; (440cd4 <dropUpgradeSomething+0x8c>)
  440c92:	4a11      	ldr	r2, [pc, #68]	; (440cd8 <dropUpgradeSomething+0x90>)
  440c94:	e7e1      	b.n	440c5a <dropUpgradeSomething+0x12>
  440c96:	bf00      	nop
  440c98:	20402aa0 	.word	0x20402aa0
  440c9c:	004590c0 	.word	0x004590c0
  440ca0:	004581d4 	.word	0x004581d4
  440ca4:	0045a8c0 	.word	0x0045a8c0
  440ca8:	0045a3e0 	.word	0x0045a3e0
  440cac:	004581f4 	.word	0x004581f4
  440cb0:	0045a3d4 	.word	0x0045a3d4
  440cb4:	00458d08 	.word	0x00458d08
  440cb8:	00459b98 	.word	0x00459b98
  440cbc:	0045889c 	.word	0x0045889c
  440cc0:	00458d24 	.word	0x00458d24
  440cc4:	00458cf8 	.word	0x00458cf8
  440cc8:	004584d0 	.word	0x004584d0
  440ccc:	0045206d 	.word	0x0045206d
  440cd0:	20402aa1 	.word	0x20402aa1
  440cd4:	004590a4 	.word	0x004590a4
  440cd8:	004581b8 	.word	0x004581b8

00440cdc <printFlashHoldingBuffer>:
{
  440cdc:	b508      	push	{r3, lr}
    printf("not available\r\n");    
  440cde:	4802      	ldr	r0, [pc, #8]	; (440ce8 <printFlashHoldingBuffer+0xc>)
  440ce0:	4b02      	ldr	r3, [pc, #8]	; (440cec <printFlashHoldingBuffer+0x10>)
  440ce2:	4798      	blx	r3
  440ce4:	bd08      	pop	{r3, pc}
  440ce6:	bf00      	nop
  440ce8:	00458500 	.word	0x00458500
  440cec:	0045206d 	.word	0x0045206d

00440cf0 <writeFlashProgramSignature>:
{
  440cf0:	b5f0      	push	{r4, r5, r6, r7, lr}
  440cf2:	b085      	sub	sp, #20
  440cf4:	4606      	mov	r6, r0
    flashLong               = signatureValue;
  440cf6:	9103      	str	r1, [sp, #12]
    mappedFlashAddress      = signatureAddress + IFLASH_ADDR;
  440cf8:	f500 0780 	add.w	r7, r0, #4194304	; 0x400000
    flashAddressActualStart = 0;
  440cfc:	2000      	movs	r0, #0
  440cfe:	9002      	str	r0, [sp, #8]
    flashAddressActualEnd   = 0;
  440d00:	ad04      	add	r5, sp, #16
  440d02:	f845 0d0c 	str.w	r0, [r5, #-12]!
    flash_init(FLASH_ACCESS_MODE_128, 6);
  440d06:	2106      	movs	r1, #6
  440d08:	4b18      	ldr	r3, [pc, #96]	; (440d6c <writeFlashProgramSignature+0x7c>)
  440d0a:	4798      	blx	r3
    flashResult = flash_unlock(mappedFlashAddress, (mappedFlashAddress + IFLASH_PAGE_SIZE), &flashAddressActualStart, &flashAddressActualEnd);
  440d0c:	4c18      	ldr	r4, [pc, #96]	; (440d70 <writeFlashProgramSignature+0x80>)
  440d0e:	462b      	mov	r3, r5
  440d10:	aa02      	add	r2, sp, #8
  440d12:	19a1      	adds	r1, r4, r6
  440d14:	4638      	mov	r0, r7
  440d16:	4d17      	ldr	r5, [pc, #92]	; (440d74 <writeFlashProgramSignature+0x84>)
  440d18:	47a8      	blx	r5
    if (flashResult != FLASH_RC_OK) { return APP_FLASH_RESULT_UNLOCK_FAIL; }
  440d1a:	b110      	cbz	r0, 440d22 <writeFlashProgramSignature+0x32>
  440d1c:	2002      	movs	r0, #2
}
  440d1e:	b005      	add	sp, #20
  440d20:	bdf0      	pop	{r4, r5, r6, r7, pc}
    flashResult = flash_erase_page(mappedFlashAddress, APPARENT_IFLASH_ERASE_PAGES);
  440d22:	2102      	movs	r1, #2
  440d24:	4638      	mov	r0, r7
  440d26:	4b14      	ldr	r3, [pc, #80]	; (440d78 <writeFlashProgramSignature+0x88>)
  440d28:	4798      	blx	r3
    if (flashResult != FLASH_RC_OK) { return APP_FLASH_RESULT_ERASE_PAGE_FAIL; }
  440d2a:	b108      	cbz	r0, 440d30 <writeFlashProgramSignature+0x40>
  440d2c:	2003      	movs	r0, #3
  440d2e:	e7f6      	b.n	440d1e <writeFlashProgramSignature+0x2e>
    flashResult = flash_write(mappedFlashAddress, &flashLong, sizeof(U32), FALSE);
  440d30:	2300      	movs	r3, #0
  440d32:	2204      	movs	r2, #4
  440d34:	a903      	add	r1, sp, #12
  440d36:	4638      	mov	r0, r7
  440d38:	4d10      	ldr	r5, [pc, #64]	; (440d7c <writeFlashProgramSignature+0x8c>)
  440d3a:	47a8      	blx	r5
    if (flashResult != FLASH_RC_OK) { return APP_FLASH_RESULT_WRITE_LONG_FAIL; }
  440d3c:	b108      	cbz	r0, 440d42 <writeFlashProgramSignature+0x52>
  440d3e:	2004      	movs	r0, #4
  440d40:	e7ed      	b.n	440d1e <writeFlashProgramSignature+0x2e>
    flashResult = flash_lock(mappedFlashAddress, (mappedFlashAddress + IFLASH_PAGE_SIZE), NULL, NULL);
  440d42:	2300      	movs	r3, #0
  440d44:	461a      	mov	r2, r3
  440d46:	19a1      	adds	r1, r4, r6
  440d48:	4638      	mov	r0, r7
  440d4a:	4c0d      	ldr	r4, [pc, #52]	; (440d80 <writeFlashProgramSignature+0x90>)
  440d4c:	47a0      	blx	r4
    if (flashResult != FLASH_RC_OK) { return APP_FLASH_RESULT_LOCK_FAIL; }
  440d4e:	b108      	cbz	r0, 440d54 <writeFlashProgramSignature+0x64>
  440d50:	2005      	movs	r0, #5
  440d52:	e7e4      	b.n	440d1e <writeFlashProgramSignature+0x2e>
    flashResult = flash_is_security_bit_enabled();
  440d54:	4b0b      	ldr	r3, [pc, #44]	; (440d84 <writeFlashProgramSignature+0x94>)
  440d56:	4798      	blx	r3
    if (flashResult == FLASH_RC_OK) {
  440d58:	b108      	cbz	r0, 440d5e <writeFlashProgramSignature+0x6e>
    return appResult;
  440d5a:	2001      	movs	r0, #1
  440d5c:	e7df      	b.n	440d1e <writeFlashProgramSignature+0x2e>
        flashResult = flash_enable_security_bit();
  440d5e:	4b0a      	ldr	r3, [pc, #40]	; (440d88 <writeFlashProgramSignature+0x98>)
  440d60:	4798      	blx	r3
        if (flashResult != FLASH_RC_OK) { return APP_FLASH_RESULT_ENABLE_SECURITY_FAIL;}
  440d62:	2800      	cmp	r0, #0
    return appResult;
  440d64:	bf14      	ite	ne
  440d66:	2006      	movne	r0, #6
  440d68:	2001      	moveq	r0, #1
  440d6a:	e7d8      	b.n	440d1e <writeFlashProgramSignature+0x2e>
  440d6c:	00450d11 	.word	0x00450d11
  440d70:	00400200 	.word	0x00400200
  440d74:	00450ea1 	.word	0x00450ea1
  440d78:	00450d3d 	.word	0x00450d3d
  440d7c:	00450d75 	.word	0x00450d75
  440d80:	00450e41 	.word	0x00450e41
  440d84:	00450f89 	.word	0x00450f89
  440d88:	00450f79 	.word	0x00450f79

00440d8c <readFlashToHoldingBlock>:
{
  440d8c:	e92d 41f0 	stmdb	sp!, {r4, r5, r6, r7, r8, lr}
  440d90:	4605      	mov	r5, r0
    flashResult = flash_set_wait_state(baseMemoryAddress, 6);
  440d92:	2106      	movs	r1, #6
  440d94:	4b50      	ldr	r3, [pc, #320]	; (440ed8 <readFlashToHoldingBlock+0x14c>)
  440d96:	4798      	blx	r3
    if (flashResult != FLASH_RC_OK) {
  440d98:	2800      	cmp	r0, #0
  440d9a:	f040 8093 	bne.w	440ec4 <readFlashToHoldingBlock+0x138>
  \details Disables IRQ interrupts by setting the I-bit in the CPSR.
           Can only be executed in Privileged modes.
 */
__STATIC_FORCEINLINE void __disable_irq(void)
{
  __ASM volatile ("cpsid i" : : : "memory");
  440d9e:	b672      	cpsid	i
  \details Ensures the apparent order of the explicit memory operations before
           and after the instruction, without ensuring their completion.
 */
__STATIC_FORCEINLINE void __DMB(void)
{
  __ASM volatile ("dmb 0xF":::"memory");
  440da0:	f3bf 8f5f 	dmb	sy
        cpu_irq_disable();
  440da4:	2200      	movs	r2, #0
  440da6:	4b4d      	ldr	r3, [pc, #308]	; (440edc <readFlashToHoldingBlock+0x150>)
  440da8:	701a      	strb	r2, [r3, #0]
  __ASM volatile ("dsb 0xF":::"memory");
  440daa:	f3bf 8f4f 	dsb	sy
  __ASM volatile ("isb 0xF":::"memory");
  440dae:	f3bf 8f6f 	isb	sy
__STATIC_INLINE void SCB_DisableICache (void)
{
  #if defined (__ICACHE_PRESENT) && (__ICACHE_PRESENT == 1U)
    __DSB();
    __ISB();
    SCB->CCR &= ~(uint32_t)SCB_CCR_IC_Msk;  /* disable I-Cache */
  440db2:	4b4b      	ldr	r3, [pc, #300]	; (440ee0 <readFlashToHoldingBlock+0x154>)
  440db4:	6959      	ldr	r1, [r3, #20]
  440db6:	f421 3100 	bic.w	r1, r1, #131072	; 0x20000
  440dba:	6159      	str	r1, [r3, #20]
    SCB->ICIALLU = 0UL;                     /* invalidate I-Cache */
  440dbc:	f8c3 2250 	str.w	r2, [r3, #592]	; 0x250
  __ASM volatile ("dsb 0xF":::"memory");
  440dc0:	f3bf 8f4f 	dsb	sy
  __ASM volatile ("isb 0xF":::"memory");
  440dc4:	f3bf 8f6f 	isb	sy
  #if defined (__DCACHE_PRESENT) && (__DCACHE_PRESENT == 1U)
    uint32_t ccsidr;
    uint32_t sets;
    uint32_t ways;

    SCB->CSSELR = 0U; /*(0U << 1U) | 0U;*/  /* Level 1 data cache */
  440dc8:	f8c3 2084 	str.w	r2, [r3, #132]	; 0x84
  __ASM volatile ("dsb 0xF":::"memory");
  440dcc:	f3bf 8f4f 	dsb	sy
    __DSB();

    SCB->CCR &= ~(uint32_t)SCB_CCR_DC_Msk;  /* disable D-Cache */
  440dd0:	695a      	ldr	r2, [r3, #20]
  440dd2:	f422 3280 	bic.w	r2, r2, #65536	; 0x10000
  440dd6:	615a      	str	r2, [r3, #20]
  440dd8:	f3bf 8f4f 	dsb	sy
    __DSB();

    ccsidr = SCB->CCSIDR;
  440ddc:	f8d3 3080 	ldr.w	r3, [r3, #128]	; 0x80

                                            /* clean & invalidate D-Cache */
    sets = (uint32_t)(CCSIDR_SETS(ccsidr));
  440de0:	f3c3 364e 	ubfx	r6, r3, #13, #15
    do {
      ways = (uint32_t)(CCSIDR_WAYS(ccsidr));
  440de4:	f3c3 0ec9 	ubfx	lr, r3, #3, #10
  440de8:	0177      	lsls	r7, r6, #5
  440dea:	ea4f 788e 	mov.w	r8, lr, lsl #30
      do {
        SCB->DCCISW = (((sets << SCB_DCCISW_SET_Pos) & SCB_DCCISW_SET_Msk) |
  440dee:	f643 7ce0 	movw	ip, #16352	; 0x3fe0
  440df2:	4c3b      	ldr	r4, [pc, #236]	; (440ee0 <readFlashToHoldingBlock+0x154>)
  440df4:	ea07 000c 	and.w	r0, r7, ip
  440df8:	4642      	mov	r2, r8
      ways = (uint32_t)(CCSIDR_WAYS(ccsidr));
  440dfa:	4673      	mov	r3, lr
        SCB->DCCISW = (((sets << SCB_DCCISW_SET_Pos) & SCB_DCCISW_SET_Msk) |
  440dfc:	ea40 0102 	orr.w	r1, r0, r2
  440e00:	f8c4 1274 	str.w	r1, [r4, #628]	; 0x274
                       ((ways << SCB_DCCISW_WAY_Pos) & SCB_DCCISW_WAY_Msk)  );
        #if defined ( __CC_ARM )
          __schedule_barrier();
        #endif
      } while (ways-- != 0U);
  440e04:	3b01      	subs	r3, #1
  440e06:	f102 4240 	add.w	r2, r2, #3221225472	; 0xc0000000
  440e0a:	f1b3 3fff 	cmp.w	r3, #4294967295
  440e0e:	d1f5      	bne.n	440dfc <readFlashToHoldingBlock+0x70>
    } while(sets-- != 0U);
  440e10:	3e01      	subs	r6, #1
  440e12:	3f20      	subs	r7, #32
  440e14:	f1b6 3fff 	cmp.w	r6, #4294967295
  440e18:	d1ec      	bne.n	440df4 <readFlashToHoldingBlock+0x68>
    instructionWordPtr = (uint32_t *)baseMemoryAddress;
  440e1a:	462b      	mov	r3, r5
  440e1c:	f3bf 8f4f 	dsb	sy
  __ASM volatile ("isb 0xF":::"memory");
  440e20:	f3bf 8f6f 	isb	sy
  440e24:	4a2f      	ldr	r2, [pc, #188]	; (440ee4 <readFlashToHoldingBlock+0x158>)
  440e26:	f505 5000 	add.w	r0, r5, #8192	; 0x2000
            pLong[iggy++] = *instructionWordPtr++;
  440e2a:	f853 1b04 	ldr.w	r1, [r3], #4
  440e2e:	f842 1f04 	str.w	r1, [r2, #4]!
        while (numberOfLongs-- != 0) {
  440e32:	4283      	cmp	r3, r0
  440e34:	d1f9      	bne.n	440e2a <readFlashToHoldingBlock+0x9e>
    SCB->CSSELR = 0U; /*(0U << 1U) | 0U;*/  /* Level 1 data cache */
  440e36:	4b2a      	ldr	r3, [pc, #168]	; (440ee0 <readFlashToHoldingBlock+0x154>)
  440e38:	2200      	movs	r2, #0
  440e3a:	f8c3 2084 	str.w	r2, [r3, #132]	; 0x84
  __ASM volatile ("dsb 0xF":::"memory");
  440e3e:	f3bf 8f4f 	dsb	sy
    SCB->CCR &= ~(uint32_t)SCB_CCR_DC_Msk;  /* disable D-Cache */
  440e42:	695a      	ldr	r2, [r3, #20]
  440e44:	f422 3280 	bic.w	r2, r2, #65536	; 0x10000
  440e48:	615a      	str	r2, [r3, #20]
  440e4a:	f3bf 8f4f 	dsb	sy
    ccsidr = SCB->CCSIDR;
  440e4e:	f8d3 7080 	ldr.w	r7, [r3, #128]	; 0x80
    sets = (uint32_t)(CCSIDR_SETS(ccsidr));
  440e52:	f3c7 354e 	ubfx	r5, r7, #13, #15
      ways = (uint32_t)(CCSIDR_WAYS(ccsidr));
  440e56:	f3c7 07c9 	ubfx	r7, r7, #3, #10
  440e5a:	016e      	lsls	r6, r5, #5
  440e5c:	ea4f 7c87 	mov.w	ip, r7, lsl #30
        SCB->DCCISW = (((sets << SCB_DCCISW_SET_Pos) & SCB_DCCISW_SET_Msk) |
  440e60:	f643 7ee0 	movw	lr, #16352	; 0x3fe0
  440e64:	461c      	mov	r4, r3
  440e66:	ea06 000e 	and.w	r0, r6, lr
  440e6a:	4662      	mov	r2, ip
      ways = (uint32_t)(CCSIDR_WAYS(ccsidr));
  440e6c:	463b      	mov	r3, r7
        SCB->DCCISW = (((sets << SCB_DCCISW_SET_Pos) & SCB_DCCISW_SET_Msk) |
  440e6e:	ea42 0100 	orr.w	r1, r2, r0
  440e72:	f8c4 1274 	str.w	r1, [r4, #628]	; 0x274
      } while (ways-- != 0U);
  440e76:	3b01      	subs	r3, #1
  440e78:	f102 4240 	add.w	r2, r2, #3221225472	; 0xc0000000
  440e7c:	f1b3 3fff 	cmp.w	r3, #4294967295
  440e80:	d1f5      	bne.n	440e6e <readFlashToHoldingBlock+0xe2>
    } while(sets-- != 0U);
  440e82:	3d01      	subs	r5, #1
  440e84:	3e20      	subs	r6, #32
  440e86:	f1b5 3fff 	cmp.w	r5, #4294967295
  440e8a:	d1ec      	bne.n	440e66 <readFlashToHoldingBlock+0xda>
  440e8c:	f3bf 8f4f 	dsb	sy
  __ASM volatile ("isb 0xF":::"memory");
  440e90:	f3bf 8f6f 	isb	sy
  __ASM volatile ("dsb 0xF":::"memory");
  440e94:	f3bf 8f4f 	dsb	sy
  __ASM volatile ("isb 0xF":::"memory");
  440e98:	f3bf 8f6f 	isb	sy
    SCB->CCR &= ~(uint32_t)SCB_CCR_IC_Msk;  /* disable I-Cache */
  440e9c:	4b10      	ldr	r3, [pc, #64]	; (440ee0 <readFlashToHoldingBlock+0x154>)
  440e9e:	695a      	ldr	r2, [r3, #20]
  440ea0:	f422 3200 	bic.w	r2, r2, #131072	; 0x20000
  440ea4:	615a      	str	r2, [r3, #20]
    SCB->ICIALLU = 0UL;                     /* invalidate I-Cache */
  440ea6:	2200      	movs	r2, #0
  440ea8:	f8c3 2250 	str.w	r2, [r3, #592]	; 0x250
  __ASM volatile ("dsb 0xF":::"memory");
  440eac:	f3bf 8f4f 	dsb	sy
  __ASM volatile ("isb 0xF":::"memory");
  440eb0:	f3bf 8f6f 	isb	sy
        cpu_irq_enable();
  440eb4:	2001      	movs	r0, #1
  440eb6:	4b09      	ldr	r3, [pc, #36]	; (440edc <readFlashToHoldingBlock+0x150>)
  440eb8:	7018      	strb	r0, [r3, #0]
  __ASM volatile ("dmb 0xF":::"memory");
  440eba:	f3bf 8f5f 	dmb	sy
  __ASM volatile ("cpsie i" : : : "memory");
  440ebe:	b662      	cpsie	i
}
  440ec0:	e8bd 81f0 	ldmia.w	sp!, {r4, r5, r6, r7, r8, pc}
        printUpgradeResponse(HRC_READ_FLASH_TO_HOLDING_FAIL);
  440ec4:	2026      	movs	r0, #38	; 0x26
  440ec6:	4b08      	ldr	r3, [pc, #32]	; (440ee8 <readFlashToHoldingBlock+0x15c>)
  440ec8:	4798      	blx	r3
        printToDebugPort(DEBUG_SET_WAIT_STATE_1_FAILED_STRING, baseMemoryAddress); readResult = FALSE; }
  440eca:	4629      	mov	r1, r5
  440ecc:	4807      	ldr	r0, [pc, #28]	; (440eec <readFlashToHoldingBlock+0x160>)
  440ece:	4b08      	ldr	r3, [pc, #32]	; (440ef0 <readFlashToHoldingBlock+0x164>)
  440ed0:	4798      	blx	r3
  440ed2:	2000      	movs	r0, #0
  440ed4:	e8bd 81f0 	ldmia.w	sp!, {r4, r5, r6, r7, r8, pc}
  440ed8:	00450d29 	.word	0x00450d29
  440edc:	20400174 	.word	0x20400174
  440ee0:	e000ed00 	.word	0xe000ed00
  440ee4:	20402c20 	.word	0x20402c20
  440ee8:	00440a11 	.word	0x00440a11
  440eec:	00458338 	.word	0x00458338
  440ef0:	004409a9 	.word	0x004409a9

00440ef4 <writeHoldingBlockToFlash>:
{
  440ef4:	e92d 4ff0 	stmdb	sp!, {r4, r5, r6, r7, r8, r9, sl, fp, lr}
  440ef8:	b083      	sub	sp, #12
  440efa:	4605      	mov	r5, r0
    if (flashAddress >= BOOTLOADER_FLASH_ADDRESS) {
  440efc:	f5b0 1fc0 	cmp.w	r0, #1572864	; 0x180000
  440f00:	f0c0 80cf 	bcc.w	4410a2 <writeHoldingBlockToFlash+0x1ae>
        mappedFlashAddress = flashAddress + IFLASH_ADDR;
  440f04:	f500 0780 	add.w	r7, r0, #4194304	; 0x400000
        flashAddressActualStart = 0;
  440f08:	2000      	movs	r0, #0
  440f0a:	9001      	str	r0, [sp, #4]
        flashAddressActualEnd   = 0;
  440f0c:	ac02      	add	r4, sp, #8
  440f0e:	f844 0d08 	str.w	r0, [r4, #-8]!
        flash_init(FLASH_ACCESS_MODE_128, 6);
  440f12:	2106      	movs	r1, #6
  440f14:	4b7b      	ldr	r3, [pc, #492]	; (441104 <writeHoldingBlockToFlash+0x210>)
  440f16:	4798      	blx	r3
        flashResult = flash_unlock(mappedFlashAddress, (mappedFlashAddress + IFLASH_PAGE_SIZE), &flashAddressActualStart, &flashAddressActualEnd);
  440f18:	4e7b      	ldr	r6, [pc, #492]	; (441108 <writeHoldingBlockToFlash+0x214>)
  440f1a:	442e      	add	r6, r5
  440f1c:	4623      	mov	r3, r4
  440f1e:	aa01      	add	r2, sp, #4
  440f20:	4631      	mov	r1, r6
  440f22:	4638      	mov	r0, r7
  440f24:	4c79      	ldr	r4, [pc, #484]	; (44110c <writeHoldingBlockToFlash+0x218>)
  440f26:	47a0      	blx	r4
        if (flashResult != FLASH_RC_OK) { printToDebugPort(DEBUG_WHBTF_UNLOCK_FAILED_STRING, flashResult); writeResult = FALSE; }
  440f28:	4604      	mov	r4, r0
  440f2a:	2800      	cmp	r0, #0
  440f2c:	f040 80c8 	bne.w	4410c0 <writeHoldingBlockToFlash+0x1cc>
            flashResult = flash_erase_page(mappedFlashAddress, APPARENT_IFLASH_ERASE_PAGES);
  440f30:	2102      	movs	r1, #2
  440f32:	4638      	mov	r0, r7
  440f34:	4b76      	ldr	r3, [pc, #472]	; (441110 <writeHoldingBlockToFlash+0x21c>)
  440f36:	4798      	blx	r3
            if (flashResult != FLASH_RC_OK) { printToDebugPort(DEBUG_WHBTF_ERASE_PAGE_FAILED_STRING, flashResult); writeResult = FALSE; }
  440f38:	4601      	mov	r1, r0
  440f3a:	2800      	cmp	r0, #0
  440f3c:	f040 80c8 	bne.w	4410d0 <writeHoldingBlockToFlash+0x1dc>
  __ASM volatile ("cpsid i" : : : "memory");
  440f40:	b672      	cpsid	i
  __ASM volatile ("dmb 0xF":::"memory");
  440f42:	f3bf 8f5f 	dmb	sy
            cpu_irq_disable();
  440f46:	2200      	movs	r2, #0
  440f48:	4b72      	ldr	r3, [pc, #456]	; (441114 <writeHoldingBlockToFlash+0x220>)
  440f4a:	701a      	strb	r2, [r3, #0]
  __ASM volatile ("dsb 0xF":::"memory");
  440f4c:	f3bf 8f4f 	dsb	sy
  __ASM volatile ("isb 0xF":::"memory");
  440f50:	f3bf 8f6f 	isb	sy
    SCB->CCR &= ~(uint32_t)SCB_CCR_IC_Msk;  /* disable I-Cache */
  440f54:	4b70      	ldr	r3, [pc, #448]	; (441118 <writeHoldingBlockToFlash+0x224>)
  440f56:	6959      	ldr	r1, [r3, #20]
  440f58:	f421 3100 	bic.w	r1, r1, #131072	; 0x20000
  440f5c:	6159      	str	r1, [r3, #20]
    SCB->ICIALLU = 0UL;                     /* invalidate I-Cache */
  440f5e:	f8c3 2250 	str.w	r2, [r3, #592]	; 0x250
  __ASM volatile ("dsb 0xF":::"memory");
  440f62:	f3bf 8f4f 	dsb	sy
  __ASM volatile ("isb 0xF":::"memory");
  440f66:	f3bf 8f6f 	isb	sy
    SCB->CSSELR = 0U; /*(0U << 1U) | 0U;*/  /* Level 1 data cache */
  440f6a:	f8c3 2084 	str.w	r2, [r3, #132]	; 0x84
  __ASM volatile ("dsb 0xF":::"memory");
  440f6e:	f3bf 8f4f 	dsb	sy
    SCB->CCR &= ~(uint32_t)SCB_CCR_DC_Msk;  /* disable D-Cache */
  440f72:	695a      	ldr	r2, [r3, #20]
  440f74:	f422 3280 	bic.w	r2, r2, #65536	; 0x10000
  440f78:	615a      	str	r2, [r3, #20]
  440f7a:	f3bf 8f4f 	dsb	sy
    ccsidr = SCB->CCSIDR;
  440f7e:	f8d3 3080 	ldr.w	r3, [r3, #128]	; 0x80
    sets = (uint32_t)(CCSIDR_SETS(ccsidr));
  440f82:	f3c3 3e4e 	ubfx	lr, r3, #13, #15
      ways = (uint32_t)(CCSIDR_WAYS(ccsidr));
  440f86:	f3c3 08c9 	ubfx	r8, r3, #3, #10
  440f8a:	ea4f 1c4e 	mov.w	ip, lr, lsl #5
  440f8e:	ea4f 7a88 	mov.w	sl, r8, lsl #30
        SCB->DCCISW = (((sets << SCB_DCCISW_SET_Pos) & SCB_DCCISW_SET_Msk) |
  440f92:	f643 79e0 	movw	r9, #16352	; 0x3fe0
  440f96:	4c60      	ldr	r4, [pc, #384]	; (441118 <writeHoldingBlockToFlash+0x224>)
  440f98:	ea0c 0009 	and.w	r0, ip, r9
  440f9c:	4652      	mov	r2, sl
      ways = (uint32_t)(CCSIDR_WAYS(ccsidr));
  440f9e:	4643      	mov	r3, r8
        SCB->DCCISW = (((sets << SCB_DCCISW_SET_Pos) & SCB_DCCISW_SET_Msk) |
  440fa0:	ea42 0100 	orr.w	r1, r2, r0
  440fa4:	f8c4 1274 	str.w	r1, [r4, #628]	; 0x274
      } while (ways-- != 0U);
  440fa8:	3b01      	subs	r3, #1
  440faa:	f102 4240 	add.w	r2, r2, #3221225472	; 0xc0000000
  440fae:	f1b3 3fff 	cmp.w	r3, #4294967295
  440fb2:	d1f5      	bne.n	440fa0 <writeHoldingBlockToFlash+0xac>
    } while(sets-- != 0U);
  440fb4:	f10e 3eff 	add.w	lr, lr, #4294967295
  440fb8:	f1ac 0c20 	sub.w	ip, ip, #32
  440fbc:	f1be 3fff 	cmp.w	lr, #4294967295
  440fc0:	d1ea      	bne.n	440f98 <writeHoldingBlockToFlash+0xa4>
  440fc2:	f3bf 8f4f 	dsb	sy
  __ASM volatile ("isb 0xF":::"memory");
  440fc6:	f3bf 8f6f 	isb	sy
            flashResult = flash_write(mappedFlashAddress, &flashHoldingBuffer[0], MAX_FLASH_HOLDING_BLOCK_BYTES, FALSE);
  440fca:	2300      	movs	r3, #0
  440fcc:	f44f 5200 	mov.w	r2, #8192	; 0x2000
  440fd0:	4952      	ldr	r1, [pc, #328]	; (44111c <writeHoldingBlockToFlash+0x228>)
  440fd2:	4638      	mov	r0, r7
  440fd4:	4c52      	ldr	r4, [pc, #328]	; (441120 <writeHoldingBlockToFlash+0x22c>)
  440fd6:	47a0      	blx	r4
    SCB->CSSELR = 0U; /*(0U << 1U) | 0U;*/  /* Level 1 data cache */
  440fd8:	4b4f      	ldr	r3, [pc, #316]	; (441118 <writeHoldingBlockToFlash+0x224>)
  440fda:	2200      	movs	r2, #0
  440fdc:	f8c3 2084 	str.w	r2, [r3, #132]	; 0x84
  __ASM volatile ("dsb 0xF":::"memory");
  440fe0:	f3bf 8f4f 	dsb	sy
    ccsidr = SCB->CCSIDR;
  440fe4:	f8d3 3080 	ldr.w	r3, [r3, #128]	; 0x80
    sets = (uint32_t)(CCSIDR_SETS(ccsidr));
  440fe8:	f3c3 3c4e 	ubfx	ip, r3, #13, #15
      ways = (uint32_t)(CCSIDR_WAYS(ccsidr));
  440fec:	f3c3 09c9 	ubfx	r9, r3, #3, #10
  440ff0:	ea4f 184c 	mov.w	r8, ip, lsl #5
  440ff4:	ea4f 7b89 	mov.w	fp, r9, lsl #30
        SCB->DCISW = (((sets << SCB_DCISW_SET_Pos) & SCB_DCISW_SET_Msk) |
  440ff8:	f643 7ae0 	movw	sl, #16352	; 0x3fe0
  440ffc:	4946      	ldr	r1, [pc, #280]	; (441118 <writeHoldingBlockToFlash+0x224>)
  440ffe:	ea08 0e0a 	and.w	lr, r8, sl
  441002:	465a      	mov	r2, fp
      ways = (uint32_t)(CCSIDR_WAYS(ccsidr));
  441004:	464b      	mov	r3, r9
        SCB->DCISW = (((sets << SCB_DCISW_SET_Pos) & SCB_DCISW_SET_Msk) |
  441006:	ea42 040e 	orr.w	r4, r2, lr
  44100a:	f8c1 4260 	str.w	r4, [r1, #608]	; 0x260
      } while (ways-- != 0U);
  44100e:	3b01      	subs	r3, #1
  441010:	f102 4240 	add.w	r2, r2, #3221225472	; 0xc0000000
  441014:	f1b3 3fff 	cmp.w	r3, #4294967295
  441018:	d1f5      	bne.n	441006 <writeHoldingBlockToFlash+0x112>
    } while(sets-- != 0U);
  44101a:	f10c 3cff 	add.w	ip, ip, #4294967295
  44101e:	f1a8 0820 	sub.w	r8, r8, #32
  441022:	f1bc 3fff 	cmp.w	ip, #4294967295
  441026:	d1ea      	bne.n	440ffe <writeHoldingBlockToFlash+0x10a>
  441028:	f3bf 8f4f 	dsb	sy
    SCB->CCR |=  (uint32_t)SCB_CCR_DC_Msk;  /* enable D-Cache */
  44102c:	4b3a      	ldr	r3, [pc, #232]	; (441118 <writeHoldingBlockToFlash+0x224>)
  44102e:	695a      	ldr	r2, [r3, #20]
  441030:	f442 3280 	orr.w	r2, r2, #65536	; 0x10000
  441034:	615a      	str	r2, [r3, #20]
  441036:	f3bf 8f4f 	dsb	sy
  __ASM volatile ("isb 0xF":::"memory");
  44103a:	f3bf 8f6f 	isb	sy
  __ASM volatile ("dsb 0xF":::"memory");
  44103e:	f3bf 8f4f 	dsb	sy
  __ASM volatile ("isb 0xF":::"memory");
  441042:	f3bf 8f6f 	isb	sy
    SCB->ICIALLU = 0UL;                     /* invalidate I-Cache */
  441046:	2200      	movs	r2, #0
  441048:	f8c3 2250 	str.w	r2, [r3, #592]	; 0x250
  __ASM volatile ("dsb 0xF":::"memory");
  44104c:	f3bf 8f4f 	dsb	sy
  __ASM volatile ("isb 0xF":::"memory");
  441050:	f3bf 8f6f 	isb	sy
    SCB->CCR |=  (uint32_t)SCB_CCR_IC_Msk;  /* enable I-Cache */
  441054:	695a      	ldr	r2, [r3, #20]
  441056:	f442 3200 	orr.w	r2, r2, #131072	; 0x20000
  44105a:	615a      	str	r2, [r3, #20]
  __ASM volatile ("dsb 0xF":::"memory");
  44105c:	f3bf 8f4f 	dsb	sy
  __ASM volatile ("isb 0xF":::"memory");
  441060:	f3bf 8f6f 	isb	sy
            cpu_irq_enable();
  441064:	2201      	movs	r2, #1
  441066:	4b2b      	ldr	r3, [pc, #172]	; (441114 <writeHoldingBlockToFlash+0x220>)
  441068:	701a      	strb	r2, [r3, #0]
  __ASM volatile ("dmb 0xF":::"memory");
  44106a:	f3bf 8f5f 	dmb	sy
  __ASM volatile ("cpsie i" : : : "memory");
  44106e:	b662      	cpsie	i
            if (flashResult != FLASH_RC_OK) { printToDebugPort(DEBUG_WHBTF_FAILED_STRING, flashResult); writeResult = FALSE; }
  441070:	2800      	cmp	r0, #0
  441072:	d131      	bne.n	4410d8 <writeHoldingBlockToFlash+0x1e4>
            flashResult = flash_lock(mappedFlashAddress, (mappedFlashAddress + IFLASH_PAGE_SIZE), NULL, NULL);
  441074:	2300      	movs	r3, #0
  441076:	461a      	mov	r2, r3
  441078:	4631      	mov	r1, r6
  44107a:	4638      	mov	r0, r7
  44107c:	4c29      	ldr	r4, [pc, #164]	; (441124 <writeHoldingBlockToFlash+0x230>)
  44107e:	47a0      	blx	r4
            if (flashResult != FLASH_RC_OK) { printToDebugPort(DEBUG_WHBTF_LOCK_FAILED_STRING, flashResult); writeResult = FALSE; }
  441080:	4601      	mov	r1, r0
  441082:	2800      	cmp	r0, #0
  441084:	d12d      	bne.n	4410e2 <writeHoldingBlockToFlash+0x1ee>
  441086:	2401      	movs	r4, #1
            flashResult = flash_is_security_bit_enabled();
  441088:	4b27      	ldr	r3, [pc, #156]	; (441128 <writeHoldingBlockToFlash+0x234>)
  44108a:	4798      	blx	r3
            if (flashResult == FLASH_RC_NO) {
  44108c:	2800      	cmp	r0, #0
  44108e:	d131      	bne.n	4410f4 <writeHoldingBlockToFlash+0x200>
                flashResult = flash_enable_security_bit();
  441090:	4b26      	ldr	r3, [pc, #152]	; (44112c <writeHoldingBlockToFlash+0x238>)
  441092:	4798      	blx	r3
                if (flashResult != FLASH_RC_OK) { printToDebugPort(DEBUG_WHBTF_SECURITY_BIT_FAILED_STRING, flashResult); writeResult = FALSE; }
  441094:	4601      	mov	r1, r0
  441096:	2800      	cmp	r0, #0
  441098:	d027      	beq.n	4410ea <writeHoldingBlockToFlash+0x1f6>
  44109a:	4825      	ldr	r0, [pc, #148]	; (441130 <writeHoldingBlockToFlash+0x23c>)
  44109c:	4b25      	ldr	r3, [pc, #148]	; (441134 <writeHoldingBlockToFlash+0x240>)
  44109e:	4798      	blx	r3
  4410a0:	e006      	b.n	4410b0 <writeHoldingBlockToFlash+0x1bc>
        printUpgradeResponse(HRC_FLASH_ADDRESS_LOW_ZONE);
  4410a2:	2027      	movs	r0, #39	; 0x27
  4410a4:	4b24      	ldr	r3, [pc, #144]	; (441138 <writeHoldingBlockToFlash+0x244>)
  4410a6:	4798      	blx	r3
        printToDebugPort(DEBUG_WRITE_LOW_LEVEL_ZONE_REJECT_STRING, flashAddress);
  4410a8:	4629      	mov	r1, r5
  4410aa:	4824      	ldr	r0, [pc, #144]	; (44113c <writeHoldingBlockToFlash+0x248>)
  4410ac:	4b21      	ldr	r3, [pc, #132]	; (441134 <writeHoldingBlockToFlash+0x240>)
  4410ae:	4798      	blx	r3
    if (!writeResult) { printUpgradeResponse(HRC_WRITE_HOLD_TO_FLASH_GENERIC_FAIL); }
  4410b0:	202a      	movs	r0, #42	; 0x2a
  4410b2:	4b21      	ldr	r3, [pc, #132]	; (441138 <writeHoldingBlockToFlash+0x244>)
  4410b4:	4798      	blx	r3
  4410b6:	2400      	movs	r4, #0
}
  4410b8:	4620      	mov	r0, r4
  4410ba:	b003      	add	sp, #12
  4410bc:	e8bd 8ff0 	ldmia.w	sp!, {r4, r5, r6, r7, r8, r9, sl, fp, pc}
        if (flashResult != FLASH_RC_OK) { printToDebugPort(DEBUG_WHBTF_UNLOCK_FAILED_STRING, flashResult); writeResult = FALSE; }
  4410c0:	4621      	mov	r1, r4
  4410c2:	481f      	ldr	r0, [pc, #124]	; (441140 <writeHoldingBlockToFlash+0x24c>)
  4410c4:	4b1b      	ldr	r3, [pc, #108]	; (441134 <writeHoldingBlockToFlash+0x240>)
  4410c6:	4798      	blx	r3
        if (flashResult == FLASH_RC_OK) {
  4410c8:	2c00      	cmp	r4, #0
  4410ca:	d1f1      	bne.n	4410b0 <writeHoldingBlockToFlash+0x1bc>
  4410cc:	2400      	movs	r4, #0
  4410ce:	e7db      	b.n	441088 <writeHoldingBlockToFlash+0x194>
            if (flashResult != FLASH_RC_OK) { printToDebugPort(DEBUG_WHBTF_ERASE_PAGE_FAILED_STRING, flashResult); writeResult = FALSE; }
  4410d0:	481c      	ldr	r0, [pc, #112]	; (441144 <writeHoldingBlockToFlash+0x250>)
  4410d2:	4b18      	ldr	r3, [pc, #96]	; (441134 <writeHoldingBlockToFlash+0x240>)
  4410d4:	4798      	blx	r3
  4410d6:	e7eb      	b.n	4410b0 <writeHoldingBlockToFlash+0x1bc>
            if (flashResult != FLASH_RC_OK) { printToDebugPort(DEBUG_WHBTF_FAILED_STRING, flashResult); writeResult = FALSE; }
  4410d8:	4601      	mov	r1, r0
  4410da:	481b      	ldr	r0, [pc, #108]	; (441148 <writeHoldingBlockToFlash+0x254>)
  4410dc:	4b15      	ldr	r3, [pc, #84]	; (441134 <writeHoldingBlockToFlash+0x240>)
  4410de:	4798      	blx	r3
  4410e0:	e7e6      	b.n	4410b0 <writeHoldingBlockToFlash+0x1bc>
            if (flashResult != FLASH_RC_OK) { printToDebugPort(DEBUG_WHBTF_LOCK_FAILED_STRING, flashResult); writeResult = FALSE; }
  4410e2:	481a      	ldr	r0, [pc, #104]	; (44114c <writeHoldingBlockToFlash+0x258>)
  4410e4:	4b13      	ldr	r3, [pc, #76]	; (441134 <writeHoldingBlockToFlash+0x240>)
  4410e6:	4798      	blx	r3
  4410e8:	e7e2      	b.n	4410b0 <writeHoldingBlockToFlash+0x1bc>
                else                            { printToDebugPort(DEBUG_WHBTF_SEC_ENABLE_OK_STRING, flashAddress); }
  4410ea:	4629      	mov	r1, r5
  4410ec:	4818      	ldr	r0, [pc, #96]	; (441150 <writeHoldingBlockToFlash+0x25c>)
  4410ee:	4b11      	ldr	r3, [pc, #68]	; (441134 <writeHoldingBlockToFlash+0x240>)
  4410f0:	4798      	blx	r3
  4410f2:	e003      	b.n	4410fc <writeHoldingBlockToFlash+0x208>
                printToDebugPort(DEBUG_WHBTF_SEC_WAS_ENABLED_STRING, flashAddress);
  4410f4:	4629      	mov	r1, r5
  4410f6:	4817      	ldr	r0, [pc, #92]	; (441154 <writeHoldingBlockToFlash+0x260>)
  4410f8:	4b0e      	ldr	r3, [pc, #56]	; (441134 <writeHoldingBlockToFlash+0x240>)
  4410fa:	4798      	blx	r3
    if (!writeResult) { printUpgradeResponse(HRC_WRITE_HOLD_TO_FLASH_GENERIC_FAIL); }
  4410fc:	2c00      	cmp	r4, #0
  4410fe:	d1db      	bne.n	4410b8 <writeHoldingBlockToFlash+0x1c4>
  441100:	e7d6      	b.n	4410b0 <writeHoldingBlockToFlash+0x1bc>
  441102:	bf00      	nop
  441104:	00450d11 	.word	0x00450d11
  441108:	00400200 	.word	0x00400200
  44110c:	00450ea1 	.word	0x00450ea1
  441110:	00450d3d 	.word	0x00450d3d
  441114:	20400174 	.word	0x20400174
  441118:	e000ed00 	.word	0xe000ed00
  44111c:	20402c24 	.word	0x20402c24
  441120:	00450d75 	.word	0x00450d75
  441124:	00450e41 	.word	0x00450e41
  441128:	00450f89 	.word	0x00450f89
  44112c:	00450f79 	.word	0x00450f79
  441130:	004583a8 	.word	0x004583a8
  441134:	004409a9 	.word	0x004409a9
  441138:	00440a11 	.word	0x00440a11
  44113c:	004583fc 	.word	0x004583fc
  441140:	004583ec 	.word	0x004583ec
  441144:	00458374 	.word	0x00458374
  441148:	00458384 	.word	0x00458384
  44114c:	0045839c 	.word	0x0045839c
  441150:	004583bc 	.word	0x004583bc
  441154:	004583d0 	.word	0x004583d0

00441158 <displayUpgradeStats>:
{
  441158:	e92d 41f0 	stmdb	sp!, {r4, r5, r6, r7, r8, lr}
  44115c:	b086      	sub	sp, #24
    printf("{%s:{%s:\"%s\",%s:\"%s\",%s:%u,%s:{", CLI_STRING, COMMAND_STRING,         UPGRADE_CMD,
  44115e:	4b26      	ldr	r3, [pc, #152]	; (4411f8 <displayUpgradeStats+0xa0>)
  441160:	9304      	str	r3, [sp, #16]
  441162:	2300      	movs	r3, #0
  441164:	9303      	str	r3, [sp, #12]
  441166:	4b25      	ldr	r3, [pc, #148]	; (4411fc <displayUpgradeStats+0xa4>)
  441168:	9302      	str	r3, [sp, #8]
  44116a:	4b25      	ldr	r3, [pc, #148]	; (441200 <displayUpgradeStats+0xa8>)
  44116c:	699b      	ldr	r3, [r3, #24]
  44116e:	9301      	str	r3, [sp, #4]
  441170:	4b24      	ldr	r3, [pc, #144]	; (441204 <displayUpgradeStats+0xac>)
  441172:	9300      	str	r3, [sp, #0]
  441174:	4b24      	ldr	r3, [pc, #144]	; (441208 <displayUpgradeStats+0xb0>)
  441176:	4a25      	ldr	r2, [pc, #148]	; (44120c <displayUpgradeStats+0xb4>)
  441178:	4925      	ldr	r1, [pc, #148]	; (441210 <displayUpgradeStats+0xb8>)
  44117a:	4826      	ldr	r0, [pc, #152]	; (441214 <displayUpgradeStats+0xbc>)
  44117c:	4d26      	ldr	r5, [pc, #152]	; (441218 <displayUpgradeStats+0xc0>)
  44117e:	47a8      	blx	r5
    printf("%s:%lu,\"lastTick\":%lu,\"APP SIGNATURE ERASED\":%u,",  STATE_STRING, upgradeSmCb.state, upgradeSmCb.lastTick, upgradeSmCb.applicationSignatureErased);
  441180:	4c26      	ldr	r4, [pc, #152]	; (44121c <displayUpgradeStats+0xc4>)
  441182:	f894 3028 	ldrb.w	r3, [r4, #40]	; 0x28
  441186:	9300      	str	r3, [sp, #0]
  441188:	6863      	ldr	r3, [r4, #4]
  44118a:	6822      	ldr	r2, [r4, #0]
  44118c:	4924      	ldr	r1, [pc, #144]	; (441220 <displayUpgradeStats+0xc8>)
  44118e:	4825      	ldr	r0, [pc, #148]	; (441224 <displayUpgradeStats+0xcc>)
  441190:	47a8      	blx	r5
    printf("%s:\"", FLASH_ADDR_CRC_STRING);
  441192:	4925      	ldr	r1, [pc, #148]	; (441228 <displayUpgradeStats+0xd0>)
  441194:	4825      	ldr	r0, [pc, #148]	; (44122c <displayUpgradeStats+0xd4>)
  441196:	47a8      	blx	r5
        if (upgradeSmCb.flashStats[iggy].flashAddress == 0xFFFFFFFF) { break; }
  441198:	6c23      	ldr	r3, [r4, #64]	; 0x40
  44119a:	f1b3 3fff 	cmp.w	r3, #4294967295
  44119e:	d022      	beq.n	4411e6 <displayUpgradeStats+0x8e>
        printf("%lu/%lu:%08lX,%08lX,%08lX,%08lX ", iggy, upgradeSmCb.flashStatsBlockRank, upgradeSmCb.flashStats[iggy].flashAddress,
  4411a0:	4c1e      	ldr	r4, [pc, #120]	; (44121c <displayUpgradeStats+0xc4>)
  4411a2:	6ce2      	ldr	r2, [r4, #76]	; 0x4c
  4411a4:	9202      	str	r2, [sp, #8]
  4411a6:	6ca2      	ldr	r2, [r4, #72]	; 0x48
  4411a8:	9201      	str	r2, [sp, #4]
  4411aa:	6c62      	ldr	r2, [r4, #68]	; 0x44
  4411ac:	9200      	str	r2, [sp, #0]
  4411ae:	6be2      	ldr	r2, [r4, #60]	; 0x3c
  4411b0:	2100      	movs	r1, #0
  4411b2:	481f      	ldr	r0, [pc, #124]	; (441230 <displayUpgradeStats+0xd8>)
  4411b4:	4d18      	ldr	r5, [pc, #96]	; (441218 <displayUpgradeStats+0xc0>)
  4411b6:	47a8      	blx	r5
    for (iggy = 0; iggy < MAX_FLASH_BLOCKS_WRITE_FOR_STATS; iggy++) {
  4411b8:	2501      	movs	r5, #1
        printf("%lu/%lu:%08lX,%08lX,%08lX,%08lX ", iggy, upgradeSmCb.flashStatsBlockRank, upgradeSmCb.flashStats[iggy].flashAddress,
  4411ba:	46a0      	mov	r8, r4
  4411bc:	4f1c      	ldr	r7, [pc, #112]	; (441230 <displayUpgradeStats+0xd8>)
  4411be:	4e16      	ldr	r6, [pc, #88]	; (441218 <displayUpgradeStats+0xc0>)
        if (upgradeSmCb.flashStats[iggy].flashAddress == 0xFFFFFFFF) { break; }
  4411c0:	6d23      	ldr	r3, [r4, #80]	; 0x50
  4411c2:	f1b3 3fff 	cmp.w	r3, #4294967295
  4411c6:	d00e      	beq.n	4411e6 <displayUpgradeStats+0x8e>
        printf("%lu/%lu:%08lX,%08lX,%08lX,%08lX ", iggy, upgradeSmCb.flashStatsBlockRank, upgradeSmCb.flashStats[iggy].flashAddress,
  4411c8:	6de2      	ldr	r2, [r4, #92]	; 0x5c
  4411ca:	9202      	str	r2, [sp, #8]
  4411cc:	6da2      	ldr	r2, [r4, #88]	; 0x58
  4411ce:	9201      	str	r2, [sp, #4]
  4411d0:	6d62      	ldr	r2, [r4, #84]	; 0x54
  4411d2:	9200      	str	r2, [sp, #0]
  4411d4:	f8d8 203c 	ldr.w	r2, [r8, #60]	; 0x3c
  4411d8:	4629      	mov	r1, r5
  4411da:	4638      	mov	r0, r7
  4411dc:	47b0      	blx	r6
    for (iggy = 0; iggy < MAX_FLASH_BLOCKS_WRITE_FOR_STATS; iggy++) {
  4411de:	3501      	adds	r5, #1
  4411e0:	3410      	adds	r4, #16
  4411e2:	2d14      	cmp	r5, #20
  4411e4:	d1ec      	bne.n	4411c0 <displayUpgradeStats+0x68>
    printf("\"},%s:%s}}\r\n", RESULT_STRING, SUCCESS_STRING);
  4411e6:	4a13      	ldr	r2, [pc, #76]	; (441234 <displayUpgradeStats+0xdc>)
  4411e8:	4913      	ldr	r1, [pc, #76]	; (441238 <displayUpgradeStats+0xe0>)
  4411ea:	4814      	ldr	r0, [pc, #80]	; (44123c <displayUpgradeStats+0xe4>)
  4411ec:	4b0a      	ldr	r3, [pc, #40]	; (441218 <displayUpgradeStats+0xc0>)
  4411ee:	4798      	blx	r3
}
  4411f0:	b006      	add	sp, #24
  4411f2:	e8bd 81f0 	ldmia.w	sp!, {r4, r5, r6, r7, r8, pc}
  4411f6:	bf00      	nop
  4411f8:	0045a3d4 	.word	0x0045a3d4
  4411fc:	00458d08 	.word	0x00458d08
  441200:	2040008c 	.word	0x2040008c
  441204:	0045889c 	.word	0x0045889c
  441208:	0045aa00 	.word	0x0045aa00
  44120c:	00458d24 	.word	0x00458d24
  441210:	00458cf8 	.word	0x00458cf8
  441214:	00458440 	.word	0x00458440
  441218:	0045206d 	.word	0x0045206d
  44121c:	20402aa4 	.word	0x20402aa4
  441220:	0045a7fc 	.word	0x0045a7fc
  441224:	00458460 	.word	0x00458460
  441228:	00459544 	.word	0x00459544
  44122c:	00458494 	.word	0x00458494
  441230:	0045849c 	.word	0x0045849c
  441234:	0045a8c0 	.word	0x0045a8c0
  441238:	0045a3e0 	.word	0x0045a3e0
  44123c:	004584c0 	.word	0x004584c0

00441240 <displayUpgradeStateMachineInfo>:
{
  441240:	b508      	push	{r3, lr}
    printf("%s:%s", UPGRADE_STATE_MACHINE_STRING, UPGRADE_SM_STATE_STRING_LOOKUP[upgradeSmCb.state]);
  441242:	4b05      	ldr	r3, [pc, #20]	; (441258 <displayUpgradeStateMachineInfo+0x18>)
  441244:	681a      	ldr	r2, [r3, #0]
  441246:	4b05      	ldr	r3, [pc, #20]	; (44125c <displayUpgradeStateMachineInfo+0x1c>)
  441248:	f853 2022 	ldr.w	r2, [r3, r2, lsl #2]
  44124c:	4904      	ldr	r1, [pc, #16]	; (441260 <displayUpgradeStateMachineInfo+0x20>)
  44124e:	4805      	ldr	r0, [pc, #20]	; (441264 <displayUpgradeStateMachineInfo+0x24>)
  441250:	4b05      	ldr	r3, [pc, #20]	; (441268 <displayUpgradeStateMachineInfo+0x28>)
  441252:	4798      	blx	r3
  441254:	bd08      	pop	{r3, pc}
  441256:	bf00      	nop
  441258:	20402aa4 	.word	0x20402aa4
  44125c:	20400158 	.word	0x20400158
  441260:	0045aa20 	.word	0x0045aa20
  441264:	00458438 	.word	0x00458438
  441268:	0045206d 	.word	0x0045206d

0044126c <isUpgradeStateMachineIdle>:
    if (upgradeSmCb.state == SM_IDLE_STATE) { return TRUE;  }
  44126c:	4b03      	ldr	r3, [pc, #12]	; (44127c <isUpgradeStateMachineIdle+0x10>)
  44126e:	6818      	ldr	r0, [r3, #0]
}
  441270:	2801      	cmp	r0, #1
  441272:	bf14      	ite	ne
  441274:	2000      	movne	r0, #0
  441276:	2001      	moveq	r0, #1
  441278:	4770      	bx	lr
  44127a:	bf00      	nop
  44127c:	20402aa4 	.word	0x20402aa4

00441280 <calculateHoldingBlockCrc>:
{
  441280:	b508      	push	{r3, lr}
    return calcCrc32Checksum(seed, (U8 *)&flashHoldingBuffer[0], MAX_FLASH_HOLDING_BLOCK_BYTES);
  441282:	f44f 5200 	mov.w	r2, #8192	; 0x2000
  441286:	4902      	ldr	r1, [pc, #8]	; (441290 <calculateHoldingBlockCrc+0x10>)
  441288:	2000      	movs	r0, #0
  44128a:	4b02      	ldr	r3, [pc, #8]	; (441294 <calculateHoldingBlockCrc+0x14>)
  44128c:	4798      	blx	r3
}
  44128e:	bd08      	pop	{r3, pc}
  441290:	20402c24 	.word	0x20402c24
  441294:	0044c811 	.word	0x0044c811

00441298 <isCommitHoldingBufferToFlash>:
{
  441298:	b5f8      	push	{r3, r4, r5, r6, r7, lr}
  44129a:	4604      	mov	r4, r0
  44129c:	460e      	mov	r6, r1
    upgradeSmCb.flashStats[upgradeSmCb.flashStatsBlockRank].holdingBlockCrc = calculateHoldingBlockCrc();
  44129e:	4d24      	ldr	r5, [pc, #144]	; (441330 <isCommitHoldingBufferToFlash+0x98>)
  4412a0:	6bef      	ldr	r7, [r5, #60]	; 0x3c
  4412a2:	4b24      	ldr	r3, [pc, #144]	; (441334 <isCommitHoldingBufferToFlash+0x9c>)
  4412a4:	4798      	blx	r3
  4412a6:	eb05 1507 	add.w	r5, r5, r7, lsl #4
  4412aa:	64a8      	str	r0, [r5, #72]	; 0x48
    baseFlashAddress = flashSegmentAddress - IFLASH_ADDR;
  4412ac:	f5a4 0480 	sub.w	r4, r4, #4194304	; 0x400000
    if (writeHoldingBlockToFlash(baseFlashAddress)) {
  4412b0:	4620      	mov	r0, r4
  4412b2:	4b21      	ldr	r3, [pc, #132]	; (441338 <isCommitHoldingBufferToFlash+0xa0>)
  4412b4:	4798      	blx	r3
  4412b6:	4605      	mov	r5, r0
  4412b8:	b950      	cbnz	r0, 4412d0 <isCommitHoldingBufferToFlash+0x38>
    upgradeSmCb.flashStats[upgradeSmCb.flashStatsBlockRank].flashAddress     = baseFlashAddress;
  4412ba:	4b1d      	ldr	r3, [pc, #116]	; (441330 <isCommitHoldingBufferToFlash+0x98>)
  4412bc:	6bda      	ldr	r2, [r3, #60]	; 0x3c
  4412be:	1d11      	adds	r1, r2, #4
  4412c0:	0109      	lsls	r1, r1, #4
  4412c2:	1858      	adds	r0, r3, r1
  4412c4:	505c      	str	r4, [r3, r1]
    upgradeSmCb.flashStats[upgradeSmCb.flashStatsBlockRank].blockSizeWritten = numberOfLongsToWrite;
  4412c6:	6046      	str	r6, [r0, #4]
    upgradeSmCb.flashStatsBlockRank++;
  4412c8:	3201      	adds	r2, #1
  4412ca:	63da      	str	r2, [r3, #60]	; 0x3c
}
  4412cc:	4628      	mov	r0, r5
  4412ce:	bdf8      	pop	{r3, r4, r5, r6, r7, pc}
        eraseFlashHoldingBuffer();
  4412d0:	4b1a      	ldr	r3, [pc, #104]	; (44133c <isCommitHoldingBufferToFlash+0xa4>)
  4412d2:	4798      	blx	r3
        upgradeSmCb.longsWrittenToHoldingBuffer = 0;
  4412d4:	2200      	movs	r2, #0
  4412d6:	4b16      	ldr	r3, [pc, #88]	; (441330 <isCommitHoldingBufferToFlash+0x98>)
  4412d8:	635a      	str	r2, [r3, #52]	; 0x34
        if (readFlashToHoldingBlock(baseFlashAddress)) {
  4412da:	4620      	mov	r0, r4
  4412dc:	4b18      	ldr	r3, [pc, #96]	; (441340 <isCommitHoldingBufferToFlash+0xa8>)
  4412de:	4798      	blx	r3
  4412e0:	4605      	mov	r5, r0
  4412e2:	2800      	cmp	r0, #0
  4412e4:	d0e9      	beq.n	4412ba <isCommitHoldingBufferToFlash+0x22>
            upgradeSmCb.flashStats[upgradeSmCb.flashStatsBlockRank].flashBlockCrc = calculateHoldingBlockCrc();
  4412e6:	4d12      	ldr	r5, [pc, #72]	; (441330 <isCommitHoldingBufferToFlash+0x98>)
  4412e8:	6bef      	ldr	r7, [r5, #60]	; 0x3c
  4412ea:	4b12      	ldr	r3, [pc, #72]	; (441334 <isCommitHoldingBufferToFlash+0x9c>)
  4412ec:	4798      	blx	r3
  4412ee:	eb05 1707 	add.w	r7, r5, r7, lsl #4
  4412f2:	64f8      	str	r0, [r7, #76]	; 0x4c
            if (upgradeSmCb.flashStats[upgradeSmCb.flashStatsBlockRank].holdingBlockCrc == upgradeSmCb.flashStats[upgradeSmCb.flashStatsBlockRank].flashBlockCrc) {
  4412f4:	6beb      	ldr	r3, [r5, #60]	; 0x3c
  4412f6:	eb05 1503 	add.w	r5, r5, r3, lsl #4
  4412fa:	6ca9      	ldr	r1, [r5, #72]	; 0x48
  4412fc:	6ceb      	ldr	r3, [r5, #76]	; 0x4c
  4412fe:	4299      	cmp	r1, r3
  441300:	d00b      	beq.n	44131a <isCommitHoldingBufferToFlash+0x82>
                printToDebugPort(DEBUG_FLASH_HOLD_CRC_FAILED_STRING,  upgradeSmCb.flashStats[upgradeSmCb.flashStatsBlockRank].holdingBlockCrc);
  441302:	4810      	ldr	r0, [pc, #64]	; (441344 <isCommitHoldingBufferToFlash+0xac>)
  441304:	4d10      	ldr	r5, [pc, #64]	; (441348 <isCommitHoldingBufferToFlash+0xb0>)
  441306:	47a8      	blx	r5
                printToDebugPort(DEBUG_FLASH_FLASH_CRC_FAILED_STRING, upgradeSmCb.flashStats[upgradeSmCb.flashStatsBlockRank].flashBlockCrc);
  441308:	4b09      	ldr	r3, [pc, #36]	; (441330 <isCommitHoldingBufferToFlash+0x98>)
  44130a:	6bda      	ldr	r2, [r3, #60]	; 0x3c
  44130c:	eb03 1302 	add.w	r3, r3, r2, lsl #4
  441310:	6cd9      	ldr	r1, [r3, #76]	; 0x4c
  441312:	480e      	ldr	r0, [pc, #56]	; (44134c <isCommitHoldingBufferToFlash+0xb4>)
  441314:	47a8      	blx	r5
    BOOL commitResult = FALSE;
  441316:	2500      	movs	r5, #0
  441318:	e7cf      	b.n	4412ba <isCommitHoldingBufferToFlash+0x22>
                printToDebugPort(DEBUG_COMMIT_HOLD_TO_FLASH_STRING,upgradeSmCb.flashStats[upgradeSmCb.flashStatsBlockRank].flashBlockCrc);
  44131a:	480d      	ldr	r0, [pc, #52]	; (441350 <isCommitHoldingBufferToFlash+0xb8>)
  44131c:	4b0a      	ldr	r3, [pc, #40]	; (441348 <isCommitHoldingBufferToFlash+0xb0>)
  44131e:	4798      	blx	r3
                eraseFlashHoldingBuffer();
  441320:	4b06      	ldr	r3, [pc, #24]	; (44133c <isCommitHoldingBufferToFlash+0xa4>)
  441322:	4798      	blx	r3
                upgradeSmCb.longsWrittenToHoldingBuffer = 0;
  441324:	2200      	movs	r2, #0
  441326:	4b02      	ldr	r3, [pc, #8]	; (441330 <isCommitHoldingBufferToFlash+0x98>)
  441328:	635a      	str	r2, [r3, #52]	; 0x34
                commitResult = TRUE;
  44132a:	2501      	movs	r5, #1
  44132c:	e7c5      	b.n	4412ba <isCommitHoldingBufferToFlash+0x22>
  44132e:	bf00      	nop
  441330:	20402aa4 	.word	0x20402aa4
  441334:	00441281 	.word	0x00441281
  441338:	00440ef5 	.word	0x00440ef5
  44133c:	00440979 	.word	0x00440979
  441340:	00440d8d 	.word	0x00440d8d
  441344:	00458254 	.word	0x00458254
  441348:	004409a9 	.word	0x004409a9
  44134c:	00458230 	.word	0x00458230
  441350:	0045819c 	.word	0x0045819c

00441354 <upgradeStateMachine>:
//
//
//
//
void upgradeStateMachine(U32 command, char *pXferData)
{
  441354:	e92d 4ff0 	stmdb	sp!, {r4, r5, r6, r7, r8, r9, sl, fp, lr}
  441358:	b095      	sub	sp, #84	; 0x54
    upgradeSmCb.commandArg = command; 
  44135a:	4ba0      	ldr	r3, [pc, #640]	; (4415dc <upgradeStateMachine+0x288>)
  44135c:	6198      	str	r0, [r3, #24]

    switch (upgradeSmCb.state) {
  44135e:	681b      	ldr	r3, [r3, #0]
  441360:	3b01      	subs	r3, #1
  441362:	2b03      	cmp	r3, #3
  441364:	f200 8291 	bhi.w	44188a <upgradeStateMachine+0x536>
  441368:	e8df f013 	tbh	[pc, r3, lsl #1]
  44136c:	00340004 	.word	0x00340004
  441370:	0258023c 	.word	0x0258023c
        case SM_IDLE_STATE:
            // Only the start" command is valid in this state.
            if (command == UPGRADE_COMMAND_START) {
  441374:	2801      	cmp	r0, #1
  441376:	d010      	beq.n	44139a <upgradeStateMachine+0x46>
                initUpgradeSmData(LAST_UPGRADE_RESULT_IN_PROGRESS);
                upgradeSmCb.commandArg = command; 
                printUpgradeResponse(HRC_START_ACK);
                printToDebugPort(DEBUG_UPGRADE_START_NOTICE_STRING, 0);
                upgradeSmCb.state = SM_WAIT_DATA_PACKET_STATE;
            } else if (command == UPGRADE_COMMAND_CANCEL) {
  441378:	2805      	cmp	r0, #5
  44137a:	d01d      	beq.n	4413b8 <upgradeStateMachine+0x64>
                printUpgradeResponse(HRC_CANCEL_IDLE_STATE_ACK);
                setUpgradeSmIdle(LAST_UPGRADE_RESULT_CANCELLED);

            } else if (command == UPGRADE_COMMAND_COMMIT) {
  44137c:	2804      	cmp	r0, #4
  44137e:	d022      	beq.n	4413c6 <upgradeStateMachine+0x72>
                // This is the last command sent when a "good" upgrade is complete and successful.
                
                printUpgradeResponse(HRC_CANCEL_IDLE_STATE_ACK);
                setUpgradeSmIdle(LAST_UPGRADE_RESULT_CANCELLED);
            } else {
                printUpgradeResponse(HRC_INVAL_CMD_IDLE_STATE);
  441380:	200f      	movs	r0, #15
  441382:	4b97      	ldr	r3, [pc, #604]	; (4415e0 <upgradeStateMachine+0x28c>)
  441384:	4798      	blx	r3
                setUpgradeSmIdle(LAST_UPGRADE_RESULT_GENERIC_FAILED);
  441386:	2006      	movs	r0, #6
  441388:	4b96      	ldr	r3, [pc, #600]	; (4415e4 <upgradeStateMachine+0x290>)
  44138a:	4798      	blx	r3
            }
            upgradeSmCb.lastTick = g_ul_ms_ticks;
  44138c:	4b96      	ldr	r3, [pc, #600]	; (4415e8 <upgradeStateMachine+0x294>)
  44138e:	681a      	ldr	r2, [r3, #0]
  441390:	4b92      	ldr	r3, [pc, #584]	; (4415dc <upgradeStateMachine+0x288>)
  441392:	605a      	str	r2, [r3, #4]
            // Absolutely no good reason for coming here. Just bad ones.
            printUpgradeResponse(HRC_INVAL_STATE_MACHINE_COMMAND);
            setUpgradeSmIdle(LAST_UPGRADE_RESULT_GENERIC_FAILED);
            break;
    }
}
  441394:	b015      	add	sp, #84	; 0x54
  441396:	e8bd 8ff0 	ldmia.w	sp!, {r4, r5, r6, r7, r8, r9, sl, fp, pc}
                initUpgradeSmData(LAST_UPGRADE_RESULT_IN_PROGRESS);
  44139a:	2003      	movs	r0, #3
  44139c:	4b93      	ldr	r3, [pc, #588]	; (4415ec <upgradeStateMachine+0x298>)
  44139e:	4798      	blx	r3
                upgradeSmCb.commandArg = command; 
  4413a0:	4c8e      	ldr	r4, [pc, #568]	; (4415dc <upgradeStateMachine+0x288>)
  4413a2:	2001      	movs	r0, #1
  4413a4:	61a0      	str	r0, [r4, #24]
                printUpgradeResponse(HRC_START_ACK);
  4413a6:	4b8e      	ldr	r3, [pc, #568]	; (4415e0 <upgradeStateMachine+0x28c>)
  4413a8:	4798      	blx	r3
                printToDebugPort(DEBUG_UPGRADE_START_NOTICE_STRING, 0);
  4413aa:	2100      	movs	r1, #0
  4413ac:	4890      	ldr	r0, [pc, #576]	; (4415f0 <upgradeStateMachine+0x29c>)
  4413ae:	4b91      	ldr	r3, [pc, #580]	; (4415f4 <upgradeStateMachine+0x2a0>)
  4413b0:	4798      	blx	r3
                upgradeSmCb.state = SM_WAIT_DATA_PACKET_STATE;
  4413b2:	2302      	movs	r3, #2
  4413b4:	6023      	str	r3, [r4, #0]
  4413b6:	e7e9      	b.n	44138c <upgradeStateMachine+0x38>
                printUpgradeResponse(HRC_CANCEL_IDLE_STATE_ACK);
  4413b8:	2008      	movs	r0, #8
  4413ba:	4b89      	ldr	r3, [pc, #548]	; (4415e0 <upgradeStateMachine+0x28c>)
  4413bc:	4798      	blx	r3
                setUpgradeSmIdle(LAST_UPGRADE_RESULT_CANCELLED);
  4413be:	2005      	movs	r0, #5
  4413c0:	4b88      	ldr	r3, [pc, #544]	; (4415e4 <upgradeStateMachine+0x290>)
  4413c2:	4798      	blx	r3
  4413c4:	e7e2      	b.n	44138c <upgradeStateMachine+0x38>
                printUpgradeResponse(HRC_CANCEL_IDLE_STATE_ACK);
  4413c6:	2008      	movs	r0, #8
  4413c8:	4b85      	ldr	r3, [pc, #532]	; (4415e0 <upgradeStateMachine+0x28c>)
  4413ca:	4798      	blx	r3
                setUpgradeSmIdle(LAST_UPGRADE_RESULT_CANCELLED);
  4413cc:	2005      	movs	r0, #5
  4413ce:	4b85      	ldr	r3, [pc, #532]	; (4415e4 <upgradeStateMachine+0x290>)
  4413d0:	4798      	blx	r3
  4413d2:	e7db      	b.n	44138c <upgradeStateMachine+0x38>
  4413d4:	460d      	mov	r5, r1
            if (command == UPGRADE_COMMAND_DATA) {
  4413d6:	2802      	cmp	r0, #2
  4413d8:	d00d      	beq.n	4413f6 <upgradeStateMachine+0xa2>
            } else if (command == UPGRADE_COMMAND_CANCEL) {
  4413da:	2805      	cmp	r0, #5
  4413dc:	f000 81fc 	beq.w	4417d8 <upgradeStateMachine+0x484>
                printUpgradeResponse(HRC_INVAL_CMD_NEXT_DATA_PKT_STATE);
  4413e0:	2010      	movs	r0, #16
  4413e2:	4b7f      	ldr	r3, [pc, #508]	; (4415e0 <upgradeStateMachine+0x28c>)
  4413e4:	4798      	blx	r3
                setUpgradeSmIdle(LAST_UPGRADE_RESULT_GENERIC_FAILED);
  4413e6:	2006      	movs	r0, #6
  4413e8:	4b7e      	ldr	r3, [pc, #504]	; (4415e4 <upgradeStateMachine+0x290>)
  4413ea:	4798      	blx	r3
            upgradeSmCb.lastTick = g_ul_ms_ticks;
  4413ec:	4b7e      	ldr	r3, [pc, #504]	; (4415e8 <upgradeStateMachine+0x294>)
  4413ee:	681a      	ldr	r2, [r3, #0]
  4413f0:	4b7a      	ldr	r3, [pc, #488]	; (4415dc <upgradeStateMachine+0x288>)
  4413f2:	605a      	str	r2, [r3, #4]
            break;
  4413f4:	e7ce      	b.n	441394 <upgradeStateMachine+0x40>
    upgradeSmCb.currentHexRecordLength = strlen(pXferData);
  4413f6:	4608      	mov	r0, r1
  4413f8:	4b7f      	ldr	r3, [pc, #508]	; (4415f8 <upgradeStateMachine+0x2a4>)
  4413fa:	4798      	blx	r3
  4413fc:	4b77      	ldr	r3, [pc, #476]	; (4415dc <upgradeStateMachine+0x288>)
  4413fe:	6098      	str	r0, [r3, #8]
    memset(&pOneRecordString[0], 0, (MAX_HEX_RECORD_STRING_LENGTH + 1));
  441400:	222c      	movs	r2, #44	; 0x2c
  441402:	2100      	movs	r1, #0
  441404:	a809      	add	r0, sp, #36	; 0x24
  441406:	4b7d      	ldr	r3, [pc, #500]	; (4415fc <upgradeStateMachine+0x2a8>)
  441408:	4798      	blx	r3
  44140a:	3d01      	subs	r5, #1
    U32  pop = 0;
  44140c:	2200      	movs	r2, #0
    BOOL firstRecordOfPacket = TRUE;
  44140e:	f04f 0801 	mov.w	r8, #1
    for (iggy = 0; iggy <= upgradeSmCb.currentHexRecordLength; iggy++) {
  441412:	4617      	mov	r7, r2
            oneRecordStringLength = strlen(pOneRecordString);
  441414:	f8df b1e0 	ldr.w	fp, [pc, #480]	; 4415f8 <upgradeStateMachine+0x2a4>
        upgradeSmCb.hexRecordType            = pHexRecordByteArray[HR_RECORD_TYPE_RANK];
  441418:	4e70      	ldr	r6, [pc, #448]	; (4415dc <upgradeStateMachine+0x288>)
  44141a:	e1b7      	b.n	44178c <upgradeStateMachine+0x438>
                printUpgradeResponse(HRC_XFER_COMPONENT_MISSING_COLON);
  44141c:	200d      	movs	r0, #13
  44141e:	4b70      	ldr	r3, [pc, #448]	; (4415e0 <upgradeStateMachine+0x28c>)
  441420:	4798      	blx	r3
                printToDebugPort(DEBUG_COLON_MISSING_STRING, upgradeSmCb.currentHexRecordLength);
  441422:	4b6e      	ldr	r3, [pc, #440]	; (4415dc <upgradeStateMachine+0x288>)
  441424:	6899      	ldr	r1, [r3, #8]
  441426:	4876      	ldr	r0, [pc, #472]	; (441600 <upgradeStateMachine+0x2ac>)
  441428:	4b72      	ldr	r3, [pc, #456]	; (4415f4 <upgradeStateMachine+0x2a0>)
  44142a:	4798      	blx	r3
  44142c:	e05e      	b.n	4414ec <upgradeStateMachine+0x198>
                printUpgradeResponse(HRC_XFER_PACKET_COMPONENT_TOO_LONG);
  44142e:	2012      	movs	r0, #18
  441430:	4b6b      	ldr	r3, [pc, #428]	; (4415e0 <upgradeStateMachine+0x28c>)
  441432:	4798      	blx	r3
  441434:	e05a      	b.n	4414ec <upgradeStateMachine+0x198>
    for (iggy = 1; iggy < componentLength; iggy+=2) {
  441436:	2400      	movs	r4, #0
  441438:	e031      	b.n	44149e <upgradeStateMachine+0x14a>
                printUpgradeResponse(HRC_XFER_COMPONENT_EVEN_LENGTH);
  44143a:	200c      	movs	r0, #12
  44143c:	4b68      	ldr	r3, [pc, #416]	; (4415e0 <upgradeStateMachine+0x28c>)
  44143e:	4798      	blx	r3
  441440:	e054      	b.n	4414ec <upgradeStateMachine+0x198>
    if      ((thisChar >= 0x30) && (thisChar <= 0x39)) { hexValue = thisChar & 0x0F;       } // 0..9 = 0x30..0x39
  441442:	f003 0c0f 	and.w	ip, r3, #15
        byte1Value        = charToHex(pComponentString[iggy + 1]);
  441446:	f899 3002 	ldrb.w	r3, [r9, #2]
    if      ((thisChar >= 0x30) && (thisChar <= 0x39)) { hexValue = thisChar & 0x0F;       } // 0..9 = 0x30..0x39
  44144a:	f1a3 0930 	sub.w	r9, r3, #48	; 0x30
  44144e:	fa5f f989 	uxtb.w	r9, r9
  441452:	f1b9 0f09 	cmp.w	r9, #9
  441456:	f003 030f 	and.w	r3, r3, #15
    else                                               { hexValue = (thisChar & 0x0F) + 9; } // A..F = 0x41..0x46 or a..f = 0x61..0x66
  44145a:	bf88      	it	hi
  44145c:	3309      	addhi	r3, #9
        pByteArray[pop++] = (byte0Value << 4) + byte1Value;
  44145e:	eb03 130c 	add.w	r3, r3, ip, lsl #4
  441462:	f802 3b01 	strb.w	r3, [r2], #1
  441466:	f10e 0e02 	add.w	lr, lr, #2
    for (iggy = 1; iggy < componentLength; iggy+=2) {
  44146a:	4290      	cmp	r0, r2
  44146c:	d00e      	beq.n	44148c <upgradeStateMachine+0x138>
  44146e:	46f1      	mov	r9, lr
        byte0Value        = charToHex(pComponentString[iggy]);
  441470:	f89e 3001 	ldrb.w	r3, [lr, #1]
    if      ((thisChar >= 0x30) && (thisChar <= 0x39)) { hexValue = thisChar & 0x0F;       } // 0..9 = 0x30..0x39
  441474:	f1a3 0c30 	sub.w	ip, r3, #48	; 0x30
  441478:	fa5f fc8c 	uxtb.w	ip, ip
  44147c:	f1bc 0f09 	cmp.w	ip, #9
  441480:	d9df      	bls.n	441442 <upgradeStateMachine+0xee>
    else                                               { hexValue = (thisChar & 0x0F) + 9; } // A..F = 0x41..0x46 or a..f = 0x61..0x66
  441482:	f003 030f 	and.w	r3, r3, #15
  441486:	f103 0c09 	add.w	ip, r3, #9
  44148a:	e7dc      	b.n	441446 <upgradeStateMachine+0xf2>
    for (iggy = 0; iggy < numberOfConvertedBytes; iggy++) {
  44148c:	b13c      	cbz	r4, 44149e <upgradeStateMachine+0x14a>
  44148e:	2300      	movs	r3, #0
        checksum += pByteArray[iggy];
  441490:	f811 0b01 	ldrb.w	r0, [r1], #1
  441494:	4403      	add	r3, r0
  441496:	b2db      	uxtb	r3, r3
    for (iggy = 0; iggy < numberOfConvertedBytes; iggy++) {
  441498:	4291      	cmp	r1, r2
  44149a:	d1f9      	bne.n	441490 <upgradeStateMachine+0x13c>
    if (checksum != 0) {
  44149c:	b9fb      	cbnz	r3, 4414de <upgradeStateMachine+0x18a>
        upgradeSmCb.hexRecordType            = pHexRecordByteArray[HR_RECORD_TYPE_RANK];
  44149e:	f89d 300f 	ldrb.w	r3, [sp, #15]
  4414a2:	60f3      	str	r3, [r6, #12]
        upgradeSmCb.hexRecordDataLength      = pHexRecordByteArray[HR_LENGTH_RANK];
  4414a4:	f89d 200c 	ldrb.w	r2, [sp, #12]
  4414a8:	6132      	str	r2, [r6, #16]
        upgradeSmCb.hexRecordChecksum        = pHexRecordByteArray[numberConvertedBytes - 1];
  4414aa:	f104 39ff 	add.w	r9, r4, #4294967295
  4414ae:	a914      	add	r1, sp, #80	; 0x50
  4414b0:	4449      	add	r1, r9
  4414b2:	f811 1c44 	ldrb.w	r1, [r1, #-68]
  4414b6:	82f1      	strh	r1, [r6, #22]
        upgradeSmCb.hexRecordRelativeAddress = (pHexRecordByteArray[HR_RELATIVE_ADDRESS_RANK] << 8) + (pHexRecordByteArray[HR_RELATIVE_ADDRESS_RANK + 1]);
  4414b8:	f89d 000d 	ldrb.w	r0, [sp, #13]
  4414bc:	f89d 100e 	ldrb.w	r1, [sp, #14]
  4414c0:	eb01 2100 	add.w	r1, r1, r0, lsl #8
  4414c4:	b289      	uxth	r1, r1
  4414c6:	82b1      	strh	r1, [r6, #20]
        switch (upgradeSmCb.hexRecordType) {
  4414c8:	2b05      	cmp	r3, #5
  4414ca:	f200 8137 	bhi.w	44173c <upgradeStateMachine+0x3e8>
  4414ce:	e8df f013 	tbh	[pc, r3, lsl #1]
  4414d2:	0011      	.short	0x0011
  4414d4:	013500ab 	.word	0x013500ab
  4414d8:	00c30135 	.word	0x00c30135
  4414dc:	0110      	.short	0x0110
        printUpgradeResponse(HRC_XFER_COMPONENT_CHECKSUM_FAIL);
  4414de:	200b      	movs	r0, #11
  4414e0:	4b3f      	ldr	r3, [pc, #252]	; (4415e0 <upgradeStateMachine+0x28c>)
  4414e2:	4798      	blx	r3
    if (!processResult) { printToDebugPort("I FAILED SOMEHOW\r\n", 0); }
  4414e4:	2100      	movs	r1, #0
  4414e6:	4847      	ldr	r0, [pc, #284]	; (441604 <upgradeStateMachine+0x2b0>)
  4414e8:	4b42      	ldr	r3, [pc, #264]	; (4415f4 <upgradeStateMachine+0x2a0>)
  4414ea:	4798      	blx	r3
                    setUpgradeSmIdle(LAST_UPGRADE_RESULT_GENERIC_FAILED); // retain all other info in case the upgrade command=info is received
  4414ec:	2006      	movs	r0, #6
  4414ee:	4b3d      	ldr	r3, [pc, #244]	; (4415e4 <upgradeStateMachine+0x290>)
  4414f0:	4798      	blx	r3
  4414f2:	e77b      	b.n	4413ec <upgradeStateMachine+0x98>
                if (upgradeSmCb.nextExpectedRecordType == HRT_DATA) {
  4414f4:	6a33      	ldr	r3, [r6, #32]
  4414f6:	2b00      	cmp	r3, #0
  4414f8:	d16c      	bne.n	4415d4 <upgradeStateMachine+0x280>
                    if ((upgradeSmCb.hexRecordDataLength % 4) == 0) {
  4414fa:	f012 0f03 	tst.w	r2, #3
  4414fe:	d165      	bne.n	4415cc <upgradeStateMachine+0x278>
                        if (upgradeSmCb.hexRecordRelativeAddress == upgradeSmCb.nextExpectedRelativeAddress) {
  441500:	6b33      	ldr	r3, [r6, #48]	; 0x30
  441502:	4299      	cmp	r1, r3
  441504:	d00e      	beq.n	441524 <upgradeStateMachine+0x1d0>
                        } else if (upgradeSmCb.hexRecordRelativeAddress == upgradeSmCb.lastPacketAddress) {
  441506:	6bb3      	ldr	r3, [r6, #56]	; 0x38
  441508:	4299      	cmp	r1, r3
  44150a:	d059      	beq.n	4415c0 <upgradeStateMachine+0x26c>
                            printUpgradeResponse(HRC_RELATIVE_ADDR_OUT_OF_SEQUENCE);
  44150c:	2019      	movs	r0, #25
  44150e:	4b34      	ldr	r3, [pc, #208]	; (4415e0 <upgradeStateMachine+0x28c>)
  441510:	4798      	blx	r3
                            printToDebugPort(DEBUG_RELATIVE_ADDR_OOS_STRING, ((upgradeSmCb.hexRecordRelativeAddress << 16) + upgradeSmCb.nextExpectedRelativeAddress));
  441512:	4b32      	ldr	r3, [pc, #200]	; (4415dc <upgradeStateMachine+0x288>)
  441514:	8a99      	ldrh	r1, [r3, #20]
  441516:	6b1b      	ldr	r3, [r3, #48]	; 0x30
  441518:	eb03 4101 	add.w	r1, r3, r1, lsl #16
  44151c:	483a      	ldr	r0, [pc, #232]	; (441608 <upgradeStateMachine+0x2b4>)
  44151e:	4b35      	ldr	r3, [pc, #212]	; (4415f4 <upgradeStateMachine+0x2a0>)
  441520:	4798      	blx	r3
  441522:	e7df      	b.n	4414e4 <upgradeStateMachine+0x190>
                            if (firstRecordOfPacket) { upgradeSmCb.lastPacketAddress = upgradeSmCb.hexRecordRelativeAddress; }
  441524:	f1b8 0f00 	cmp.w	r8, #0
  441528:	d000      	beq.n	44152c <upgradeStateMachine+0x1d8>
  44152a:	63b1      	str	r1, [r6, #56]	; 0x38
                            for (iggy = HR_DATA_START_RANK; iggy < (numberConvertedBytes - 1); iggy+=4) {
  44152c:	f1b9 0f04 	cmp.w	r9, #4
  441530:	f240 81dc 	bls.w	4418ec <upgradeStateMachine+0x598>
  441534:	f10d 080c 	add.w	r8, sp, #12
  441538:	f04f 0a04 	mov.w	sl, #4
  44153c:	e012      	b.n	441564 <upgradeStateMachine+0x210>
                                        printUpgradeResponse(HRC_INTERIM_HOLDING_BLOCK_COMMIT_FAIL);
  44153e:	201b      	movs	r0, #27
  441540:	4b27      	ldr	r3, [pc, #156]	; (4415e0 <upgradeStateMachine+0x28c>)
  441542:	4798      	blx	r3
                            printToDebugPort(DEBUG_WRITE_TO_HOLDING_STRING, (U32)upgradeSmCb.hexRecordRelativeAddress);
  441544:	8ab1      	ldrh	r1, [r6, #20]
  441546:	4831      	ldr	r0, [pc, #196]	; (44160c <upgradeStateMachine+0x2b8>)
  441548:	4b2a      	ldr	r3, [pc, #168]	; (4415f4 <upgradeStateMachine+0x2a0>)
  44154a:	4798      	blx	r3
    if (debugHexRecordOutputEnabled) {
  44154c:	4b30      	ldr	r3, [pc, #192]	; (441610 <upgradeStateMachine+0x2bc>)
  44154e:	781b      	ldrb	r3, [r3, #0]
  441550:	2b00      	cmp	r3, #0
  441552:	d0c7      	beq.n	4414e4 <upgradeStateMachine+0x190>
  441554:	e1d5      	b.n	441902 <upgradeStateMachine+0x5ae>
                            for (iggy = HR_DATA_START_RANK; iggy < (numberConvertedBytes - 1); iggy+=4) {
  441556:	f10a 0a04 	add.w	sl, sl, #4
  44155a:	f108 0804 	add.w	r8, r8, #4
  44155e:	45d1      	cmp	r9, sl
  441560:	f240 81c4 	bls.w	4418ec <upgradeStateMachine+0x598>
                                someLong = ((U32)pHexRecordByteArray[iggy+3] << 24) + (U32)(pHexRecordByteArray[iggy+2] << 16) + (U32)(pHexRecordByteArray[iggy+1] << 8) + (U32)pHexRecordByteArray[iggy];
  441564:	f898 2007 	ldrb.w	r2, [r8, #7]
  441568:	f898 3004 	ldrb.w	r3, [r8, #4]
  44156c:	eb03 6302 	add.w	r3, r3, r2, lsl #24
  441570:	f898 2006 	ldrb.w	r2, [r8, #6]
  441574:	eb03 4302 	add.w	r3, r3, r2, lsl #16
  441578:	f898 2005 	ldrb.w	r2, [r8, #5]
  44157c:	eb03 2302 	add.w	r3, r3, r2, lsl #8
                                flashHoldingBuffer[upgradeSmCb.longsWrittenToHoldingBuffer++] = someLong;
  441580:	6b71      	ldr	r1, [r6, #52]	; 0x34
  441582:	1c4a      	adds	r2, r1, #1
  441584:	6372      	str	r2, [r6, #52]	; 0x34
  441586:	4823      	ldr	r0, [pc, #140]	; (441614 <upgradeStateMachine+0x2c0>)
  441588:	f840 3021 	str.w	r3, [r0, r1, lsl #2]
                                upgradeSmCb.nextExpectedRelativeAddress += 4;
  44158c:	6b33      	ldr	r3, [r6, #48]	; 0x30
  44158e:	3304      	adds	r3, #4
  441590:	6333      	str	r3, [r6, #48]	; 0x30
                                if (upgradeSmCb.longsWrittenToHoldingBuffer >= MAX_FLASH_HOLDING_BLOCK_LONGS) {
  441592:	f5b2 6f00 	cmp.w	r2, #2048	; 0x800
  441596:	d3de      	bcc.n	441556 <upgradeStateMachine+0x202>
                                    printToDebugPort(DEBUG_HOLDING_TO_FLASH_STRING, (U32)upgradeSmCb.flashSegmentAddress);
  441598:	6af1      	ldr	r1, [r6, #44]	; 0x2c
  44159a:	481f      	ldr	r0, [pc, #124]	; (441618 <upgradeStateMachine+0x2c4>)
  44159c:	4b15      	ldr	r3, [pc, #84]	; (4415f4 <upgradeStateMachine+0x2a0>)
  44159e:	4798      	blx	r3
                                    if (isCommitHoldingBufferToFlash(upgradeSmCb.flashSegmentAddress, upgradeSmCb.longsWrittenToHoldingBuffer)) {
  4415a0:	6b71      	ldr	r1, [r6, #52]	; 0x34
  4415a2:	6af0      	ldr	r0, [r6, #44]	; 0x2c
  4415a4:	4b1d      	ldr	r3, [pc, #116]	; (44161c <upgradeStateMachine+0x2c8>)
  4415a6:	4798      	blx	r3
  4415a8:	9001      	str	r0, [sp, #4]
  4415aa:	2800      	cmp	r0, #0
  4415ac:	d0c7      	beq.n	44153e <upgradeStateMachine+0x1ea>
                                        eraseFlashHoldingBuffer();
  4415ae:	4b1c      	ldr	r3, [pc, #112]	; (441620 <upgradeStateMachine+0x2cc>)
  4415b0:	4798      	blx	r3
                                        upgradeSmCb.longsWrittenToHoldingBuffer = 0;
  4415b2:	2300      	movs	r3, #0
  4415b4:	6373      	str	r3, [r6, #52]	; 0x34
                                        upgradeSmCb.flashSegmentAddress += MAX_FLASH_HOLDING_BLOCK_BYTES;
  4415b6:	6af3      	ldr	r3, [r6, #44]	; 0x2c
  4415b8:	f503 5300 	add.w	r3, r3, #8192	; 0x2000
  4415bc:	62f3      	str	r3, [r6, #44]	; 0x2c
  4415be:	e7ca      	b.n	441556 <upgradeStateMachine+0x202>
                            upgradeSmCb.lastPacketAddress += upgradeSmCb.hexRecordDataLength;
  4415c0:	4413      	add	r3, r2
  4415c2:	63b3      	str	r3, [r6, #56]	; 0x38
                            printToDebugPort(DEBUG_RELATIVE_ADDR_RESEND_STRING, upgradeSmCb.hexRecordRelativeAddress);
  4415c4:	4817      	ldr	r0, [pc, #92]	; (441624 <upgradeStateMachine+0x2d0>)
  4415c6:	4b0b      	ldr	r3, [pc, #44]	; (4415f4 <upgradeStateMachine+0x2a0>)
  4415c8:	4798      	blx	r3
  4415ca:	e0bd      	b.n	441748 <upgradeStateMachine+0x3f4>
                        printUpgradeResponse(HRC_DATA_RECORD_NOT_WHOLE_LONGS);
  4415cc:	201a      	movs	r0, #26
  4415ce:	4b04      	ldr	r3, [pc, #16]	; (4415e0 <upgradeStateMachine+0x28c>)
  4415d0:	4798      	blx	r3
  4415d2:	e787      	b.n	4414e4 <upgradeStateMachine+0x190>
                    printUpgradeResponse(HRC_EXPECTED_DATA_RECORD);
  4415d4:	201f      	movs	r0, #31
  4415d6:	4b02      	ldr	r3, [pc, #8]	; (4415e0 <upgradeStateMachine+0x28c>)
  4415d8:	4798      	blx	r3
  4415da:	e783      	b.n	4414e4 <upgradeStateMachine+0x190>
  4415dc:	20402aa4 	.word	0x20402aa4
  4415e0:	00440a11 	.word	0x00440a11
  4415e4:	00440991 	.word	0x00440991
  4415e8:	20402a64 	.word	0x20402a64
  4415ec:	00440aad 	.word	0x00440aad
  4415f0:	00458350 	.word	0x00458350
  4415f4:	004409a9 	.word	0x004409a9
  4415f8:	004525c1 	.word	0x004525c1
  4415fc:	00452229 	.word	0x00452229
  441600:	00458188 	.word	0x00458188
  441604:	004585e0 	.word	0x004585e0
  441608:	004582f4 	.word	0x004582f4
  44160c:	00458420 	.word	0x00458420
  441610:	20404c25 	.word	0x20404c25
  441614:	20402c24 	.word	0x20402c24
  441618:	00458274 	.word	0x00458274
  44161c:	00441299 	.word	0x00441299
  441620:	00440979 	.word	0x00440979
  441624:	0045831c 	.word	0x0045831c
                if (upgradeSmCb.nextExpectedRecordType == HRT_END_OF_FILE) {
  441628:	6a33      	ldr	r3, [r6, #32]
  44162a:	2b01      	cmp	r3, #1
  44162c:	d003      	beq.n	441636 <upgradeStateMachine+0x2e2>
                    printUpgradeResponse(HRC_EXPECTED_END_OF_FILE_RECORD);
  44162e:	201e      	movs	r0, #30
  441630:	4b99      	ldr	r3, [pc, #612]	; (441898 <upgradeStateMachine+0x544>)
  441632:	4798      	blx	r3
  441634:	e756      	b.n	4414e4 <upgradeStateMachine+0x190>
                    if (memcmp(&pHexRecordByteArray[0], &END_OF_FILE_PACKET_DATA[0], END_OF_FILE_RECORD_LENGTH) == 0) {
  441636:	2205      	movs	r2, #5
  441638:	4998      	ldr	r1, [pc, #608]	; (44189c <upgradeStateMachine+0x548>)
  44163a:	a803      	add	r0, sp, #12
  44163c:	4b98      	ldr	r3, [pc, #608]	; (4418a0 <upgradeStateMachine+0x54c>)
  44163e:	4798      	blx	r3
  441640:	b930      	cbnz	r0, 441650 <upgradeStateMachine+0x2fc>
                        printToDebugPort(DEBUG_WAIT_FOR_END_COMMAND_STRING, 0);
  441642:	2100      	movs	r1, #0
  441644:	4897      	ldr	r0, [pc, #604]	; (4418a4 <upgradeStateMachine+0x550>)
  441646:	4b98      	ldr	r3, [pc, #608]	; (4418a8 <upgradeStateMachine+0x554>)
  441648:	4798      	blx	r3
                        upgradeSmCb.state = SM_WAIT_END_TRANSFER_STATE;
  44164a:	2303      	movs	r3, #3
  44164c:	6033      	str	r3, [r6, #0]
  44164e:	e07b      	b.n	441748 <upgradeStateMachine+0x3f4>
                        printUpgradeResponse(HRC_EOF_RECORD_INVALID_STRUCTURE);
  441650:	2018      	movs	r0, #24
  441652:	4b91      	ldr	r3, [pc, #580]	; (441898 <upgradeStateMachine+0x544>)
  441654:	4798      	blx	r3
  441656:	e745      	b.n	4414e4 <upgradeStateMachine+0x190>
                if ((upgradeSmCb.nextExpectedRecordType == HRT_EXTENDED_SEGMENT_ADDRESS) || (upgradeSmCb.nextExpectedRecordType == HRT_DATA)) {
  441658:	6a33      	ldr	r3, [r6, #32]
  44165a:	f033 0304 	bics.w	r3, r3, #4
  44165e:	d144      	bne.n	4416ea <upgradeStateMachine+0x396>
                    upgradeSmCb.nextExpectedRecordType = HRT_DATA;
  441660:	2300      	movs	r3, #0
  441662:	6233      	str	r3, [r6, #32]
                    if (upgradeSmCb.hexRecordDataLength == SEGMENT_ADDRESS_DATA_LENGTH) {
  441664:	2a02      	cmp	r2, #2
  441666:	d003      	beq.n	441670 <upgradeStateMachine+0x31c>
                        printUpgradeResponse(HRC_SEG_ADDR_INVALID_LENGTH);
  441668:	2015      	movs	r0, #21
  44166a:	4b8b      	ldr	r3, [pc, #556]	; (441898 <upgradeStateMachine+0x544>)
  44166c:	4798      	blx	r3
  44166e:	e739      	b.n	4414e4 <upgradeStateMachine+0x190>
                        if (upgradeSmCb.hexRecordRelativeAddress == 0x00) {
  441670:	2900      	cmp	r1, #0
  441672:	d136      	bne.n	4416e2 <upgradeStateMachine+0x38e>
                            if (upgradeSmCb.longsWrittenToHoldingBuffer == 0) {
  441674:	6b73      	ldr	r3, [r6, #52]	; 0x34
  441676:	2b00      	cmp	r3, #0
  441678:	d12f      	bne.n	4416da <upgradeStateMachine+0x386>
                                someFlashAddress = (pHexRecordByteArray[HR_DATA_START_RANK] << 8) + pHexRecordByteArray[HR_DATA_START_RANK + 1];
  44167a:	f89d 3010 	ldrb.w	r3, [sp, #16]
  44167e:	f89d 1011 	ldrb.w	r1, [sp, #17]
  441682:	eb01 2103 	add.w	r1, r1, r3, lsl #8
                                upgradeSmCb.flashSegmentAddress = (someFlashAddress << 16 ) + upgradeSmCb.hexRecordRelativeAddress;
  441686:	0409      	lsls	r1, r1, #16
  441688:	62f1      	str	r1, [r6, #44]	; 0x2c
                                upgradeSmCb.nextExpectedRelativeAddress = 0x00;
  44168a:	2300      	movs	r3, #0
  44168c:	6333      	str	r3, [r6, #48]	; 0x30
                                printToDebugPort(DEBUG_EXT_SEGMENT_ADDRESS_STRING, (U32)upgradeSmCb.flashSegmentAddress);
  44168e:	4887      	ldr	r0, [pc, #540]	; (4418ac <upgradeStateMachine+0x558>)
  441690:	4b85      	ldr	r3, [pc, #532]	; (4418a8 <upgradeStateMachine+0x554>)
  441692:	4798      	blx	r3
                                if (upgradeSmCb.componentBeingUpgraded == UPGRADING_COMPONENT_NOT_KNOWN) {
  441694:	69f3      	ldr	r3, [r6, #28]
  441696:	2b00      	cmp	r3, #0
  441698:	d156      	bne.n	441748 <upgradeStateMachine+0x3f4>
                                    if (upgradeStartAddress == BOOTLOADER_FLASH_ADDRESS) {
  44169a:	6af3      	ldr	r3, [r6, #44]	; 0x2c
  44169c:	f5b3 0fb0 	cmp.w	r3, #5767168	; 0x580000
  4416a0:	d117      	bne.n	4416d2 <upgradeStateMachine+0x37e>
                                        upgradeSmCb.componentBeingUpgraded = UPGRADING_BOOTLOADER_CODE;
  4416a2:	2302      	movs	r3, #2
  4416a4:	61f3      	str	r3, [r6, #28]
                                        if (bootloaderFlashSignature != 0xFFFFFFFF) {
  4416a6:	4b82      	ldr	r3, [pc, #520]	; (4418b0 <upgradeStateMachine+0x55c>)
  4416a8:	681b      	ldr	r3, [r3, #0]
  4416aa:	f1b3 3fff 	cmp.w	r3, #4294967295
  4416ae:	d04b      	beq.n	441748 <upgradeStateMachine+0x3f4>
                                            flashEraseResult = writeFlashProgramSignature(BOOTLOADER_SIGNATURE_ADDRESS,  NULL_SIGNATURE_VALUE);
  4416b0:	f04f 31ff 	mov.w	r1, #4294967295
  4416b4:	f44f 3008 	mov.w	r0, #139264	; 0x22000
  4416b8:	4b7e      	ldr	r3, [pc, #504]	; (4418b4 <upgradeStateMachine+0x560>)
  4416ba:	4798      	blx	r3
                                            if (flashEraseResult == APP_FLASH_RESULT_SUCCESS) {
  4416bc:	2801      	cmp	r0, #1
  4416be:	d003      	beq.n	4416c8 <upgradeStateMachine+0x374>
                                                printUpgradeResponse(HRC_FLASH_APP_SIGNATURE_ERASE_FAIL);
  4416c0:	2022      	movs	r0, #34	; 0x22
  4416c2:	4b75      	ldr	r3, [pc, #468]	; (441898 <upgradeStateMachine+0x544>)
  4416c4:	4798      	blx	r3
  4416c6:	e70d      	b.n	4414e4 <upgradeStateMachine+0x190>
                                                applicationFlashSignature = 0xFFFFFFFF;
  4416c8:	f04f 32ff 	mov.w	r2, #4294967295
  4416cc:	4b7a      	ldr	r3, [pc, #488]	; (4418b8 <upgradeStateMachine+0x564>)
  4416ce:	601a      	str	r2, [r3, #0]
  4416d0:	e03a      	b.n	441748 <upgradeStateMachine+0x3f4>
                                        printUpgradeResponse(HRC_START_EXT_SEG_ADDR_INVALID);
  4416d2:	2021      	movs	r0, #33	; 0x21
  4416d4:	4b70      	ldr	r3, [pc, #448]	; (441898 <upgradeStateMachine+0x544>)
  4416d6:	4798      	blx	r3
  4416d8:	e704      	b.n	4414e4 <upgradeStateMachine+0x190>
                                printUpgradeResponse(HRC_SEG_ADDR_BUT_HOLD_BUFF_NOT_EMPTY);
  4416da:	2014      	movs	r0, #20
  4416dc:	4b6e      	ldr	r3, [pc, #440]	; (441898 <upgradeStateMachine+0x544>)
  4416de:	4798      	blx	r3
  4416e0:	e700      	b.n	4414e4 <upgradeStateMachine+0x190>
                            printUpgradeResponse(HRC_RELATIVE_ADDR_NOT_ZERO);
  4416e2:	2025      	movs	r0, #37	; 0x25
  4416e4:	4b6c      	ldr	r3, [pc, #432]	; (441898 <upgradeStateMachine+0x544>)
  4416e6:	4798      	blx	r3
  4416e8:	e6fc      	b.n	4414e4 <upgradeStateMachine+0x190>
                    printUpgradeResponse(HRC_EXPECTED_EXT_SEG_ADDR_RECORD);
  4416ea:	201d      	movs	r0, #29
  4416ec:	4b6a      	ldr	r3, [pc, #424]	; (441898 <upgradeStateMachine+0x544>)
  4416ee:	4798      	blx	r3
  4416f0:	e6f8      	b.n	4414e4 <upgradeStateMachine+0x190>
                if (upgradeSmCb.nextExpectedRecordType == HRT_DATA) {
  4416f2:	6a33      	ldr	r3, [r6, #32]
  4416f4:	b9f3      	cbnz	r3, 441734 <upgradeStateMachine+0x3e0>
                    if (upgradeSmCb.hexRecordDataLength == DATA_START_DATA_LENGTH) {
  4416f6:	2a04      	cmp	r2, #4
  4416f8:	d003      	beq.n	441702 <upgradeStateMachine+0x3ae>
                        printUpgradeResponse(HRC_DATA_START_INVALID_LENGTH);
  4416fa:	2016      	movs	r0, #22
  4416fc:	4b66      	ldr	r3, [pc, #408]	; (441898 <upgradeStateMachine+0x544>)
  4416fe:	4798      	blx	r3
  441700:	e6f0      	b.n	4414e4 <upgradeStateMachine+0x190>
                        if (upgradeSmCb.hexRecordRelativeAddress == 0x0000) {
  441702:	b999      	cbnz	r1, 44172c <upgradeStateMachine+0x3d8>
                            printToDebugPort(DEBUG_LAST_HOLDING_TO_FLASH_STRING, (U32)upgradeSmCb.flashSegmentAddress);
  441704:	6af1      	ldr	r1, [r6, #44]	; 0x2c
  441706:	486d      	ldr	r0, [pc, #436]	; (4418bc <upgradeStateMachine+0x568>)
  441708:	4b67      	ldr	r3, [pc, #412]	; (4418a8 <upgradeStateMachine+0x554>)
  44170a:	4798      	blx	r3
                            if (isCommitHoldingBufferToFlash(upgradeSmCb.flashSegmentAddress, upgradeSmCb.longsWrittenToHoldingBuffer)) {
  44170c:	6b71      	ldr	r1, [r6, #52]	; 0x34
  44170e:	6af0      	ldr	r0, [r6, #44]	; 0x2c
  441710:	4b6b      	ldr	r3, [pc, #428]	; (4418c0 <upgradeStateMachine+0x56c>)
  441712:	4798      	blx	r3
  441714:	b130      	cbz	r0, 441724 <upgradeStateMachine+0x3d0>
                                eraseFlashHoldingBuffer();
  441716:	4b6b      	ldr	r3, [pc, #428]	; (4418c4 <upgradeStateMachine+0x570>)
  441718:	4798      	blx	r3
                                upgradeSmCb.longsWrittenToHoldingBuffer = 0;
  44171a:	2300      	movs	r3, #0
  44171c:	6373      	str	r3, [r6, #52]	; 0x34
                                upgradeSmCb.nextExpectedRecordType = HRT_END_OF_FILE;
  44171e:	2301      	movs	r3, #1
  441720:	6233      	str	r3, [r6, #32]
  441722:	e011      	b.n	441748 <upgradeStateMachine+0x3f4>
                                printUpgradeResponse(HRC_LAST_HOLDING_BLOCK_COMMIT_FAIL);
  441724:	201c      	movs	r0, #28
  441726:	4b5c      	ldr	r3, [pc, #368]	; (441898 <upgradeStateMachine+0x544>)
  441728:	4798      	blx	r3
  44172a:	e6db      	b.n	4414e4 <upgradeStateMachine+0x190>
                            printUpgradeResponse(HRC_DATA_START_START_ADDRESS_NOT_ZERO);
  44172c:	2017      	movs	r0, #23
  44172e:	4b5a      	ldr	r3, [pc, #360]	; (441898 <upgradeStateMachine+0x544>)
  441730:	4798      	blx	r3
  441732:	e6d7      	b.n	4414e4 <upgradeStateMachine+0x190>
                    printUpgradeResponse(HRC_UNEXPECTED_SLA_RECORD);
  441734:	2020      	movs	r0, #32
  441736:	4b58      	ldr	r3, [pc, #352]	; (441898 <upgradeStateMachine+0x544>)
  441738:	4798      	blx	r3
  44173a:	e6d3      	b.n	4414e4 <upgradeStateMachine+0x190>
    BOOL processResult = TRUE;
  44173c:	2301      	movs	r3, #1
  44173e:	9301      	str	r3, [sp, #4]
    if (!processResult) { printToDebugPort("I FAILED SOMEHOW\r\n", 0); }
  441740:	9b01      	ldr	r3, [sp, #4]
  441742:	2b00      	cmp	r3, #0
  441744:	f43f aece 	beq.w	4414e4 <upgradeStateMachine+0x190>
                memset(&pOneRecordString[0], 0, (MAX_HEX_RECORD_STRING_LENGTH + 1));
  441748:	222c      	movs	r2, #44	; 0x2c
  44174a:	2100      	movs	r1, #0
  44174c:	a809      	add	r0, sp, #36	; 0x24
  44174e:	4b5e      	ldr	r3, [pc, #376]	; (4418c8 <upgradeStateMachine+0x574>)
  441750:	4798      	blx	r3
                firstRecordOfPacket = FALSE;
  441752:	f04f 0800 	mov.w	r8, #0
                pop = 0;
  441756:	4642      	mov	r2, r8
  441758:	e013      	b.n	441782 <upgradeStateMachine+0x42e>
    if      ((thisChar >= 0x30) && (thisChar <= 0x39)) { isHex = TRUE; } // 0..9 = 0x30..0x39
  44175a:	f1a3 0030 	sub.w	r0, r3, #48	; 0x30
  44175e:	b2c0      	uxtb	r0, r0
  441760:	280a      	cmp	r0, #10
  441762:	d907      	bls.n	441774 <upgradeStateMachine+0x420>
    else if ((thisChar >= 0x41) && (thisChar <= 0x46)) { isHex = TRUE; } // A..F = 0x41..0x46
  441764:	3941      	subs	r1, #65	; 0x41
  441766:	b2c9      	uxtb	r1, r1
  441768:	2905      	cmp	r1, #5
  44176a:	d903      	bls.n	441774 <upgradeStateMachine+0x420>
                    printUpgradeResponse(HRC_HEX_CHARACTER_NOT_HEX);
  44176c:	202b      	movs	r0, #43	; 0x2b
  44176e:	4b4a      	ldr	r3, [pc, #296]	; (441898 <upgradeStateMachine+0x544>)
  441770:	4798      	blx	r3
  441772:	e6bb      	b.n	4414ec <upgradeStateMachine+0x198>
            if (pop > MAX_HEX_RECORD_STRING_LENGTH) {
  441774:	2a2b      	cmp	r2, #43	; 0x2b
  441776:	d82b      	bhi.n	4417d0 <upgradeStateMachine+0x47c>
                pOneRecordString[pop++] = pXferData[iggy];
  441778:	a914      	add	r1, sp, #80	; 0x50
  44177a:	4411      	add	r1, r2
  44177c:	f801 3c2c 	strb.w	r3, [r1, #-44]
  441780:	3201      	adds	r2, #1
    for (iggy = 0; iggy <= upgradeSmCb.currentHexRecordLength; iggy++) {
  441782:	3701      	adds	r7, #1
  441784:	68b3      	ldr	r3, [r6, #8]
  441786:	429f      	cmp	r7, r3
  441788:	f200 80ac 	bhi.w	4418e4 <upgradeStateMachine+0x590>
        if ((pXferData[iggy] == ' ') || (pXferData[iggy] == 0x00)) {
  44178c:	f815 3f01 	ldrb.w	r3, [r5, #1]!
  441790:	f013 01df 	ands.w	r1, r3, #223	; 0xdf
  441794:	d1e1      	bne.n	44175a <upgradeStateMachine+0x406>
            oneRecordStringLength = strlen(pOneRecordString);
  441796:	a809      	add	r0, sp, #36	; 0x24
  441798:	47d8      	blx	fp
  44179a:	4604      	mov	r4, r0
            if (pOneRecordString[0] != ':') {
  44179c:	f89d 3024 	ldrb.w	r3, [sp, #36]	; 0x24
  4417a0:	2b3a      	cmp	r3, #58	; 0x3a
  4417a2:	f47f ae3b 	bne.w	44141c <upgradeStateMachine+0xc8>
            if (strlen(&pOneRecordString[0]) > MAX_HEX_RECORD_STRING_LENGTH) {
  4417a6:	a809      	add	r0, sp, #36	; 0x24
  4417a8:	47d8      	blx	fp
  4417aa:	282b      	cmp	r0, #43	; 0x2b
  4417ac:	f63f ae3f 	bhi.w	44142e <upgradeStateMachine+0xda>
            if ((oneRecordStringLength % 2) == 0) {
  4417b0:	f014 0f01 	tst.w	r4, #1
  4417b4:	f43f ae41 	beq.w	44143a <upgradeStateMachine+0xe6>
    for (iggy = 1; iggy < componentLength; iggy+=2) {
  4417b8:	2c01      	cmp	r4, #1
  4417ba:	f67f ae3c 	bls.w	441436 <upgradeStateMachine+0xe2>
  4417be:	f10d 0e24 	add.w	lr, sp, #36	; 0x24
  4417c2:	a903      	add	r1, sp, #12
  4417c4:	3c02      	subs	r4, #2
  4417c6:	0864      	lsrs	r4, r4, #1
  4417c8:	3401      	adds	r4, #1
  4417ca:	1908      	adds	r0, r1, r4
  4417cc:	460a      	mov	r2, r1
  4417ce:	e64e      	b.n	44146e <upgradeStateMachine+0x11a>
                printUpgradeResponse(HRC_XFER_PACKET_COMPONENT_TOO_LONG);
  4417d0:	2012      	movs	r0, #18
  4417d2:	4b31      	ldr	r3, [pc, #196]	; (441898 <upgradeStateMachine+0x544>)
  4417d4:	4798      	blx	r3
  4417d6:	e689      	b.n	4414ec <upgradeStateMachine+0x198>
                printUpgradeResponse(HRC_CANCEL_DATA_PKT_STATE_ACK);
  4417d8:	4b2f      	ldr	r3, [pc, #188]	; (441898 <upgradeStateMachine+0x544>)
  4417da:	4798      	blx	r3
                setUpgradeSmIdle(LAST_UPGRADE_RESULT_CANCELLED);
  4417dc:	2005      	movs	r0, #5
  4417de:	4b3b      	ldr	r3, [pc, #236]	; (4418cc <upgradeStateMachine+0x578>)
  4417e0:	4798      	blx	r3
  4417e2:	e603      	b.n	4413ec <upgradeStateMachine+0x98>
            if (command == UPGRADE_COMMAND_END) {
  4417e4:	2803      	cmp	r0, #3
  4417e6:	d008      	beq.n	4417fa <upgradeStateMachine+0x4a6>
            } else if (command == UPGRADE_COMMAND_CANCEL) {
  4417e8:	2805      	cmp	r0, #5
  4417ea:	d010      	beq.n	44180e <upgradeStateMachine+0x4ba>
                printUpgradeResponse(HRC_INVAL_CMD_END_TRANSFER_STATE);
  4417ec:	2011      	movs	r0, #17
  4417ee:	4b2a      	ldr	r3, [pc, #168]	; (441898 <upgradeStateMachine+0x544>)
  4417f0:	4798      	blx	r3
                setUpgradeSmIdle(LAST_UPGRADE_RESULT_GENERIC_FAILED);
  4417f2:	2006      	movs	r0, #6
  4417f4:	4b35      	ldr	r3, [pc, #212]	; (4418cc <upgradeStateMachine+0x578>)
  4417f6:	4798      	blx	r3
  4417f8:	e5cc      	b.n	441394 <upgradeStateMachine+0x40>
                printUpgradeResponse(HRC_END_ACK);
  4417fa:	4b27      	ldr	r3, [pc, #156]	; (441898 <upgradeStateMachine+0x544>)
  4417fc:	4798      	blx	r3
                printToDebugPort(DEBUG_RECEIVED_END_COMMAND_STRING, 0);
  4417fe:	2100      	movs	r1, #0
  441800:	4833      	ldr	r0, [pc, #204]	; (4418d0 <upgradeStateMachine+0x57c>)
  441802:	4b29      	ldr	r3, [pc, #164]	; (4418a8 <upgradeStateMachine+0x554>)
  441804:	4798      	blx	r3
                upgradeSmCb.state = SM_WAIT_APP_FINAL_COMMIT_STATE;
  441806:	2204      	movs	r2, #4
  441808:	4b32      	ldr	r3, [pc, #200]	; (4418d4 <upgradeStateMachine+0x580>)
  44180a:	601a      	str	r2, [r3, #0]
  44180c:	e5c2      	b.n	441394 <upgradeStateMachine+0x40>
                printUpgradeResponse(HRC_CANCEL_WAIT_END_TRANSFER_STATE_ACK);
  44180e:	2006      	movs	r0, #6
  441810:	4b21      	ldr	r3, [pc, #132]	; (441898 <upgradeStateMachine+0x544>)
  441812:	4798      	blx	r3
                setUpgradeSmIdle(LAST_UPGRADE_RESULT_CANCELLED);
  441814:	2005      	movs	r0, #5
  441816:	4b2d      	ldr	r3, [pc, #180]	; (4418cc <upgradeStateMachine+0x578>)
  441818:	4798      	blx	r3
  44181a:	e5bb      	b.n	441394 <upgradeStateMachine+0x40>
            if (command == UPGRADE_COMMAND_COMMIT) {
  44181c:	2804      	cmp	r0, #4
  44181e:	d00a      	beq.n	441836 <upgradeStateMachine+0x4e2>
            } else if (command == UPGRADE_COMMAND_CANCEL) {
  441820:	2805      	cmp	r0, #5
  441822:	d024      	beq.n	44186e <upgradeStateMachine+0x51a>
            } else if (command == UPGRADE_COMMAND_END) {
  441824:	2803      	cmp	r0, #3
  441826:	d029      	beq.n	44187c <upgradeStateMachine+0x528>
                printUpgradeResponse(HRC_INVAL_CMD_FINAL_COMMIT_STATE);
  441828:	2023      	movs	r0, #35	; 0x23
  44182a:	4b1b      	ldr	r3, [pc, #108]	; (441898 <upgradeStateMachine+0x544>)
  44182c:	4798      	blx	r3
                setUpgradeSmIdle(LAST_UPGRADE_RESULT_GENERIC_FAILED);
  44182e:	2006      	movs	r0, #6
  441830:	4b26      	ldr	r3, [pc, #152]	; (4418cc <upgradeStateMachine+0x578>)
  441832:	4798      	blx	r3
  441834:	e5ae      	b.n	441394 <upgradeStateMachine+0x40>
    if (writeFlashProgramSignature(BOOTLOADER_SIGNATURE_ADDRESS, BOOTLOADER_SIGNATURE_VALUE)   == APP_FLASH_RESULT_SUCCESS) {
  441836:	4928      	ldr	r1, [pc, #160]	; (4418d8 <upgradeStateMachine+0x584>)
  441838:	f44f 3008 	mov.w	r0, #139264	; 0x22000
  44183c:	4b1d      	ldr	r3, [pc, #116]	; (4418b4 <upgradeStateMachine+0x560>)
  44183e:	4798      	blx	r3
  441840:	2801      	cmp	r0, #1
  441842:	d006      	beq.n	441852 <upgradeStateMachine+0x4fe>
        printUpgradeResponse(HRC_FINAL_COMMIT_FAIL);
  441844:	2024      	movs	r0, #36	; 0x24
  441846:	4b14      	ldr	r3, [pc, #80]	; (441898 <upgradeStateMachine+0x544>)
  441848:	4798      	blx	r3
                else                        { setUpgradeSmIdle(LAST_UPGRADE_RESULT_GENERIC_FAILED); }
  44184a:	2006      	movs	r0, #6
  44184c:	4b1f      	ldr	r3, [pc, #124]	; (4418cc <upgradeStateMachine+0x578>)
  44184e:	4798      	blx	r3
  441850:	e5a0      	b.n	441394 <upgradeStateMachine+0x40>
        bootloaderFlashSignature = BOOTLOADER_SIGNATURE_VALUE;
  441852:	4a21      	ldr	r2, [pc, #132]	; (4418d8 <upgradeStateMachine+0x584>)
  441854:	4b16      	ldr	r3, [pc, #88]	; (4418b0 <upgradeStateMachine+0x55c>)
  441856:	601a      	str	r2, [r3, #0]
        printUpgradeResponse(HRC_FINAL_COMMIT_ACK);
  441858:	2004      	movs	r0, #4
  44185a:	4b0f      	ldr	r3, [pc, #60]	; (441898 <upgradeStateMachine+0x544>)
  44185c:	4798      	blx	r3
        printToDebugPort(DEBUG_FINAL_APP_COMMIT_STRING, 0);
  44185e:	2100      	movs	r1, #0
  441860:	481e      	ldr	r0, [pc, #120]	; (4418dc <upgradeStateMachine+0x588>)
  441862:	4b11      	ldr	r3, [pc, #68]	; (4418a8 <upgradeStateMachine+0x554>)
  441864:	4798      	blx	r3
                if (isProcessFinalCommit()) { setUpgradeSmIdle(LAST_UPGRADE_RESULT_SUCCESS);        }
  441866:	2002      	movs	r0, #2
  441868:	4b18      	ldr	r3, [pc, #96]	; (4418cc <upgradeStateMachine+0x578>)
  44186a:	4798      	blx	r3
  44186c:	e592      	b.n	441394 <upgradeStateMachine+0x40>
                printUpgradeResponse(HRC_CANCEL_WAIT_FINAL_COMMIT_STATE_ACK);
  44186e:	2007      	movs	r0, #7
  441870:	4b09      	ldr	r3, [pc, #36]	; (441898 <upgradeStateMachine+0x544>)
  441872:	4798      	blx	r3
                setUpgradeSmIdle(LAST_UPGRADE_RESULT_CANCELLED);
  441874:	2005      	movs	r0, #5
  441876:	4b15      	ldr	r3, [pc, #84]	; (4418cc <upgradeStateMachine+0x578>)
  441878:	4798      	blx	r3
  44187a:	e58b      	b.n	441394 <upgradeStateMachine+0x40>
                printUpgradeResponse(HRC_END_ACK);
  44187c:	4b06      	ldr	r3, [pc, #24]	; (441898 <upgradeStateMachine+0x544>)
  44187e:	4798      	blx	r3
                printToDebugPort(DEBUG_RECEIVED_END_COMMAND_RESENT_STRING, 0);
  441880:	2100      	movs	r1, #0
  441882:	4817      	ldr	r0, [pc, #92]	; (4418e0 <upgradeStateMachine+0x58c>)
  441884:	4b08      	ldr	r3, [pc, #32]	; (4418a8 <upgradeStateMachine+0x554>)
  441886:	4798      	blx	r3
  441888:	e584      	b.n	441394 <upgradeStateMachine+0x40>
            printUpgradeResponse(HRC_INVAL_STATE_MACHINE_COMMAND);
  44188a:	200e      	movs	r0, #14
  44188c:	4b02      	ldr	r3, [pc, #8]	; (441898 <upgradeStateMachine+0x544>)
  44188e:	4798      	blx	r3
            setUpgradeSmIdle(LAST_UPGRADE_RESULT_GENERIC_FAILED);
  441890:	2006      	movs	r0, #6
  441892:	4b0e      	ldr	r3, [pc, #56]	; (4418cc <upgradeStateMachine+0x578>)
  441894:	4798      	blx	r3
}
  441896:	e57d      	b.n	441394 <upgradeStateMachine+0x40>
  441898:	00440a11 	.word	0x00440a11
  44189c:	00458430 	.word	0x00458430
  4418a0:	00452095 	.word	0x00452095
  4418a4:	00458360 	.word	0x00458360
  4418a8:	004409a9 	.word	0x004409a9
  4418ac:	00458204 	.word	0x00458204
  4418b0:	20404d00 	.word	0x20404d00
  4418b4:	00440cf1 	.word	0x00440cf1
  4418b8:	20404d58 	.word	0x20404d58
  4418bc:	0045828c 	.word	0x0045828c
  4418c0:	00441299 	.word	0x00441299
  4418c4:	00440979 	.word	0x00440979
  4418c8:	00452229 	.word	0x00452229
  4418cc:	00440991 	.word	0x00440991
  4418d0:	004582dc 	.word	0x004582dc
  4418d4:	20402aa4 	.word	0x20402aa4
  4418d8:	3810910f 	.word	0x3810910f
  4418dc:	00458218 	.word	0x00458218
  4418e0:	004582bc 	.word	0x004582bc
                    printUpgradeResponse(HRC_RECEIVE_ACK);
  4418e4:	2002      	movs	r0, #2
  4418e6:	4b1d      	ldr	r3, [pc, #116]	; (44195c <upgradeStateMachine+0x608>)
  4418e8:	4798      	blx	r3
  4418ea:	e57f      	b.n	4413ec <upgradeStateMachine+0x98>
                            printToDebugPort(DEBUG_WRITE_TO_HOLDING_STRING, (U32)upgradeSmCb.hexRecordRelativeAddress);
  4418ec:	8ab1      	ldrh	r1, [r6, #20]
  4418ee:	481c      	ldr	r0, [pc, #112]	; (441960 <upgradeStateMachine+0x60c>)
  4418f0:	4b1c      	ldr	r3, [pc, #112]	; (441964 <upgradeStateMachine+0x610>)
  4418f2:	4798      	blx	r3
    if (debugHexRecordOutputEnabled) {
  4418f4:	4b1c      	ldr	r3, [pc, #112]	; (441968 <upgradeStateMachine+0x614>)
  4418f6:	781b      	ldrb	r3, [r3, #0]
  4418f8:	2b00      	cmp	r3, #0
  4418fa:	f43f af25 	beq.w	441748 <upgradeStateMachine+0x3f4>
  4418fe:	2301      	movs	r3, #1
  441900:	9301      	str	r3, [sp, #4]
        memset(pDebugString, 0, MAX_DEBUG_STRING_LENGTH);
  441902:	f8df 8070 	ldr.w	r8, [pc, #112]	; 441974 <upgradeStateMachine+0x620>
  441906:	2240      	movs	r2, #64	; 0x40
  441908:	2100      	movs	r1, #0
  44190a:	4640      	mov	r0, r8
  44190c:	4b17      	ldr	r3, [pc, #92]	; (44196c <upgradeStateMachine+0x618>)
  44190e:	4798      	blx	r3
        sprintf(&pDebugString[0], ":");
  441910:	233a      	movs	r3, #58	; 0x3a
  441912:	f8a8 3000 	strh.w	r3, [r8]
        for (iggy = 0; iggy < numberOfBytes; iggy++) {
  441916:	b17c      	cbz	r4, 441938 <upgradeStateMachine+0x5e4>
  441918:	f10d 080c 	add.w	r8, sp, #12
  44191c:	f8df 9064 	ldr.w	r9, [pc, #100]	; 441984 <upgradeStateMachine+0x630>
  441920:	4444      	add	r4, r8
            sprintf(&pDebugString[stringRank], "%02X", pBytes[iggy]);
  441922:	f8df a064 	ldr.w	sl, [pc, #100]	; 441988 <upgradeStateMachine+0x634>
  441926:	f818 2b01 	ldrb.w	r2, [r8], #1
  44192a:	4911      	ldr	r1, [pc, #68]	; (441970 <upgradeStateMachine+0x61c>)
  44192c:	4648      	mov	r0, r9
  44192e:	47d0      	blx	sl
  441930:	f109 0902 	add.w	r9, r9, #2
        for (iggy = 0; iggy < numberOfBytes; iggy++) {
  441934:	4544      	cmp	r4, r8
  441936:	d1f6      	bne.n	441926 <upgradeStateMachine+0x5d2>
        sprintf(&pDebugString[strlen(pDebugString)], "\r\n");
  441938:	4c0e      	ldr	r4, [pc, #56]	; (441974 <upgradeStateMachine+0x620>)
  44193a:	4620      	mov	r0, r4
  44193c:	47d8      	blx	fp
  44193e:	1822      	adds	r2, r4, r0
  441940:	4b0d      	ldr	r3, [pc, #52]	; (441978 <upgradeStateMachine+0x624>)
  441942:	8819      	ldrh	r1, [r3, #0]
  441944:	789b      	ldrb	r3, [r3, #2]
  441946:	5221      	strh	r1, [r4, r0]
  441948:	7093      	strb	r3, [r2, #2]
        usart_serial_write_packet((usart_if)UART1, (uint8_t *)pDebugString, strlen(pDebugString));
  44194a:	4620      	mov	r0, r4
  44194c:	47d8      	blx	fp
  44194e:	4602      	mov	r2, r0
  441950:	4621      	mov	r1, r4
  441952:	480a      	ldr	r0, [pc, #40]	; (44197c <upgradeStateMachine+0x628>)
  441954:	4b0a      	ldr	r3, [pc, #40]	; (441980 <upgradeStateMachine+0x62c>)
  441956:	4798      	blx	r3
  441958:	e6f2      	b.n	441740 <upgradeStateMachine+0x3ec>
  44195a:	bf00      	nop
  44195c:	00440a11 	.word	0x00440a11
  441960:	00458420 	.word	0x00458420
  441964:	004409a9 	.word	0x004409a9
  441968:	20404c25 	.word	0x20404c25
  44196c:	00452229 	.word	0x00452229
  441970:	004585d8 	.word	0x004585d8
  441974:	20400b80 	.word	0x20400b80
  441978:	0045dec0 	.word	0x0045dec0
  44197c:	400e0a00 	.word	0x400e0a00
  441980:	004500d1 	.word	0x004500d1
  441984:	20400b81 	.word	0x20400b81
  441988:	00452465 	.word	0x00452465

0044198c <initRgbLedActivityData>:
//
void initRgbLedActivityData(void)
{
    // Init data.

    ledActivityCb.nextTimestamp = 0;
  44198c:	4b07      	ldr	r3, [pc, #28]	; (4419ac <initRgbLedActivityData+0x20>)
  44198e:	2200      	movs	r2, #0
  441990:	601a      	str	r2, [r3, #0]
    ledActivityCb.nextAction    = RGB_ACTIVITY_OFF;
  441992:	2102      	movs	r1, #2
  441994:	6059      	str	r1, [r3, #4]

    rgbLedFlashingDemoCb.demoFlashingEnabled = FALSE;
  441996:	4b06      	ldr	r3, [pc, #24]	; (4419b0 <initRgbLedActivityData+0x24>)
  441998:	701a      	strb	r2, [r3, #0]
    rgbLedFlashingDemoCb.redEnabled          = FALSE;
  44199a:	705a      	strb	r2, [r3, #1]
    rgbLedFlashingDemoCb.greenEnabled        = FALSE;
  44199c:	709a      	strb	r2, [r3, #2]
    rgbLedFlashingDemoCb.blueEnabled         = FALSE;
  44199e:	70da      	strb	r2, [r3, #3]
    rgbLedFlashingDemoCb.onPeriod            = 0;
  4419a0:	605a      	str	r2, [r3, #4]
    rgbLedFlashingDemoCb.offPeriod           = 0;
  4419a2:	609a      	str	r2, [r3, #8]
    rgbLedFlashingDemoCb.nextActionTimestamp = 0;
  4419a4:	60da      	str	r2, [r3, #12]
    rgbLedFlashingDemoCb.nextActionOn        = TRUE;
  4419a6:	2201      	movs	r2, #1
  4419a8:	741a      	strb	r2, [r3, #16]
  4419aa:	4770      	bx	lr
  4419ac:	20404c28 	.word	0x20404c28
  4419b0:	20404c30 	.word	0x20404c30

004419b4 <setRgbLed>:
//
// Low-level function to set any of the RED, GREEN or BLUE LED to MEDIUM, OFF or BRILLIANT intensity.
// In a running system, be it APPLICATION or BOOTLOADER, this function is called at the appropriate
// interval to set the RED LED to either MEDIUM or OFF.
void setRgbLed(U32 gpio, U32 direction, U32 level)
{
  4419b4:	b410      	push	{r4}
    ioport_set_pin_dir(gpio,   direction);
  4419b6:	b2c9      	uxtb	r1, r1
	} else {
		return (Pio *)((uintptr_t)IOPORT_BASE_ADDRESS +
		       (IOPORT_PIO_OFFSET * port));
	}
#else
	return (Pio *)((uintptr_t)IOPORT_BASE_ADDRESS +
  4419b8:	4b0f      	ldr	r3, [pc, #60]	; (4419f8 <setRgbLed+0x44>)
  4419ba:	eb03 1350 	add.w	r3, r3, r0, lsr #5
  4419be:	025b      	lsls	r3, r3, #9
__always_inline static void arch_ioport_set_pin_dir(ioport_pin_t pin,
		enum ioport_direction dir)
{
	Pio *base = arch_ioport_pin_to_base(pin);

	if (dir == IOPORT_DIR_OUTPUT) {
  4419c0:	2901      	cmp	r1, #1
  4419c2:	d011      	beq.n	4419e8 <setRgbLed+0x34>
		base->PIO_OER = arch_ioport_pin_to_mask(pin);
	} else if (dir == IOPORT_DIR_INPUT) {
  4419c4:	b921      	cbnz	r1, 4419d0 <setRgbLed+0x1c>
	return 1U << (pin & 0x1F);
  4419c6:	f000 041f 	and.w	r4, r0, #31
  4419ca:	2101      	movs	r1, #1
  4419cc:	40a1      	lsls	r1, r4
		base->PIO_ODR = arch_ioport_pin_to_mask(pin);
  4419ce:	6159      	str	r1, [r3, #20]
	return 1U << (pin & 0x1F);
  4419d0:	f000 001f 	and.w	r0, r0, #31
  4419d4:	2101      	movs	r1, #1
  4419d6:	fa01 f000 	lsl.w	r0, r1, r0
	}

	base->PIO_OWER = arch_ioport_pin_to_mask(pin);
  4419da:	f8c3 00a0 	str.w	r0, [r3, #160]	; 0xa0
__always_inline static void arch_ioport_set_pin_level(ioport_pin_t pin,
		bool level)
{
	Pio *base = arch_ioport_pin_to_base(pin);

	if (level) {
  4419de:	b942      	cbnz	r2, 4419f2 <setRgbLed+0x3e>
		base->PIO_SODR = arch_ioport_pin_to_mask(pin);
	} else {
		base->PIO_CODR = arch_ioport_pin_to_mask(pin);
  4419e0:	6358      	str	r0, [r3, #52]	; 0x34
    ioport_set_pin_level(gpio, level);
}
  4419e2:	f85d 4b04 	ldr.w	r4, [sp], #4
  4419e6:	4770      	bx	lr
	return 1U << (pin & 0x1F);
  4419e8:	f000 041f 	and.w	r4, r0, #31
  4419ec:	40a1      	lsls	r1, r4
		base->PIO_OER = arch_ioport_pin_to_mask(pin);
  4419ee:	6119      	str	r1, [r3, #16]
  4419f0:	e7ee      	b.n	4419d0 <setRgbLed+0x1c>
		base->PIO_SODR = arch_ioport_pin_to_mask(pin);
  4419f2:	6318      	str	r0, [r3, #48]	; 0x30
  4419f4:	e7f5      	b.n	4419e2 <setRgbLed+0x2e>
  4419f6:	bf00      	nop
  4419f8:	00200707 	.word	0x00200707

004419fc <updateRgbLedActivityStatus>:
{
  4419fc:	b508      	push	{r3, lr}
    if (rgbLedFlashingDemoCb.demoFlashingEnabled == FALSE) {
  4419fe:	4b1b      	ldr	r3, [pc, #108]	; (441a6c <updateRgbLedActivityStatus+0x70>)
  441a00:	781b      	ldrb	r3, [r3, #0]
  441a02:	b9d3      	cbnz	r3, 441a3a <updateRgbLedActivityStatus+0x3e>
        if (g_ul_ms_ticks >= ledActivityCb.nextTimestamp) {
  441a04:	4b1a      	ldr	r3, [pc, #104]	; (441a70 <updateRgbLedActivityStatus+0x74>)
  441a06:	681a      	ldr	r2, [r3, #0]
  441a08:	4b1a      	ldr	r3, [pc, #104]	; (441a74 <updateRgbLedActivityStatus+0x78>)
  441a0a:	681b      	ldr	r3, [r3, #0]
  441a0c:	429a      	cmp	r2, r3
  441a0e:	d814      	bhi.n	441a3a <updateRgbLedActivityStatus+0x3e>
            if (ledActivityCb.nextAction == RGB_ACTIVITY_OFF) {
  441a10:	4b17      	ldr	r3, [pc, #92]	; (441a70 <updateRgbLedActivityStatus+0x74>)
  441a12:	685b      	ldr	r3, [r3, #4]
  441a14:	2b02      	cmp	r3, #2
  441a16:	d011      	beq.n	441a3c <updateRgbLedActivityStatus+0x40>
                setRgbLed(RGB_LED_RED_GPIO, IOPORT_DIR_OUTPUT, IOPORT_PIN_LEVEL_HIGH);
  441a18:	2201      	movs	r2, #1
  441a1a:	4611      	mov	r1, r2
  441a1c:	2000      	movs	r0, #0
  441a1e:	4b16      	ldr	r3, [pc, #88]	; (441a78 <updateRgbLedActivityStatus+0x7c>)
  441a20:	4798      	blx	r3
                ledActivityCb.nextAction = RGB_ACTIVITY_OFF;
  441a22:	2202      	movs	r2, #2
  441a24:	4b12      	ldr	r3, [pc, #72]	; (441a70 <updateRgbLedActivityStatus+0x74>)
  441a26:	605a      	str	r2, [r3, #4]
                if (isUpgradeStateMachineIdle()) { ledActivityCb.nextTimestamp = g_ul_ms_ticks + APPLICATION_LED_ON_PERIOD; }
  441a28:	4b14      	ldr	r3, [pc, #80]	; (441a7c <updateRgbLedActivityStatus+0x80>)
  441a2a:	4798      	blx	r3
                else                             { ledActivityCb.nextTimestamp = g_ul_ms_ticks + BOOTLOADER_XFER_ON_PERIOD; }
  441a2c:	4b11      	ldr	r3, [pc, #68]	; (441a74 <updateRgbLedActivityStatus+0x78>)
  441a2e:	681b      	ldr	r3, [r3, #0]
  441a30:	33fa      	adds	r3, #250	; 0xfa
  441a32:	4a0f      	ldr	r2, [pc, #60]	; (441a70 <updateRgbLedActivityStatus+0x74>)
  441a34:	6013      	str	r3, [r2, #0]
            pokeWatchdog();
  441a36:	4b12      	ldr	r3, [pc, #72]	; (441a80 <updateRgbLedActivityStatus+0x84>)
  441a38:	4798      	blx	r3
  441a3a:	bd08      	pop	{r3, pc}
                setRgbLed(RGB_LED_RED_GPIO, IOPORT_DIR_INPUT, IOPORT_PIN_LEVEL_LOW);
  441a3c:	2200      	movs	r2, #0
  441a3e:	4611      	mov	r1, r2
  441a40:	4610      	mov	r0, r2
  441a42:	4b0d      	ldr	r3, [pc, #52]	; (441a78 <updateRgbLedActivityStatus+0x7c>)
  441a44:	4798      	blx	r3
                ledActivityCb.nextAction = RGB_ACTIVITY_ON;
  441a46:	2201      	movs	r2, #1
  441a48:	4b09      	ldr	r3, [pc, #36]	; (441a70 <updateRgbLedActivityStatus+0x74>)
  441a4a:	605a      	str	r2, [r3, #4]
                if (isUpgradeStateMachineIdle()) { ledActivityCb.nextTimestamp = g_ul_ms_ticks + APPLICATION_LED_OFF_PERIOD; }
  441a4c:	4b0b      	ldr	r3, [pc, #44]	; (441a7c <updateRgbLedActivityStatus+0x80>)
  441a4e:	4798      	blx	r3
  441a50:	b130      	cbz	r0, 441a60 <updateRgbLedActivityStatus+0x64>
  441a52:	4b08      	ldr	r3, [pc, #32]	; (441a74 <updateRgbLedActivityStatus+0x78>)
  441a54:	681b      	ldr	r3, [r3, #0]
  441a56:	f603 33b8 	addw	r3, r3, #3000	; 0xbb8
  441a5a:	4a05      	ldr	r2, [pc, #20]	; (441a70 <updateRgbLedActivityStatus+0x74>)
  441a5c:	6013      	str	r3, [r2, #0]
  441a5e:	e7ea      	b.n	441a36 <updateRgbLedActivityStatus+0x3a>
                else                             { ledActivityCb.nextTimestamp = g_ul_ms_ticks + BOOTLOADER_XFER_OFF_PERIOD; }
  441a60:	4b04      	ldr	r3, [pc, #16]	; (441a74 <updateRgbLedActivityStatus+0x78>)
  441a62:	681b      	ldr	r3, [r3, #0]
  441a64:	33fa      	adds	r3, #250	; 0xfa
  441a66:	4a02      	ldr	r2, [pc, #8]	; (441a70 <updateRgbLedActivityStatus+0x74>)
  441a68:	6013      	str	r3, [r2, #0]
  441a6a:	e7e4      	b.n	441a36 <updateRgbLedActivityStatus+0x3a>
  441a6c:	20404c30 	.word	0x20404c30
  441a70:	20404c28 	.word	0x20404c28
  441a74:	20402a64 	.word	0x20402a64
  441a78:	004419b5 	.word	0x004419b5
  441a7c:	0044126d 	.word	0x0044126d
  441a80:	0044c7c5 	.word	0x0044c7c5

00441a84 <userSetRgbLed>:
{
  441a84:	b570      	push	{r4, r5, r6, lr}
  441a86:	b084      	sub	sp, #16
  441a88:	460c      	mov	r4, r1
  441a8a:	4615      	mov	r5, r2
    printf("{%s:{%s:\"%s\",%s:%u,%s:", CLI_STRING, COMMAND_STRING, pCliCommand, CODE_STRING, 0, RESPONSE_STRING);
  441a8c:	4b16      	ldr	r3, [pc, #88]	; (441ae8 <userSetRgbLed+0x64>)
  441a8e:	9302      	str	r3, [sp, #8]
  441a90:	2300      	movs	r3, #0
  441a92:	9301      	str	r3, [sp, #4]
  441a94:	4b15      	ldr	r3, [pc, #84]	; (441aec <userSetRgbLed+0x68>)
  441a96:	9300      	str	r3, [sp, #0]
  441a98:	4603      	mov	r3, r0
  441a9a:	4a15      	ldr	r2, [pc, #84]	; (441af0 <userSetRgbLed+0x6c>)
  441a9c:	4915      	ldr	r1, [pc, #84]	; (441af4 <userSetRgbLed+0x70>)
  441a9e:	4816      	ldr	r0, [pc, #88]	; (441af8 <userSetRgbLed+0x74>)
  441aa0:	4e16      	ldr	r6, [pc, #88]	; (441afc <userSetRgbLed+0x78>)
  441aa2:	47b0      	blx	r6
    if        (ledSetting == RGB_LED_MEDIUM)      { printf("\"GPIO %lu LEVEL MEDIUM\"}}\r\n",    gpio); setRgbLed(gpio, IOPORT_DIR_OUTPUT, IOPORT_PIN_LEVEL_HIGH); }
  441aa4:	2d01      	cmp	r5, #1
  441aa6:	d00c      	beq.n	441ac2 <userSetRgbLed+0x3e>
    else   if (ledSetting == RGB_LED_OFF)         { printf("\"GPIO %lu LEVEL OFF\"}}\r\n",       gpio); setRgbLed(gpio, IOPORT_DIR_INPUT,  IOPORT_PIN_LEVEL_LOW);  }
  441aa8:	2d02      	cmp	r5, #2
  441aaa:	d013      	beq.n	441ad4 <userSetRgbLed+0x50>
    else /*if (ledSetting == RGB_LED_BRILLIANT)*/ { printf("\"GPIO %lu LEVEL BRILLIANT\"}}\r\n", gpio); setRgbLed(gpio, IOPORT_DIR_OUTPUT, IOPORT_PIN_LEVEL_LOW);  }
  441aac:	4621      	mov	r1, r4
  441aae:	4814      	ldr	r0, [pc, #80]	; (441b00 <userSetRgbLed+0x7c>)
  441ab0:	4b12      	ldr	r3, [pc, #72]	; (441afc <userSetRgbLed+0x78>)
  441ab2:	4798      	blx	r3
  441ab4:	2200      	movs	r2, #0
  441ab6:	2101      	movs	r1, #1
  441ab8:	4620      	mov	r0, r4
  441aba:	4b12      	ldr	r3, [pc, #72]	; (441b04 <userSetRgbLed+0x80>)
  441abc:	4798      	blx	r3
}
  441abe:	b004      	add	sp, #16
  441ac0:	bd70      	pop	{r4, r5, r6, pc}
    if        (ledSetting == RGB_LED_MEDIUM)      { printf("\"GPIO %lu LEVEL MEDIUM\"}}\r\n",    gpio); setRgbLed(gpio, IOPORT_DIR_OUTPUT, IOPORT_PIN_LEVEL_HIGH); }
  441ac2:	4621      	mov	r1, r4
  441ac4:	4810      	ldr	r0, [pc, #64]	; (441b08 <userSetRgbLed+0x84>)
  441ac6:	47b0      	blx	r6
  441ac8:	2201      	movs	r2, #1
  441aca:	4611      	mov	r1, r2
  441acc:	4620      	mov	r0, r4
  441ace:	4b0d      	ldr	r3, [pc, #52]	; (441b04 <userSetRgbLed+0x80>)
  441ad0:	4798      	blx	r3
  441ad2:	e7f4      	b.n	441abe <userSetRgbLed+0x3a>
    else   if (ledSetting == RGB_LED_OFF)         { printf("\"GPIO %lu LEVEL OFF\"}}\r\n",       gpio); setRgbLed(gpio, IOPORT_DIR_INPUT,  IOPORT_PIN_LEVEL_LOW);  }
  441ad4:	4621      	mov	r1, r4
  441ad6:	480d      	ldr	r0, [pc, #52]	; (441b0c <userSetRgbLed+0x88>)
  441ad8:	4b08      	ldr	r3, [pc, #32]	; (441afc <userSetRgbLed+0x78>)
  441ada:	4798      	blx	r3
  441adc:	2200      	movs	r2, #0
  441ade:	4611      	mov	r1, r2
  441ae0:	4620      	mov	r0, r4
  441ae2:	4b08      	ldr	r3, [pc, #32]	; (441b04 <userSetRgbLed+0x80>)
  441ae4:	4798      	blx	r3
  441ae6:	e7ea      	b.n	441abe <userSetRgbLed+0x3a>
  441ae8:	0045a3d4 	.word	0x0045a3d4
  441aec:	00458d08 	.word	0x00458d08
  441af0:	00458d24 	.word	0x00458d24
  441af4:	00458cf8 	.word	0x00458cf8
  441af8:	00458724 	.word	0x00458724
  441afc:	0045206d 	.word	0x0045206d
  441b00:	00458774 	.word	0x00458774
  441b04:	004419b5 	.word	0x004419b5
  441b08:	0045873c 	.word	0x0045873c
  441b0c:	00458758 	.word	0x00458758

00441b10 <disableRgbLedFlashing>:
{
  441b10:	b538      	push	{r3, r4, r5, lr}
    rgbLedFlashingDemoCb.demoFlashingEnabled = FALSE;
  441b12:	2400      	movs	r4, #0
  441b14:	4b07      	ldr	r3, [pc, #28]	; (441b34 <disableRgbLedFlashing+0x24>)
  441b16:	701c      	strb	r4, [r3, #0]
    setRgbLed(RGB_LED_RED_GPIO,   IOPORT_DIR_INPUT,  IOPORT_PIN_LEVEL_LOW);
  441b18:	4622      	mov	r2, r4
  441b1a:	4621      	mov	r1, r4
  441b1c:	4620      	mov	r0, r4
  441b1e:	4d06      	ldr	r5, [pc, #24]	; (441b38 <disableRgbLedFlashing+0x28>)
  441b20:	47a8      	blx	r5
    setRgbLed(RGB_LED_GREEN_GPIO, IOPORT_DIR_INPUT,  IOPORT_PIN_LEVEL_LOW);
  441b22:	4622      	mov	r2, r4
  441b24:	4621      	mov	r1, r4
  441b26:	200f      	movs	r0, #15
  441b28:	47a8      	blx	r5
    setRgbLed(RGB_LED_BLUE_GPIO,  IOPORT_DIR_INPUT,  IOPORT_PIN_LEVEL_LOW);
  441b2a:	4622      	mov	r2, r4
  441b2c:	4621      	mov	r1, r4
  441b2e:	201a      	movs	r0, #26
  441b30:	47a8      	blx	r5
  441b32:	bd38      	pop	{r3, r4, r5, pc}
  441b34:	20404c30 	.word	0x20404c30
  441b38:	004419b5 	.word	0x004419b5

00441b3c <rgbLedFlashEnable>:
{
  441b3c:	b5f0      	push	{r4, r5, r6, r7, lr}
  441b3e:	b0bd      	sub	sp, #244	; 0xf4
    if (flashingEnable == FALSE) {
  441b40:	2900      	cmp	r1, #0
  441b42:	d043      	beq.n	441bcc <rgbLedFlashEnable+0x90>
  441b44:	4606      	mov	r6, r0
        memset(pColorString,     0, AMU_COMPONENT_DATA_SIZE_MAX);
  441b46:	2520      	movs	r5, #32
  441b48:	462a      	mov	r2, r5
  441b4a:	2100      	movs	r1, #0
  441b4c:	a834      	add	r0, sp, #208	; 0xd0
  441b4e:	4c92      	ldr	r4, [pc, #584]	; (441d98 <rgbLedFlashEnable+0x25c>)
  441b50:	47a0      	blx	r4
        memset(pOnPeriodString,  0, AMU_COMPONENT_DATA_SIZE_MAX);
  441b52:	462a      	mov	r2, r5
  441b54:	2100      	movs	r1, #0
  441b56:	a82c      	add	r0, sp, #176	; 0xb0
  441b58:	47a0      	blx	r4
        memset(pOffPeriodString, 0, AMU_COMPONENT_DATA_SIZE_MAX);
  441b5a:	462a      	mov	r2, r5
  441b5c:	2100      	movs	r1, #0
  441b5e:	a824      	add	r0, sp, #144	; 0x90
  441b60:	47a0      	blx	r4
        memset(pInfoString,      0, AMU_COMPONENT_DATA_SIZE_MAX*2);
  441b62:	2540      	movs	r5, #64	; 0x40
  441b64:	462a      	mov	r2, r5
  441b66:	2100      	movs	r1, #0
  441b68:	a814      	add	r0, sp, #80	; 0x50
  441b6a:	47a0      	blx	r4
        memset(pExtraInfo,       0, AMU_COMPONENT_DATA_SIZE_MAX*2);
  441b6c:	462a      	mov	r2, r5
  441b6e:	2100      	movs	r1, #0
  441b70:	a804      	add	r0, sp, #16
  441b72:	47a0      	blx	r4
        pArguments = &pUserInput[strlen(RGB_LED_ENABLE_CMD) + 1];
  441b74:	4889      	ldr	r0, [pc, #548]	; (441d9c <rgbLedFlashEnable+0x260>)
  441b76:	4b8a      	ldr	r3, [pc, #552]	; (441da0 <rgbLedFlashEnable+0x264>)
  441b78:	4798      	blx	r3
  441b7a:	3001      	adds	r0, #1
  441b7c:	1834      	adds	r4, r6, r0
        findComponentStringData(CLI_ARG_RGB_COLOR_STRING,  pColorString,     pArguments);
  441b7e:	4622      	mov	r2, r4
  441b80:	a934      	add	r1, sp, #208	; 0xd0
  441b82:	4888      	ldr	r0, [pc, #544]	; (441da4 <rgbLedFlashEnable+0x268>)
  441b84:	4d88      	ldr	r5, [pc, #544]	; (441da8 <rgbLedFlashEnable+0x26c>)
  441b86:	47a8      	blx	r5
        findComponentStringData(CLI_ARG_ON_PERIOD_STRING,  pOnPeriodString,  pArguments);
  441b88:	4622      	mov	r2, r4
  441b8a:	a92c      	add	r1, sp, #176	; 0xb0
  441b8c:	4887      	ldr	r0, [pc, #540]	; (441dac <rgbLedFlashEnable+0x270>)
  441b8e:	47a8      	blx	r5
        findComponentStringData(CLI_ARG_OFF_PERIOD_STRING, pOffPeriodString, pArguments);
  441b90:	4622      	mov	r2, r4
  441b92:	a924      	add	r1, sp, #144	; 0x90
  441b94:	4886      	ldr	r0, [pc, #536]	; (441db0 <rgbLedFlashEnable+0x274>)
  441b96:	47a8      	blx	r5
        if ((strlen(pColorString) == 0) || (strlen(pOnPeriodString) == 0) || (strlen(pOffPeriodString) == 0)) {
  441b98:	f89d 30d0 	ldrb.w	r3, [sp, #208]	; 0xd0
  441b9c:	b133      	cbz	r3, 441bac <rgbLedFlashEnable+0x70>
  441b9e:	f89d 30b0 	ldrb.w	r3, [sp, #176]	; 0xb0
  441ba2:	b11b      	cbz	r3, 441bac <rgbLedFlashEnable+0x70>
  441ba4:	f89d 3090 	ldrb.w	r3, [sp, #144]	; 0x90
  441ba8:	2b00      	cmp	r3, #0
  441baa:	d12a      	bne.n	441c02 <rgbLedFlashEnable+0xc6>
            sprintf(pExtraInfo, "\"invalid args, flashing disabled\"");
  441bac:	ac04      	add	r4, sp, #16
  441bae:	4d81      	ldr	r5, [pc, #516]	; (441db4 <rgbLedFlashEnable+0x278>)
  441bb0:	cd0f      	ldmia	r5!, {r0, r1, r2, r3}
  441bb2:	c40f      	stmia	r4!, {r0, r1, r2, r3}
  441bb4:	cd0f      	ldmia	r5!, {r0, r1, r2, r3}
  441bb6:	c40f      	stmia	r4!, {r0, r1, r2, r3}
  441bb8:	682b      	ldr	r3, [r5, #0]
  441bba:	8023      	strh	r3, [r4, #0]
            displayInvalidParameters(pUserInput, pExtraInfo);
  441bbc:	a904      	add	r1, sp, #16
  441bbe:	4630      	mov	r0, r6
  441bc0:	4b7d      	ldr	r3, [pc, #500]	; (441db8 <rgbLedFlashEnable+0x27c>)
  441bc2:	4798      	blx	r3
            disableRgbLedFlashing();
  441bc4:	4b7d      	ldr	r3, [pc, #500]	; (441dbc <rgbLedFlashEnable+0x280>)
  441bc6:	4798      	blx	r3
}
  441bc8:	b03d      	add	sp, #244	; 0xf4
  441bca:	bdf0      	pop	{r4, r5, r6, r7, pc}
        rgbLedFlashingDemoCb.demoFlashingEnabled = FALSE;
  441bcc:	2400      	movs	r4, #0
  441bce:	4b7c      	ldr	r3, [pc, #496]	; (441dc0 <rgbLedFlashEnable+0x284>)
  441bd0:	701c      	strb	r4, [r3, #0]
        setRgbLed(RGB_LED_RED_GPIO,   IOPORT_DIR_INPUT,  IOPORT_PIN_LEVEL_LOW);
  441bd2:	4622      	mov	r2, r4
  441bd4:	4621      	mov	r1, r4
  441bd6:	4620      	mov	r0, r4
  441bd8:	4d7a      	ldr	r5, [pc, #488]	; (441dc4 <rgbLedFlashEnable+0x288>)
  441bda:	47a8      	blx	r5
        setRgbLed(RGB_LED_GREEN_GPIO, IOPORT_DIR_INPUT,  IOPORT_PIN_LEVEL_LOW);
  441bdc:	4622      	mov	r2, r4
  441bde:	4621      	mov	r1, r4
  441be0:	200f      	movs	r0, #15
  441be2:	47a8      	blx	r5
        setRgbLed(RGB_LED_BLUE_GPIO,  IOPORT_DIR_INPUT,  IOPORT_PIN_LEVEL_LOW);
  441be4:	4622      	mov	r2, r4
  441be6:	4621      	mov	r1, r4
  441be8:	201a      	movs	r0, #26
  441bea:	47a8      	blx	r5
        printf("{%s:{%s:\"%s\",%s:%s}}\r\n", CLI_STRING, COMMAND_STRING, RGB_LED_DISABLE_CMD, RESPONSE_STRING, CLI_FLASHING_IS_DISABLED_STRING);
  441bec:	4b76      	ldr	r3, [pc, #472]	; (441dc8 <rgbLedFlashEnable+0x28c>)
  441bee:	9301      	str	r3, [sp, #4]
  441bf0:	4b76      	ldr	r3, [pc, #472]	; (441dcc <rgbLedFlashEnable+0x290>)
  441bf2:	9300      	str	r3, [sp, #0]
  441bf4:	4b76      	ldr	r3, [pc, #472]	; (441dd0 <rgbLedFlashEnable+0x294>)
  441bf6:	4a77      	ldr	r2, [pc, #476]	; (441dd4 <rgbLedFlashEnable+0x298>)
  441bf8:	4977      	ldr	r1, [pc, #476]	; (441dd8 <rgbLedFlashEnable+0x29c>)
  441bfa:	4878      	ldr	r0, [pc, #480]	; (441ddc <rgbLedFlashEnable+0x2a0>)
  441bfc:	4c78      	ldr	r4, [pc, #480]	; (441de0 <rgbLedFlashEnable+0x2a4>)
  441bfe:	47a0      	blx	r4
  441c00:	e7e2      	b.n	441bc8 <rgbLedFlashEnable+0x8c>
            if ((isStringDecimalDigit(pOnPeriodString)) && (isStringDecimalDigit(pOffPeriodString))) {
  441c02:	a82c      	add	r0, sp, #176	; 0xb0
  441c04:	4b77      	ldr	r3, [pc, #476]	; (441de4 <rgbLedFlashEnable+0x2a8>)
  441c06:	4798      	blx	r3
  441c08:	b118      	cbz	r0, 441c12 <rgbLedFlashEnable+0xd6>
  441c0a:	a824      	add	r0, sp, #144	; 0x90
  441c0c:	4b75      	ldr	r3, [pc, #468]	; (441de4 <rgbLedFlashEnable+0x2a8>)
  441c0e:	4798      	blx	r3
  441c10:	b998      	cbnz	r0, 441c3a <rgbLedFlashEnable+0xfe>
                sprintf(pExtraInfo, "\"on/off must be digits, flashing disabled\"");
  441c12:	ac04      	add	r4, sp, #16
  441c14:	4d74      	ldr	r5, [pc, #464]	; (441de8 <rgbLedFlashEnable+0x2ac>)
  441c16:	cd0f      	ldmia	r5!, {r0, r1, r2, r3}
  441c18:	c40f      	stmia	r4!, {r0, r1, r2, r3}
  441c1a:	cd0f      	ldmia	r5!, {r0, r1, r2, r3}
  441c1c:	c40f      	stmia	r4!, {r0, r1, r2, r3}
  441c1e:	e895 0007 	ldmia.w	r5, {r0, r1, r2}
  441c22:	c403      	stmia	r4!, {r0, r1}
  441c24:	f824 2b02 	strh.w	r2, [r4], #2
  441c28:	0c12      	lsrs	r2, r2, #16
  441c2a:	7022      	strb	r2, [r4, #0]
                displayInvalidParameters(pUserInput, pExtraInfo);
  441c2c:	a904      	add	r1, sp, #16
  441c2e:	4630      	mov	r0, r6
  441c30:	4b61      	ldr	r3, [pc, #388]	; (441db8 <rgbLedFlashEnable+0x27c>)
  441c32:	4798      	blx	r3
                disableRgbLedFlashing();
  441c34:	4b61      	ldr	r3, [pc, #388]	; (441dbc <rgbLedFlashEnable+0x280>)
  441c36:	4798      	blx	r3
}
  441c38:	e7c6      	b.n	441bc8 <rgbLedFlashEnable+0x8c>
                onPeriod = atoi(pOnPeriodString);
  441c3a:	a82c      	add	r0, sp, #176	; 0xb0
  441c3c:	4b6b      	ldr	r3, [pc, #428]	; (441dec <rgbLedFlashEnable+0x2b0>)
  441c3e:	4798      	blx	r3
                if (onPeriod == 0) {
  441c40:	4605      	mov	r5, r0
  441c42:	2800      	cmp	r0, #0
  441c44:	f000 8086 	beq.w	441d54 <rgbLedFlashEnable+0x218>
                    offPeriod = atoi(pOffPeriodString);
  441c48:	a824      	add	r0, sp, #144	; 0x90
  441c4a:	4b68      	ldr	r3, [pc, #416]	; (441dec <rgbLedFlashEnable+0x2b0>)
  441c4c:	4798      	blx	r3
                    if (offPeriod == 0) {
  441c4e:	4607      	mov	r7, r0
  441c50:	2800      	cmp	r0, #0
  441c52:	f000 8090 	beq.w	441d76 <rgbLedFlashEnable+0x23a>
                    rgbLedFlashingDemoCb.redEnabled   = FALSE;
  441c56:	4b5a      	ldr	r3, [pc, #360]	; (441dc0 <rgbLedFlashEnable+0x284>)
  441c58:	2200      	movs	r2, #0
  441c5a:	705a      	strb	r2, [r3, #1]
                    rgbLedFlashingDemoCb.greenEnabled = FALSE;
  441c5c:	709a      	strb	r2, [r3, #2]
                    rgbLedFlashingDemoCb.blueEnabled  = FALSE;
  441c5e:	70da      	strb	r2, [r3, #3]
                    if (strncmp(pColorString, &CLI_ARG_RED_COLOR_STRING[0],   strlen(CLI_ARG_RED_COLOR_STRING))   == 0) { rgbLedFlashingDemoCb.redEnabled   = TRUE; }
  441c60:	4c63      	ldr	r4, [pc, #396]	; (441df0 <rgbLedFlashEnable+0x2b4>)
  441c62:	4620      	mov	r0, r4
  441c64:	4b4e      	ldr	r3, [pc, #312]	; (441da0 <rgbLedFlashEnable+0x264>)
  441c66:	4798      	blx	r3
  441c68:	4602      	mov	r2, r0
  441c6a:	4621      	mov	r1, r4
  441c6c:	a834      	add	r0, sp, #208	; 0xd0
  441c6e:	4b61      	ldr	r3, [pc, #388]	; (441df4 <rgbLedFlashEnable+0x2b8>)
  441c70:	4798      	blx	r3
  441c72:	b910      	cbnz	r0, 441c7a <rgbLedFlashEnable+0x13e>
  441c74:	2201      	movs	r2, #1
  441c76:	4b52      	ldr	r3, [pc, #328]	; (441dc0 <rgbLedFlashEnable+0x284>)
  441c78:	705a      	strb	r2, [r3, #1]
                    if (strncmp(pColorString, &CLI_ARG_GREEN_COLOR_STRING[0], strlen(CLI_ARG_GREEN_COLOR_STRING)) == 0) { rgbLedFlashingDemoCb.greenEnabled = TRUE; }
  441c7a:	4c5f      	ldr	r4, [pc, #380]	; (441df8 <rgbLedFlashEnable+0x2bc>)
  441c7c:	4620      	mov	r0, r4
  441c7e:	4b48      	ldr	r3, [pc, #288]	; (441da0 <rgbLedFlashEnable+0x264>)
  441c80:	4798      	blx	r3
  441c82:	4602      	mov	r2, r0
  441c84:	4621      	mov	r1, r4
  441c86:	a834      	add	r0, sp, #208	; 0xd0
  441c88:	4b5a      	ldr	r3, [pc, #360]	; (441df4 <rgbLedFlashEnable+0x2b8>)
  441c8a:	4798      	blx	r3
  441c8c:	b910      	cbnz	r0, 441c94 <rgbLedFlashEnable+0x158>
  441c8e:	2201      	movs	r2, #1
  441c90:	4b4b      	ldr	r3, [pc, #300]	; (441dc0 <rgbLedFlashEnable+0x284>)
  441c92:	709a      	strb	r2, [r3, #2]
                    if (strncmp(pColorString, &CLI_ARG_BLUE_COLOR_STRING[0],  strlen(CLI_ARG_BLUE_COLOR_STRING))  == 0) { rgbLedFlashingDemoCb.blueEnabled  = TRUE; }
  441c94:	4c59      	ldr	r4, [pc, #356]	; (441dfc <rgbLedFlashEnable+0x2c0>)
  441c96:	4620      	mov	r0, r4
  441c98:	4b41      	ldr	r3, [pc, #260]	; (441da0 <rgbLedFlashEnable+0x264>)
  441c9a:	4798      	blx	r3
  441c9c:	4602      	mov	r2, r0
  441c9e:	4621      	mov	r1, r4
  441ca0:	a834      	add	r0, sp, #208	; 0xd0
  441ca2:	4b54      	ldr	r3, [pc, #336]	; (441df4 <rgbLedFlashEnable+0x2b8>)
  441ca4:	4798      	blx	r3
  441ca6:	b910      	cbnz	r0, 441cae <rgbLedFlashEnable+0x172>
  441ca8:	2201      	movs	r2, #1
  441caa:	4b45      	ldr	r3, [pc, #276]	; (441dc0 <rgbLedFlashEnable+0x284>)
  441cac:	70da      	strb	r2, [r3, #3]
                    if (strncmp(pColorString, &CLI_ARG_ALL_COLOR_STRING[0],   strlen(CLI_ARG_ALL_COLOR_STRING))   == 0) { rgbLedFlashingDemoCb.redEnabled   = TRUE;
  441cae:	4c54      	ldr	r4, [pc, #336]	; (441e00 <rgbLedFlashEnable+0x2c4>)
  441cb0:	4620      	mov	r0, r4
  441cb2:	4b3b      	ldr	r3, [pc, #236]	; (441da0 <rgbLedFlashEnable+0x264>)
  441cb4:	4798      	blx	r3
  441cb6:	4602      	mov	r2, r0
  441cb8:	4621      	mov	r1, r4
  441cba:	a834      	add	r0, sp, #208	; 0xd0
  441cbc:	4b4d      	ldr	r3, [pc, #308]	; (441df4 <rgbLedFlashEnable+0x2b8>)
  441cbe:	4798      	blx	r3
  441cc0:	b920      	cbnz	r0, 441ccc <rgbLedFlashEnable+0x190>
  441cc2:	4b3f      	ldr	r3, [pc, #252]	; (441dc0 <rgbLedFlashEnable+0x284>)
  441cc4:	2201      	movs	r2, #1
  441cc6:	705a      	strb	r2, [r3, #1]
                                                                                                                          rgbLedFlashingDemoCb.greenEnabled = TRUE;
  441cc8:	709a      	strb	r2, [r3, #2]
                                                                                                                          rgbLedFlashingDemoCb.blueEnabled  = TRUE; }
  441cca:	70da      	strb	r2, [r3, #3]
                    if ((rgbLedFlashingDemoCb.redEnabled == FALSE) && (rgbLedFlashingDemoCb.greenEnabled == FALSE) && (rgbLedFlashingDemoCb.blueEnabled == FALSE)) {
  441ccc:	4b3c      	ldr	r3, [pc, #240]	; (441dc0 <rgbLedFlashEnable+0x284>)
  441cce:	681b      	ldr	r3, [r3, #0]
  441cd0:	f033 03ff 	bics.w	r3, r3, #255	; 0xff
  441cd4:	f000 80aa 	beq.w	441e2c <rgbLedFlashEnable+0x2f0>
                        rgbLedFlashingDemoCb.onPeriod            = onPeriod;
  441cd8:	4c39      	ldr	r4, [pc, #228]	; (441dc0 <rgbLedFlashEnable+0x284>)
  441cda:	6065      	str	r5, [r4, #4]
                        rgbLedFlashingDemoCb.offPeriod           = offPeriod;
  441cdc:	60a7      	str	r7, [r4, #8]
                        rgbLedFlashingDemoCb.demoFlashingEnabled = TRUE;
  441cde:	2201      	movs	r2, #1
  441ce0:	7022      	strb	r2, [r4, #0]
                        rgbLedFlashingDemoCb.nextActionTimestamp = g_ul_ms_ticks +  rgbLedFlashingDemoCb.onPeriod;
  441ce2:	4b48      	ldr	r3, [pc, #288]	; (441e04 <rgbLedFlashEnable+0x2c8>)
  441ce4:	681b      	ldr	r3, [r3, #0]
  441ce6:	442b      	add	r3, r5
  441ce8:	60e3      	str	r3, [r4, #12]
                        rgbLedFlashingDemoCb.nextActionOn        = TRUE;
  441cea:	7422      	strb	r2, [r4, #16]
                        sprintf(pInfoString, "colors=");
  441cec:	ab14      	add	r3, sp, #80	; 0x50
  441cee:	4a46      	ldr	r2, [pc, #280]	; (441e08 <rgbLedFlashEnable+0x2cc>)
  441cf0:	e892 0003 	ldmia.w	r2, {r0, r1}
  441cf4:	e883 0003 	stmia.w	r3, {r0, r1}
                        infoLength = strlen(pInfoString);
  441cf8:	4618      	mov	r0, r3
  441cfa:	4b29      	ldr	r3, [pc, #164]	; (441da0 <rgbLedFlashEnable+0x264>)
  441cfc:	4798      	blx	r3
  441cfe:	4603      	mov	r3, r0
                        if (rgbLedFlashingDemoCb.redEnabled)   { sprintf(&pInfoString[infoLength], "red ");   infoLength = strlen(pInfoString); }
  441d00:	7862      	ldrb	r2, [r4, #1]
  441d02:	2a00      	cmp	r2, #0
  441d04:	f040 80a1 	bne.w	441e4a <rgbLedFlashEnable+0x30e>
                        if (rgbLedFlashingDemoCb.greenEnabled) { sprintf(&pInfoString[infoLength], "green "); infoLength = strlen(pInfoString); }
  441d08:	4a2d      	ldr	r2, [pc, #180]	; (441dc0 <rgbLedFlashEnable+0x284>)
  441d0a:	7892      	ldrb	r2, [r2, #2]
  441d0c:	2a00      	cmp	r2, #0
  441d0e:	f040 80a8 	bne.w	441e62 <rgbLedFlashEnable+0x326>
                        if (rgbLedFlashingDemoCb.blueEnabled)  { sprintf(&pInfoString[infoLength], "blue ");  infoLength = strlen(pInfoString); }
  441d12:	4a2b      	ldr	r2, [pc, #172]	; (441dc0 <rgbLedFlashEnable+0x284>)
  441d14:	78d2      	ldrb	r2, [r2, #3]
  441d16:	2a00      	cmp	r2, #0
  441d18:	f040 80b1 	bne.w	441e7e <rgbLedFlashEnable+0x342>
                        sprintf(&pInfoString[infoLength], "on=%lu ",  rgbLedFlashingDemoCb.onPeriod);  infoLength = strlen(pInfoString);
  441d1c:	ac14      	add	r4, sp, #80	; 0x50
  441d1e:	462a      	mov	r2, r5
  441d20:	493a      	ldr	r1, [pc, #232]	; (441e0c <rgbLedFlashEnable+0x2d0>)
  441d22:	18e0      	adds	r0, r4, r3
  441d24:	4d3a      	ldr	r5, [pc, #232]	; (441e10 <rgbLedFlashEnable+0x2d4>)
  441d26:	47a8      	blx	r5
  441d28:	4620      	mov	r0, r4
  441d2a:	4b1d      	ldr	r3, [pc, #116]	; (441da0 <rgbLedFlashEnable+0x264>)
  441d2c:	4798      	blx	r3
                        sprintf(&pInfoString[infoLength], "off=%lu ", rgbLedFlashingDemoCb.offPeriod); infoLength = strlen(pInfoString);
  441d2e:	4b24      	ldr	r3, [pc, #144]	; (441dc0 <rgbLedFlashEnable+0x284>)
  441d30:	689a      	ldr	r2, [r3, #8]
  441d32:	4938      	ldr	r1, [pc, #224]	; (441e14 <rgbLedFlashEnable+0x2d8>)
  441d34:	4420      	add	r0, r4
  441d36:	47a8      	blx	r5
                        printf("{%s:{%s:\"%s\",%s:%s,%s:\"%s\"}}\r\n", CLI_STRING, COMMAND_STRING, RGB_LED_ENABLE_CMD, RESPONSE_STRING, CLI_FLASHING_IS_ENABLED_STRING, INFO_STRING, pInfoString);
  441d38:	9403      	str	r4, [sp, #12]
